{
  "contractName": "SupplyChain",
  "abi": [
    {
      "anonymous": false,
      "inputs": [
        {
          "indexed": false,
          "internalType": "uint256",
          "name": "productId",
          "type": "uint256"
        },
        {
          "indexed": false,
          "internalType": "string",
          "name": "name",
          "type": "string"
        }
      ],
      "name": "ProductAdded",
      "type": "event"
    },
    {
      "anonymous": false,
      "inputs": [
        {
          "indexed": false,
          "internalType": "uint256",
          "name": "productId",
          "type": "uint256"
        },
        {
          "indexed": false,
          "internalType": "enum SupplyChain.Stage",
          "name": "newStage",
          "type": "uint8"
        }
      ],
      "name": "StageUpdated",
      "type": "event"
    },
    {
      "inputs": [],
      "name": "productCounter",
      "outputs": [
        {
          "internalType": "uint256",
          "name": "",
          "type": "uint256"
        }
      ],
      "stateMutability": "view",
      "type": "function",
      "constant": true
    },
    {
      "inputs": [
        {
          "internalType": "uint256",
          "name": "",
          "type": "uint256"
        }
      ],
      "name": "products",
      "outputs": [
        {
          "internalType": "string",
          "name": "name",
          "type": "string"
        },
        {
          "internalType": "string",
          "name": "description",
          "type": "string"
        },
        {
          "internalType": "enum SupplyChain.Stage",
          "name": "currentStage",
          "type": "uint8"
        },
        {
          "internalType": "address",
          "name": "currentOwner",
          "type": "address"
        }
      ],
      "stateMutability": "view",
      "type": "function",
      "constant": true
    },
    {
      "inputs": [
        {
          "internalType": "string",
          "name": "_name",
          "type": "string"
        },
        {
          "internalType": "string",
          "name": "_description",
          "type": "string"
        }
      ],
      "name": "addProduct",
      "outputs": [],
      "stateMutability": "nonpayable",
      "type": "function"
    },
    {
      "inputs": [
        {
          "internalType": "uint256",
          "name": "_productId",
          "type": "uint256"
        }
      ],
      "name": "updateStage",
      "outputs": [],
      "stateMutability": "nonpayable",
      "type": "function"
    },
    {
      "inputs": [
        {
          "internalType": "uint256",
          "name": "_productId",
          "type": "uint256"
        }
      ],
      "name": "viewCurrentStage",
      "outputs": [
        {
          "internalType": "enum SupplyChain.Stage",
          "name": "",
          "type": "uint8"
        }
      ],
      "stateMutability": "view",
      "type": "function",
      "constant": true
    }
  ],
  "bytecode": "0x608060405234801561001057600080fd5b50610e82806100206000396000f3fe608060405234801561001057600080fd5b50600436106100575760003560e01c80631f16653b1461005c578063280b2b0d1461007a5780637acc0b20146100aa578063b4f704df146100dd578063ca2efb55146100f9575b600080fd5b610064610115565b6040516100719190610aef565b60405180910390f35b610094600480360381019061008f91906108d2565b61011b565b6040516100a19190610a21565b60405180910390f35b6100c460048036038101906100bf91906108d2565b610147565b6040516100d49493929190610a3c565b60405180910390f35b6100f760048036038101906100f291906108d2565b6102b4565b005b610113600480360381019061010e9190610866565b610591565b005b60015481565b600080600083815260200190815260200160002060020160009054906101000a900460ff169050919050565b600060205280600052604060002060009150905080600001805461016a90610cd9565b80601f016020809104026020016040519081016040528092919081815260200182805461019690610cd9565b80156101e35780601f106101b8576101008083540402835291602001916101e3565b820191906000526020600020905b8154815290600101906020018083116101c657829003601f168201915b5050505050908060010180546101f890610cd9565b80601f016020809104026020016040519081016040528092919081815260200182805461022490610cd9565b80156102715780601f1061024657610100808354040283529160200191610271565b820191906000526020600020905b81548152906001019060200180831161025457829003601f168201915b5050505050908060020160009054906101000a900460ff16908060020160019054906101000a900473ffffffffffffffffffffffffffffffffffffffff16905084565b60015481106102f8576040517f08c379a00000000000000000000000000000000000000000000000000000000081526004016102ef90610aaf565b60405180910390fd5b600080600083815260200190815260200160002090508060020160019054906101000a900473ffffffffffffffffffffffffffffffffffffffff1673ffffffffffffffffffffffffffffffffffffffff163373ffffffffffffffffffffffffffffffffffffffff16146103a0576040517f08c379a000000000000000000000000000000000000000000000000000000000815260040161039790610a8f565b60405180910390fd5b6005808111156103d9577f4e487b7100000000000000000000000000000000000000000000000000000000600052602160045260246000fd5b8160020160009054906101000a900460ff166005811115610423577f4e487b7100000000000000000000000000000000000000000000000000000000600052602160045260246000fd5b1415610464576040517f08c379a000000000000000000000000000000000000000000000000000000000815260040161045b90610acf565b60405180910390fd5b60018160020160009054906101000a900460ff1660058111156104b0577f4e487b7100000000000000000000000000000000000000000000000000000000600052602160045260246000fd5b6104ba9190610be0565b60058111156104f2577f4e487b7100000000000000000000000000000000000000000000000000000000600052602160045260246000fd5b8160020160006101000a81548160ff0219169083600581111561053e577f4e487b7100000000000000000000000000000000000000000000000000000000600052602160045260246000fd5b02179055507fe07678ebda9ff268c2c8531bb0ebfc488d9fa7067d919572337a14a72c3aa0b7828260020160009054906101000a900460ff16604051610585929190610b0a565b60405180910390a15050565b6040518060800160405280838152602001828152602001600060058111156105e2577f4e487b7100000000000000000000000000000000000000000000000000000000600052602160045260246000fd5b81526020013373ffffffffffffffffffffffffffffffffffffffff1681525060008060015481526020019081526020016000206000820151816000019080519060200190610631929190610746565b50602082015181600101908051906020019061064e929190610746565b5060408201518160020160006101000a81548160ff021916908360058111156106a0577f4e487b7100000000000000000000000000000000000000000000000000000000600052602160045260246000fd5b021790555060608201518160020160016101000a81548173ffffffffffffffffffffffffffffffffffffffff021916908373ffffffffffffffffffffffffffffffffffffffff1602179055509050507f259101de1f87b04b9ee0332ce5e3cc508014004bf283424aead6cd8692f5cf9860015483604051610722929190610b33565b60405180910390a16001600081548092919061073d90610d0b565b91905055505050565b82805461075290610cd9565b90600052602060002090601f01602090048101928261077457600085556107bb565b82601f1061078d57805160ff19168380011785556107bb565b828001600101855582156107bb579182015b828111156107ba57825182559160200191906001019061079f565b5b5090506107c891906107cc565b5090565b5b808211156107e55760008160009055506001016107cd565b5090565b60006107fc6107f784610b94565b610b63565b90508281526020810184848401111561081457600080fd5b61081f848285610c97565b509392505050565b600082601f83011261083857600080fd5b81356108488482602086016107e9565b91505092915050565b60008135905061086081610e35565b92915050565b6000806040838503121561087957600080fd5b600083013567ffffffffffffffff81111561089357600080fd5b61089f85828601610827565b925050602083013567ffffffffffffffff8111156108bc57600080fd5b6108c885828601610827565b9150509250929050565b6000602082840312156108e457600080fd5b60006108f284828501610851565b91505092915050565b61090481610c36565b82525050565b61091381610c85565b82525050565b600061092482610bc4565b61092e8185610bcf565b935061093e818560208601610ca6565b61094781610e10565b840191505092915050565b600061095f601d83610bcf565b91507f4f6e6c792063757272656e74206f776e65722063616e207570646174650000006000830152602082019050919050565b600061099f601283610bcf565b91507f496e76616c69642070726f6475637420494400000000000000000000000000006000830152602082019050919050565b60006109df600c83610bcf565b91507f416c726561647920736f6c6400000000000000000000000000000000000000006000830152602082019050919050565b610a1b81610c7b565b82525050565b6000602082019050610a36600083018461090a565b92915050565b60006080820190508181036000830152610a568187610919565b90508181036020830152610a6a8186610919565b9050610a79604083018561090a565b610a8660608301846108fb565b95945050505050565b60006020820190508181036000830152610aa881610952565b9050919050565b60006020820190508181036000830152610ac881610992565b9050919050565b60006020820190508181036000830152610ae8816109d2565b9050919050565b6000602082019050610b046000830184610a12565b92915050565b6000604082019050610b1f6000830185610a12565b610b2c602083018461090a565b9392505050565b6000604082019050610b486000830185610a12565b8181036020830152610b5a8184610919565b90509392505050565b6000604051905081810181811067ffffffffffffffff82111715610b8a57610b89610de1565b5b8060405250919050565b600067ffffffffffffffff821115610baf57610bae610de1565b5b601f19601f8301169050602081019050919050565b600081519050919050565b600082825260208201905092915050565b6000610beb82610c7b565b9150610bf683610c7b565b9250827fffffffffffffffffffffffffffffffffffffffffffffffffffffffffffffffff03821115610c2b57610c2a610d54565b5b828201905092915050565b6000610c4182610c5b565b9050919050565b6000819050610c5682610e21565b919050565b600073ffffffffffffffffffffffffffffffffffffffff82169050919050565b6000819050919050565b6000610c9082610c48565b9050919050565b82818337600083830152505050565b60005b83811015610cc4578082015181840152602081019050610ca9565b83811115610cd3576000848401525b50505050565b60006002820490506001821680610cf157607f821691505b60208210811415610d0557610d04610db2565b5b50919050565b6000610d1682610c7b565b91507fffffffffffffffffffffffffffffffffffffffffffffffffffffffffffffffff821415610d4957610d48610d54565b5b600182019050919050565b7f4e487b7100000000000000000000000000000000000000000000000000000000600052601160045260246000fd5b7f4e487b7100000000000000000000000000000000000000000000000000000000600052602160045260246000fd5b7f4e487b7100000000000000000000000000000000000000000000000000000000600052602260045260246000fd5b7f4e487b7100000000000000000000000000000000000000000000000000000000600052604160045260246000fd5b6000601f19601f8301169050919050565b60068110610e3257610e31610d83565b5b50565b610e3e81610c7b565b8114610e4957600080fd5b5056fea26469706673582212203be32541c156da1035ed5dd83ceeeffa94d7f30f2d456575bcfefe79e256dbc164736f6c63430008000033",
  "immutableReferences": {},
  "source": "// SPDX-License-Identifier: MIT\npragma solidity ^0.8.0;\n\ncontract SupplyChain {\n    enum Stage { RawMaterial, Manufacturing, Shipping, Distribution, Retail, Sold }\n\n    struct Product {\n        string name;\n        string description;\n        Stage currentStage;\n        address currentOwner;\n    }\n\n    mapping(uint => Product) public products;\n    uint public productCounter;\n\n    event ProductAdded(uint productId, string name);\n    event StageUpdated(uint productId, Stage newStage);\n\n    function addProduct(string memory _name, string memory _description) public {\n        products[productCounter] = Product(_name, _description, Stage.RawMaterial, msg.sender);\n        emit ProductAdded(productCounter, _name);\n        productCounter++;\n    }\n\n    function updateStage(uint _productId) public {\n        require(_productId < productCounter, \"Invalid product ID\");\n        Product storage prod = products[_productId];\n        require(msg.sender == prod.currentOwner, \"Only current owner can update\");\n\n        require(prod.currentStage != Stage.Sold, \"Already sold\");\n        prod.currentStage = Stage(uint(prod.currentStage) + 1);\n        emit StageUpdated(_productId, prod.currentStage);\n    }\n\n    function viewCurrentStage(uint _productId) public view returns (Stage) {\n        return products[_productId].currentStage;\n    }\n}\n\n",
  "sourcePath": "/home/osboxes/Desktop/196DProject/contracts/SupplyChain.sol",
  "compiler": {
    "name": "solc",
    "version": "0.8.0+commit.c7dfd78e.Emscripten.clang"
  },
  "schemaVersion": "3.4.16",
  "updatedAt": "2025-04-14T19:23:37.863Z",
  "networkType": "ethereum",
  "devdoc": {
    "kind": "dev",
    "methods": {},
    "version": 1
  },
  "userdoc": {
    "kind": "user",
    "methods": {},
    "version": 1
  }
}