{
  "contractName": "SupplyChain",
  "abi": [
    {
      "inputs": [],
      "stateMutability": "nonpayable",
      "type": "constructor"
    },
    {
      "inputs": [
        {
          "internalType": "uint256",
          "name": "",
          "type": "uint256"
        }
      ],
      "name": "distributors",
      "outputs": [
        {
          "internalType": "string",
          "name": "name",
          "type": "string"
        },
        {
          "internalType": "address",
          "name": "companyAddress",
          "type": "address"
        },
        {
          "internalType": "string",
          "name": "placeOfOperation",
          "type": "string"
        }
      ],
      "stateMutability": "view",
      "type": "function",
      "constant": true
    },
    {
      "inputs": [],
      "name": "owner",
      "outputs": [
        {
          "internalType": "address",
          "name": "",
          "type": "address"
        }
      ],
      "stateMutability": "view",
      "type": "function",
      "constant": true
    },
    {
      "inputs": [],
      "name": "productCount",
      "outputs": [
        {
          "internalType": "uint256",
          "name": "",
          "type": "uint256"
        }
      ],
      "stateMutability": "view",
      "type": "function",
      "constant": true
    },
    {
      "inputs": [
        {
          "internalType": "uint256",
          "name": "",
          "type": "uint256"
        }
      ],
      "name": "rawMaterialSuppliers",
      "outputs": [
        {
          "internalType": "string",
          "name": "name",
          "type": "string"
        },
        {
          "internalType": "address",
          "name": "companyAddress",
          "type": "address"
        },
        {
          "internalType": "string",
          "name": "placeOfOperation",
          "type": "string"
        }
      ],
      "stateMutability": "view",
      "type": "function",
      "constant": true
    },
    {
      "inputs": [
        {
          "internalType": "uint256",
          "name": "",
          "type": "uint256"
        }
      ],
      "name": "retailers",
      "outputs": [
        {
          "internalType": "string",
          "name": "name",
          "type": "string"
        },
        {
          "internalType": "address",
          "name": "companyAddress",
          "type": "address"
        },
        {
          "internalType": "string",
          "name": "placeOfOperation",
          "type": "string"
        }
      ],
      "stateMutability": "view",
      "type": "function",
      "constant": true
    },
    {
      "inputs": [
        {
          "internalType": "uint256",
          "name": "",
          "type": "uint256"
        }
      ],
      "name": "shippers",
      "outputs": [
        {
          "internalType": "string",
          "name": "name",
          "type": "string"
        },
        {
          "internalType": "address",
          "name": "companyAddress",
          "type": "address"
        },
        {
          "internalType": "string",
          "name": "placeOfOperation",
          "type": "string"
        }
      ],
      "stateMutability": "view",
      "type": "function",
      "constant": true
    },
    {
      "inputs": [
        {
          "internalType": "uint256",
          "name": "",
          "type": "uint256"
        }
      ],
      "name": "suppliers",
      "outputs": [
        {
          "internalType": "string",
          "name": "name",
          "type": "string"
        },
        {
          "internalType": "address",
          "name": "companyAddress",
          "type": "address"
        },
        {
          "internalType": "string",
          "name": "placeOfOperation",
          "type": "string"
        }
      ],
      "stateMutability": "view",
      "type": "function",
      "constant": true
    },
    {
      "inputs": [
        {
          "internalType": "string",
          "name": "name",
          "type": "string"
        },
        {
          "internalType": "address",
          "name": "companyAddr",
          "type": "address"
        },
        {
          "internalType": "string",
          "name": "location",
          "type": "string"
        }
      ],
      "name": "addRawMaterialSupplier",
      "outputs": [],
      "stateMutability": "nonpayable",
      "type": "function"
    },
    {
      "inputs": [
        {
          "internalType": "string",
          "name": "name",
          "type": "string"
        },
        {
          "internalType": "address",
          "name": "companyAddr",
          "type": "address"
        },
        {
          "internalType": "string",
          "name": "location",
          "type": "string"
        }
      ],
      "name": "addSupplier",
      "outputs": [],
      "stateMutability": "nonpayable",
      "type": "function"
    },
    {
      "inputs": [
        {
          "internalType": "string",
          "name": "name",
          "type": "string"
        },
        {
          "internalType": "address",
          "name": "companyAddr",
          "type": "address"
        },
        {
          "internalType": "string",
          "name": "location",
          "type": "string"
        }
      ],
      "name": "addShipper",
      "outputs": [],
      "stateMutability": "nonpayable",
      "type": "function"
    },
    {
      "inputs": [
        {
          "internalType": "string",
          "name": "name",
          "type": "string"
        },
        {
          "internalType": "address",
          "name": "companyAddr",
          "type": "address"
        },
        {
          "internalType": "string",
          "name": "location",
          "type": "string"
        }
      ],
      "name": "addDistributer",
      "outputs": [],
      "stateMutability": "nonpayable",
      "type": "function"
    },
    {
      "inputs": [
        {
          "internalType": "string",
          "name": "name",
          "type": "string"
        },
        {
          "internalType": "address",
          "name": "companyAddr",
          "type": "address"
        },
        {
          "internalType": "string",
          "name": "location",
          "type": "string"
        }
      ],
      "name": "addRetailer",
      "outputs": [],
      "stateMutability": "nonpayable",
      "type": "function"
    },
    {
      "inputs": [
        {
          "internalType": "string",
          "name": "name",
          "type": "string"
        },
        {
          "internalType": "string",
          "name": "description",
          "type": "string"
        },
        {
          "internalType": "uint256",
          "name": "price",
          "type": "uint256"
        }
      ],
      "name": "createProduct",
      "outputs": [],
      "stateMutability": "nonpayable",
      "type": "function"
    },
    {
      "inputs": [
        {
          "internalType": "uint256",
          "name": "productId",
          "type": "uint256"
        }
      ],
      "name": "advanceStage",
      "outputs": [],
      "stateMutability": "nonpayable",
      "type": "function"
    },
    {
      "inputs": [
        {
          "internalType": "uint256",
          "name": "productId",
          "type": "uint256"
        }
      ],
      "name": "purchaseItem",
      "outputs": [],
      "stateMutability": "payable",
      "type": "function",
      "payable": true
    },
    {
      "inputs": [
        {
          "internalType": "uint256",
          "name": "productId",
          "type": "uint256"
        }
      ],
      "name": "viewProduct",
      "outputs": [
        {
          "internalType": "string",
          "name": "",
          "type": "string"
        },
        {
          "internalType": "string",
          "name": "",
          "type": "string"
        },
        {
          "internalType": "uint256",
          "name": "",
          "type": "uint256"
        },
        {
          "internalType": "enum SupplyChain.Stage",
          "name": "",
          "type": "uint8"
        },
        {
          "internalType": "address",
          "name": "",
          "type": "address"
        }
      ],
      "stateMutability": "view",
      "type": "function",
      "constant": true
    },
    {
      "inputs": [
        {
          "internalType": "uint256",
          "name": "productId",
          "type": "uint256"
        }
      ],
      "name": "getStagePrices",
      "outputs": [
        {
          "internalType": "uint256[6]",
          "name": "",
          "type": "uint256[6]"
        }
      ],
      "stateMutability": "view",
      "type": "function",
      "constant": true
    },
    {
      "inputs": [
        {
          "internalType": "uint256",
          "name": "productId",
          "type": "uint256"
        }
      ],
      "name": "viewCurrentStage",
      "outputs": [
        {
          "internalType": "string",
          "name": "",
          "type": "string"
        }
      ],
      "stateMutability": "view",
      "type": "function",
      "constant": true
    },
    {
      "inputs": [
        {
          "internalType": "address",
          "name": "ownerAddr",
          "type": "address"
        }
      ],
      "name": "getProductsByOwner",
      "outputs": [
        {
          "internalType": "uint256[]",
          "name": "",
          "type": "uint256[]"
        }
      ],
      "stateMutability": "view",
      "type": "function",
      "constant": true
    },
    {
      "inputs": [],
      "name": "getTotalActors",
      "outputs": [
        {
          "internalType": "uint256",
          "name": "",
          "type": "uint256"
        }
      ],
      "stateMutability": "view",
      "type": "function",
      "constant": true
    },
    {
      "inputs": [
        {
          "internalType": "uint256",
          "name": "productId",
          "type": "uint256"
        }
      ],
      "name": "getPrice",
      "outputs": [
        {
          "internalType": "uint256",
          "name": "",
          "type": "uint256"
        }
      ],
      "stateMutability": "view",
      "type": "function",
      "constant": true
    }
  ],
  "bytecode": "0x6080604052600060015534801561001557600080fd5b50336000806101000a81548173ffffffffffffffffffffffffffffffffffffffff021916908373ffffffffffffffffffffffffffffffffffffffff160217905550613b06806100656000396000f3fe60806040526004361061012a5760003560e01c8063a87812f4116100ab578063d38ea5bf1161006f578063d38ea5bf14610430578063dafc98041461044c578063e0f6ef8714610489578063e2cfaf55146104b4578063e7572230146104dd578063eafd4bbd1461051a5761012a565b8063a87812f414610335578063a8ef341c1461035e578063afc60d021461039d578063bfa9eb25146103c6578063cea23121146103f15761012a565b806389639eb7116100f257806389639eb71461023a578063897ec7df146102795780638da5cb5b146102b857806396da85a0146102e3578063a14222091461030c5761012a565b806309b9e95e1461012f5780630fecef4814610158578063280b2b0d146101955780632e534dff146101d257806350b492ba146101fb575b600080fd5b34801561013b57600080fd5b5061015660048036038101906101519190612e7a565b61055b565b005b34801561016457600080fd5b5061017f600480360381019061017a9190612e51565b6106cd565b60405161018c919061344b565b60405180910390f35b3480156101a157600080fd5b506101bc60048036038101906101b79190612f78565b6108c9565b6040516101c9919061346d565b60405180910390f35b3480156101de57600080fd5b506101f960048036038101906101f49190612f78565b610dbf565b005b34801561020757600080fd5b50610222600480360381019061021d9190612f78565b611113565b6040516102319392919061348f565b60405180910390f35b34801561024657600080fd5b50610261600480360381019061025c9190612f78565b61127d565b6040516102709392919061348f565b60405180910390f35b34801561028557600080fd5b506102a0600480360381019061029b9190612f78565b6113e7565b6040516102af9392919061348f565b60405180910390f35b3480156102c457600080fd5b506102cd611551565b6040516102da9190613415565b60405180910390f35b3480156102ef57600080fd5b5061030a60048036038101906103059190612e7a565b611575565b005b34801561031857600080fd5b50610333600480360381019061032e9190612ef9565b6116e7565b005b34801561034157600080fd5b5061035c60048036038101906103579190612e7a565b611a6f565b005b34801561036a57600080fd5b5061038560048036038101906103809190612f78565b611be1565b6040516103949392919061348f565b60405180910390f35b3480156103a957600080fd5b506103c460048036038101906103bf9190612e7a565b611d4b565b005b3480156103d257600080fd5b506103db611ebd565b6040516103e89190613695565b60405180910390f35b3480156103fd57600080fd5b5061041860048036038101906104139190612f78565b611f0a565b6040516104279392919061348f565b60405180910390f35b61044a60048036038101906104459190612f78565b612074565b005b34801561045857600080fd5b50610473600480360381019061046e9190612f78565b612273565b6040516104809190613430565b60405180910390f35b34801561049557600080fd5b5061049e6127a2565b6040516104ab9190613695565b60405180910390f35b3480156104c057600080fd5b506104db60048036038101906104d69190612e7a565b6127a8565b005b3480156104e957600080fd5b5061050460048036038101906104ff9190612f78565b61291a565b6040516105119190613695565b60405180910390f35b34801561052657600080fd5b50610541600480360381019061053c9190612f78565b612b27565b6040516105529594939291906134d4565b60405180910390f35b60008054906101000a900473ffffffffffffffffffffffffffffffffffffffff1673ffffffffffffffffffffffffffffffffffffffff163373ffffffffffffffffffffffffffffffffffffffff16146105e9576040517f08c379a00000000000000000000000000000000000000000000000000000000081526004016105e090613675565b60405180910390fd5b600460405180606001604052808581526020018473ffffffffffffffffffffffffffffffffffffffff1681526020018381525090806001815401808255809150506001900390600052602060002090600302016000909190919091506000820151816000019080519060200190610661929190612cfa565b5060208201518160010160006101000a81548173ffffffffffffffffffffffffffffffffffffffff021916908373ffffffffffffffffffffffffffffffffffffffff16021790555060408201518160020190805190602001906106c5929190612cfa565b505050505050565b60606000805b600154811015610769578373ffffffffffffffffffffffffffffffffffffffff166002600083815260200190815260200160002060030160019054906101000a900473ffffffffffffffffffffffffffffffffffffffff1673ffffffffffffffffffffffffffffffffffffffff16141561075657818061075290613949565b9250505b808061076190613949565b9150506106d3565b5060008167ffffffffffffffff8111156107ac577f4e487b7100000000000000000000000000000000000000000000000000000000600052604160045260246000fd5b6040519080825280602002602001820160405280156107da5781602001602082028036833780820191505090505b5090506000805b6001548110156108bd578573ffffffffffffffffffffffffffffffffffffffff166002600083815260200190815260200160002060030160019054906101000a900473ffffffffffffffffffffffffffffffffffffffff1673ffffffffffffffffffffffffffffffffffffffff1614156108aa578083838151811061088f577f4e487b7100000000000000000000000000000000000000000000000000000000600052603260045260246000fd5b60200260200101818152505081806108a690613949565b9250505b80806108b590613949565b9150506107e1565b50819350505050919050565b6060600154821061090f576040517f08c379a000000000000000000000000000000000000000000000000000000000815260040161090690613635565b60405180910390fd5b60006002600084815260200190815260200160002060030160009054906101000a900460ff16905060006005811115610971577f4e487b7100000000000000000000000000000000000000000000000000000000600052602160045260246000fd5b8160058111156109aa577f4e487b7100000000000000000000000000000000000000000000000000000000600052602160045260246000fd5b14156109ee576040518060400160405280601581526020017f526177204d6174657269616c20537570706c6965720000000000000000000000815250915050610dba565b60016005811115610a28577f4e487b7100000000000000000000000000000000000000000000000000000000600052602160045260246000fd5b816005811115610a61577f4e487b7100000000000000000000000000000000000000000000000000000000600052602160045260246000fd5b1415610aa5576040518060400160405280600881526020017f537570706c696572000000000000000000000000000000000000000000000000815250915050610dba565b60026005811115610adf577f4e487b7100000000000000000000000000000000000000000000000000000000600052602160045260246000fd5b816005811115610b18577f4e487b7100000000000000000000000000000000000000000000000000000000600052602160045260246000fd5b1415610b5c576040518060400160405280600781526020017f5368697070657200000000000000000000000000000000000000000000000000815250915050610dba565b60036005811115610b96577f4e487b7100000000000000000000000000000000000000000000000000000000600052602160045260246000fd5b816005811115610bcf577f4e487b7100000000000000000000000000000000000000000000000000000000600052602160045260246000fd5b1415610c13576040518060400160405280600b81526020017f4469737472696275746f72000000000000000000000000000000000000000000815250915050610dba565b60046005811115610c4d577f4e487b7100000000000000000000000000000000000000000000000000000000600052602160045260246000fd5b816005811115610c86577f4e487b7100000000000000000000000000000000000000000000000000000000600052602160045260246000fd5b1415610cca576040518060400160405280600881526020017f52657461696c6572000000000000000000000000000000000000000000000000815250915050610dba565b600580811115610d03577f4e487b7100000000000000000000000000000000000000000000000000000000600052602160045260246000fd5b816005811115610d3c577f4e487b7100000000000000000000000000000000000000000000000000000000600052602160045260246000fd5b1415610d80576040518060400160405280600481526020017f536f6c6400000000000000000000000000000000000000000000000000000000815250915050610dba565b6040518060400160405280600781526020017f556e6b6e6f776e000000000000000000000000000000000000000000000000008152509150505b919050565b60008054906101000a900473ffffffffffffffffffffffffffffffffffffffff1673ffffffffffffffffffffffffffffffffffffffff163373ffffffffffffffffffffffffffffffffffffffff1614610e4d576040517f08c379a0000000000000000000000000000000000000000000000000000000008152600401610e4490613675565b60405180910390fd5b6001548110610e91576040517f08c379a0000000000000000000000000000000000000000000000000000000008152600401610e8890613635565b60405180910390fd5b6000600260008381526020019081526020016000209050600580811115610ee1577f4e487b7100000000000000000000000000000000000000000000000000000000600052602160045260246000fd5b8160030160009054906101000a900460ff166005811115610f2b577f4e487b7100000000000000000000000000000000000000000000000000000000600052602160045260246000fd5b1415610f6c576040517f08c379a0000000000000000000000000000000000000000000000000000000008152600401610f6390613555565b60405180910390fd5b6064606e8260020154610f7f919061381a565b610f8991906137e9565b816002018190555060018160030160009054906101000a900460ff166005811115610fdd577f4e487b7100000000000000000000000000000000000000000000000000000000600052602160045260246000fd5b610fe79190613793565b600581111561101f577f4e487b7100000000000000000000000000000000000000000000000000000000600052602160045260246000fd5b8160030160006101000a81548160ff0219169083600581111561106b577f4e487b7100000000000000000000000000000000000000000000000000000000600052602160045260246000fd5b021790555080600201548160040160008360030160009054906101000a900460ff1660058111156110c5577f4e487b7100000000000000000000000000000000000000000000000000000000600052602160045260246000fd5b60058111156110fd577f4e487b7100000000000000000000000000000000000000000000000000000000600052602160045260246000fd5b8152602001908152602001600020819055505050565b6006818154811061112357600080fd5b906000526020600020906003020160009150905080600001805461114690613917565b80601f016020809104026020016040519081016040528092919081815260200182805461117290613917565b80156111bf5780601f10611194576101008083540402835291602001916111bf565b820191906000526020600020905b8154815290600101906020018083116111a257829003601f168201915b5050505050908060010160009054906101000a900473ffffffffffffffffffffffffffffffffffffffff16908060020180546111fa90613917565b80601f016020809104026020016040519081016040528092919081815260200182805461122690613917565b80156112735780601f1061124857610100808354040283529160200191611273565b820191906000526020600020905b81548152906001019060200180831161125657829003601f168201915b5050505050905083565b6003818154811061128d57600080fd5b90600052602060002090600302016000915090508060000180546112b090613917565b80601f01602080910402602001604051908101604052809291908181526020018280546112dc90613917565b80156113295780601f106112fe57610100808354040283529160200191611329565b820191906000526020600020905b81548152906001019060200180831161130c57829003601f168201915b5050505050908060010160009054906101000a900473ffffffffffffffffffffffffffffffffffffffff169080600201805461136490613917565b80601f016020809104026020016040519081016040528092919081815260200182805461139090613917565b80156113dd5780601f106113b2576101008083540402835291602001916113dd565b820191906000526020600020905b8154815290600101906020018083116113c057829003601f168201915b5050505050905083565b600781815481106113f757600080fd5b906000526020600020906003020160009150905080600001805461141a90613917565b80601f016020809104026020016040519081016040528092919081815260200182805461144690613917565b80156114935780601f1061146857610100808354040283529160200191611493565b820191906000526020600020905b81548152906001019060200180831161147657829003601f168201915b5050505050908060010160009054906101000a900473ffffffffffffffffffffffffffffffffffffffff16908060020180546114ce90613917565b80601f01602080910402602001604051908101604052809291908181526020018280546114fa90613917565b80156115475780601f1061151c57610100808354040283529160200191611547565b820191906000526020600020905b81548152906001019060200180831161152a57829003601f168201915b5050505050905083565b60008054906101000a900473ffffffffffffffffffffffffffffffffffffffff1681565b60008054906101000a900473ffffffffffffffffffffffffffffffffffffffff1673ffffffffffffffffffffffffffffffffffffffff163373ffffffffffffffffffffffffffffffffffffffff1614611603576040517f08c379a00000000000000000000000000000000000000000000000000000000081526004016115fa90613675565b60405180910390fd5b600660405180606001604052808581526020018473ffffffffffffffffffffffffffffffffffffffff168152602001838152509080600181540180825580915050600190039060005260206000209060030201600090919091909150600082015181600001908051906020019061167b929190612cfa565b5060208201518160010160006101000a81548173ffffffffffffffffffffffffffffffffffffffff021916908373ffffffffffffffffffffffffffffffffffffffff16021790555060408201518160020190805190602001906116df929190612cfa565b505050505050565b60008054906101000a900473ffffffffffffffffffffffffffffffffffffffff1673ffffffffffffffffffffffffffffffffffffffff163373ffffffffffffffffffffffffffffffffffffffff1614611775576040517f08c379a000000000000000000000000000000000000000000000000000000000815260040161176c90613675565b60405180910390fd5b6000600380549050116117bd576040517f08c379a00000000000000000000000000000000000000000000000000000000081526004016117b490613655565b60405180910390fd5b600060048054905011611805576040517f08c379a00000000000000000000000000000000000000000000000000000000081526004016117fc90613535565b60405180910390fd5b60006005805490501161184d576040517f08c379a0000000000000000000000000000000000000000000000000000000008152600401611844906135f5565b60405180910390fd5b600060068054905011611895576040517f08c379a000000000000000000000000000000000000000000000000000000000815260040161188c90613575565b60405180910390fd5b6000600780549050116118dd576040517f08c379a00000000000000000000000000000000000000000000000000000000081526004016118d4906135b5565b60405180910390fd5b600060026000600154815260200190815260200160002090508381600001908051906020019061190e929190612cfa565b5082816001019080519060200190611927929190612cfa565b5081816002018190555060008160030160006101000a81548160ff0219169083600581111561197f577f4e487b7100000000000000000000000000000000000000000000000000000000600052602160045260246000fd5b0217905550338160030160016101000a81548173ffffffffffffffffffffffffffffffffffffffff021916908373ffffffffffffffffffffffffffffffffffffffff16021790555081816004016000806005811115611a07577f4e487b7100000000000000000000000000000000000000000000000000000000600052602160045260246000fd5b6005811115611a3f577f4e487b7100000000000000000000000000000000000000000000000000000000600052602160045260246000fd5b81526020019081526020016000208190555060016000815480929190611a6490613949565b919050555050505050565b60008054906101000a900473ffffffffffffffffffffffffffffffffffffffff1673ffffffffffffffffffffffffffffffffffffffff163373ffffffffffffffffffffffffffffffffffffffff1614611afd576040517f08c379a0000000000000000000000000000000000000000000000000000000008152600401611af490613675565b60405180910390fd5b600760405180606001604052808581526020018473ffffffffffffffffffffffffffffffffffffffff1681526020018381525090806001815401808255809150506001900390600052602060002090600302016000909190919091506000820151816000019080519060200190611b75929190612cfa565b5060208201518160010160006101000a81548173ffffffffffffffffffffffffffffffffffffffff021916908373ffffffffffffffffffffffffffffffffffffffff1602179055506040820151816002019080519060200190611bd9929190612cfa565b505050505050565b60058181548110611bf157600080fd5b9060005260206000209060030201600091509050806000018054611c1490613917565b80601f0160208091040260200160405190810160405280929190818152602001828054611c4090613917565b8015611c8d5780601f10611c6257610100808354040283529160200191611c8d565b820191906000526020600020905b815481529060010190602001808311611c7057829003601f168201915b5050505050908060010160009054906101000a900473ffffffffffffffffffffffffffffffffffffffff1690806002018054611cc890613917565b80601f0160208091040260200160405190810160405280929190818152602001828054611cf490613917565b8015611d415780601f10611d1657610100808354040283529160200191611d41565b820191906000526020600020905b815481529060010190602001808311611d2457829003601f168201915b5050505050905083565b60008054906101000a900473ffffffffffffffffffffffffffffffffffffffff1673ffffffffffffffffffffffffffffffffffffffff163373ffffffffffffffffffffffffffffffffffffffff1614611dd9576040517f08c379a0000000000000000000000000000000000000000000000000000000008152600401611dd090613675565b60405180910390fd5b600560405180606001604052808581526020018473ffffffffffffffffffffffffffffffffffffffff1681526020018381525090806001815401808255809150506001900390600052602060002090600302016000909190919091506000820151816000019080519060200190611e51929190612cfa565b5060208201518160010160006101000a81548173ffffffffffffffffffffffffffffffffffffffff021916908373ffffffffffffffffffffffffffffffffffffffff1602179055506040820151816002019080519060200190611eb5929190612cfa565b505050505050565b6000600780549050600680549050600580549050600480549050600380549050611ee79190613793565b611ef19190613793565b611efb9190613793565b611f059190613793565b905090565b60048181548110611f1a57600080fd5b9060005260206000209060030201600091509050806000018054611f3d90613917565b80601f0160208091040260200160405190810160405280929190818152602001828054611f6990613917565b8015611fb65780601f10611f8b57610100808354040283529160200191611fb6565b820191906000526020600020905b815481529060010190602001808311611f9957829003601f168201915b5050505050908060010160009054906101000a900473ffffffffffffffffffffffffffffffffffffffff1690806002018054611ff190613917565b80601f016020809104026020016040519081016040528092919081815260200182805461201d90613917565b801561206a5780601f1061203f5761010080835404028352916020019161206a565b820191906000526020600020905b81548152906001019060200180831161204d57829003601f168201915b5050505050905083565b60015481106120b8576040517f08c379a00000000000000000000000000000000000000000000000000000000081526004016120af90613635565b60405180910390fd5b600060026000838152602001908152602001600020905060046005811115612109577f4e487b7100000000000000000000000000000000000000000000000000000000600052602160045260246000fd5b8160030160009054906101000a900460ff166005811115612153577f4e487b7100000000000000000000000000000000000000000000000000000000600052602160045260246000fd5b14612193576040517f08c379a000000000000000000000000000000000000000000000000000000000815260040161218a906135d5565b60405180910390fd5b806002015434146121d9576040517f08c379a00000000000000000000000000000000000000000000000000000000081526004016121d090613595565b60405180910390fd5b60058160030160006101000a81548160ff02191690836005811115612227577f4e487b7100000000000000000000000000000000000000000000000000000000600052602160045260246000fd5b0217905550338160030160016101000a81548173ffffffffffffffffffffffffffffffffffffffff021916908373ffffffffffffffffffffffffffffffffffffffff1602179055505050565b61227b612d80565b60015482106122bf576040517f08c379a00000000000000000000000000000000000000000000000000000000081526004016122b690613635565b60405180910390fd5b60006002600084815260200190815260200160002090506122de612d80565b81600401600080600581111561231d577f4e487b7100000000000000000000000000000000000000000000000000000000600052602160045260246000fd5b6005811115612355577f4e487b7100000000000000000000000000000000000000000000000000000000600052602160045260246000fd5b8152602001908152602001600020548160006006811061239e577f4e487b7100000000000000000000000000000000000000000000000000000000600052603260045260246000fd5b602002018181525050816004016000600160058111156123e7577f4e487b7100000000000000000000000000000000000000000000000000000000600052602160045260246000fd5b600581111561241f577f4e487b7100000000000000000000000000000000000000000000000000000000600052602160045260246000fd5b81526020019081526020016000205481600160068110612468577f4e487b7100000000000000000000000000000000000000000000000000000000600052603260045260246000fd5b602002018181525050816004016000600260058111156124b1577f4e487b7100000000000000000000000000000000000000000000000000000000600052602160045260246000fd5b60058111156124e9577f4e487b7100000000000000000000000000000000000000000000000000000000600052602160045260246000fd5b81526020019081526020016000205481600260068110612532577f4e487b7100000000000000000000000000000000000000000000000000000000600052603260045260246000fd5b6020020181815250508160040160006003600581111561257b577f4e487b7100000000000000000000000000000000000000000000000000000000600052602160045260246000fd5b60058111156125b3577f4e487b7100000000000000000000000000000000000000000000000000000000600052602160045260246000fd5b815260200190815260200160002054816003600681106125fc577f4e487b7100000000000000000000000000000000000000000000000000000000600052603260045260246000fd5b60200201818152505081600401600060046005811115612645577f4e487b7100000000000000000000000000000000000000000000000000000000600052602160045260246000fd5b600581111561267d577f4e487b7100000000000000000000000000000000000000000000000000000000600052602160045260246000fd5b815260200190815260200160002054816004600681106126c6577f4e487b7100000000000000000000000000000000000000000000000000000000600052603260045260246000fd5b60200201818152505081600401600060058081111561270e577f4e487b7100000000000000000000000000000000000000000000000000000000600052602160045260246000fd5b6005811115612746577f4e487b7100000000000000000000000000000000000000000000000000000000600052602160045260246000fd5b8152602001908152602001600020548160056006811061278f577f4e487b7100000000000000000000000000000000000000000000000000000000600052603260045260246000fd5b6020020181815250508092505050919050565b60015481565b60008054906101000a900473ffffffffffffffffffffffffffffffffffffffff1673ffffffffffffffffffffffffffffffffffffffff163373ffffffffffffffffffffffffffffffffffffffff1614612836576040517f08c379a000000000000000000000000000000000000000000000000000000000815260040161282d90613675565b60405180910390fd5b600360405180606001604052808581526020018473ffffffffffffffffffffffffffffffffffffffff16815260200183815250908060018154018082558091505060019003906000526020600020906003020160009091909190915060008201518160000190805190602001906128ae929190612cfa565b5060208201518160010160006101000a81548173ffffffffffffffffffffffffffffffffffffffff021916908373ffffffffffffffffffffffffffffffffffffffff1602179055506040820151816002019080519060200190612912929190612cfa565b505050505050565b60006001548210612960576040517f08c379a000000000000000000000000000000000000000000000000000000000815260040161295790613635565b60405180910390fd5b600060026000848152602001908152602001600020905060008054906101000a900473ffffffffffffffffffffffffffffffffffffffff1673ffffffffffffffffffffffffffffffffffffffff163373ffffffffffffffffffffffffffffffffffffffff1614612b1a5760046005811115612a04577f4e487b7100000000000000000000000000000000000000000000000000000000600052602160045260246000fd5b8160030160009054906101000a900460ff166005811115612a4e577f4e487b7100000000000000000000000000000000000000000000000000000000600052602160045260246000fd5b1480612ada5750600580811115612a8e577f4e487b7100000000000000000000000000000000000000000000000000000000600052602160045260246000fd5b8160030160009054906101000a900460ff166005811115612ad8577f4e487b7100000000000000000000000000000000000000000000000000000000600052602160045260246000fd5b145b612b19576040517f08c379a0000000000000000000000000000000000000000000000000000000008152600401612b1090613615565b60405180910390fd5b5b8060020154915050919050565b60608060008060006001548610612b73576040517f08c379a0000000000000000000000000000000000000000000000000000000008152600401612b6a90613635565b60405180910390fd5b6000600260008881526020019081526020016000209050806000018160010182600201548360030160009054906101000a900460ff168460030160019054906101000a900473ffffffffffffffffffffffffffffffffffffffff16848054612bda90613917565b80601f0160208091040260200160405190810160405280929190818152602001828054612c0690613917565b8015612c535780601f10612c2857610100808354040283529160200191612c53565b820191906000526020600020905b815481529060010190602001808311612c3657829003601f168201915b50505050509450838054612c6690613917565b80601f0160208091040260200160405190810160405280929190818152602001828054612c9290613917565b8015612cdf5780601f10612cb457610100808354040283529160200191612cdf565b820191906000526020600020905b815481529060010190602001808311612cc257829003601f168201915b50505050509350955095509550955095505091939590929450565b828054612d0690613917565b90600052602060002090601f016020900481019282612d285760008555612d6f565b82601f10612d4157805160ff1916838001178555612d6f565b82800160010185558215612d6f579182015b82811115612d6e578251825591602001919060010190612d53565b5b509050612d7c9190612da2565b5090565b6040518060c00160405280600690602082028036833780820191505090505090565b5b80821115612dbb576000816000905550600101612da3565b5090565b6000612dd2612dcd846136e1565b6136b0565b905082815260208101848484011115612dea57600080fd5b612df58482856138d5565b509392505050565b600081359050612e0c81613aa2565b92915050565b600082601f830112612e2357600080fd5b8135612e33848260208601612dbf565b91505092915050565b600081359050612e4b81613ab9565b92915050565b600060208284031215612e6357600080fd5b6000612e7184828501612dfd565b91505092915050565b600080600060608486031215612e8f57600080fd5b600084013567ffffffffffffffff811115612ea957600080fd5b612eb586828701612e12565b9350506020612ec686828701612dfd565b925050604084013567ffffffffffffffff811115612ee357600080fd5b612eef86828701612e12565b9150509250925092565b600080600060608486031215612f0e57600080fd5b600084013567ffffffffffffffff811115612f2857600080fd5b612f3486828701612e12565b935050602084013567ffffffffffffffff811115612f5157600080fd5b612f5d86828701612e12565b9250506040612f6e86828701612e3c565b9150509250925092565b600060208284031215612f8a57600080fd5b6000612f9884828501612e3c565b91505092915050565b6000612fad83836133f7565b60208301905092915050565b612fc281613874565b82525050565b612fd18161372b565b612fdb8184613766565b9250612fe682613711565b8060005b83811015613017578151612ffe8782612fa1565b96506130098361374c565b925050600181019050612fea565b505050505050565b600061302a82613736565b6130348185613771565b935061303f8361371b565b8060005b838110156130705781516130578882612fa1565b975061306283613759565b925050600181019050613043565b5085935050505092915050565b613086816138c3565b82525050565b600061309782613741565b6130a18185613782565b93506130b18185602086016138e4565b6130ba81613a7d565b840191505092915050565b60006130d2601683613782565b91507f4e6f20737570706c6965722072656769737465726564000000000000000000006000830152602082019050919050565b6000613112601483613782565b91507f50726f6475637420616c726561647920736f6c640000000000000000000000006000830152602082019050919050565b6000613152601983613782565b91507f4e6f206469737472696275746f722072656769737465726564000000000000006000830152602082019050919050565b6000613192601883613782565b91507f496e636f7272656374207061796d656e7420616d6f756e7400000000000000006000830152602082019050919050565b60006131d2601683613782565b91507f4e6f2072657461696c65722072656769737465726564000000000000000000006000830152602082019050919050565b6000613212601f83613782565b91507f50726f64756374206e6f742079657420696e2072657461696c207374616765006000830152602082019050919050565b6000613252601583613782565b91507f4e6f2073686970706572207265676973746572656400000000000000000000006000830152602082019050919050565b6000613292602183613782565b91507f5072696365206c6f636b656420756e74696c2052657461696c6572207374616760008301527f65000000000000000000000000000000000000000000000000000000000000006020830152604082019050919050565b60006132f8601283613782565b91507f496e76616c69642070726f6475637420494400000000000000000000000000006000830152602082019050919050565b6000613338602383613782565b91507f4e6f20726177206d6174657269616c20737570706c696572207265676973746560008301527f72656400000000000000000000000000000000000000000000000000000000006020830152604082019050919050565b600061339e602283613782565b91507f4f6e6c79206f776e65722063616e20706572666f726d2074686973206163746960008301527f6f6e0000000000000000000000000000000000000000000000000000000000006020830152604082019050919050565b613400816138b9565b82525050565b61340f816138b9565b82525050565b600060208201905061342a6000830184612fb9565b92915050565b600060c0820190506134456000830184612fc8565b92915050565b60006020820190508181036000830152613465818461301f565b905092915050565b60006020820190508181036000830152613487818461308c565b905092915050565b600060608201905081810360008301526134a9818661308c565b90506134b86020830185612fb9565b81810360408301526134ca818461308c565b9050949350505050565b600060a08201905081810360008301526134ee818861308c565b90508181036020830152613502818761308c565b90506135116040830186613406565b61351e606083018561307d565b61352b6080830184612fb9565b9695505050505050565b6000602082019050818103600083015261354e816130c5565b9050919050565b6000602082019050818103600083015261356e81613105565b9050919050565b6000602082019050818103600083015261358e81613145565b9050919050565b600060208201905081810360008301526135ae81613185565b9050919050565b600060208201905081810360008301526135ce816131c5565b9050919050565b600060208201905081810360008301526135ee81613205565b9050919050565b6000602082019050818103600083015261360e81613245565b9050919050565b6000602082019050818103600083015261362e81613285565b9050919050565b6000602082019050818103600083015261364e816132eb565b9050919050565b6000602082019050818103600083015261366e8161332b565b9050919050565b6000602082019050818103600083015261368e81613391565b9050919050565b60006020820190506136aa6000830184613406565b92915050565b6000604051905081810181811067ffffffffffffffff821117156136d7576136d6613a4e565b5b8060405250919050565b600067ffffffffffffffff8211156136fc576136fb613a4e565b5b601f19601f8301169050602081019050919050565b6000819050919050565b6000819050602082019050919050565b600060069050919050565b600081519050919050565b600081519050919050565b6000602082019050919050565b6000602082019050919050565b600081905092915050565b600082825260208201905092915050565b600082825260208201905092915050565b600061379e826138b9565b91506137a9836138b9565b9250827fffffffffffffffffffffffffffffffffffffffffffffffffffffffffffffffff038211156137de576137dd613992565b5b828201905092915050565b60006137f4826138b9565b91506137ff836138b9565b92508261380f5761380e6139c1565b5b828204905092915050565b6000613825826138b9565b9150613830836138b9565b9250817fffffffffffffffffffffffffffffffffffffffffffffffffffffffffffffffff048311821515161561386957613868613992565b5b828202905092915050565b600061387f82613899565b9050919050565b600081905061389482613a8e565b919050565b600073ffffffffffffffffffffffffffffffffffffffff82169050919050565b6000819050919050565b60006138ce82613886565b9050919050565b82818337600083830152505050565b60005b838110156139025780820151818401526020810190506138e7565b83811115613911576000848401525b50505050565b6000600282049050600182168061392f57607f821691505b6020821081141561394357613942613a1f565b5b50919050565b6000613954826138b9565b91507fffffffffffffffffffffffffffffffffffffffffffffffffffffffffffffffff82141561398757613986613992565b5b600182019050919050565b7f4e487b7100000000000000000000000000000000000000000000000000000000600052601160045260246000fd5b7f4e487b7100000000000000000000000000000000000000000000000000000000600052601260045260246000fd5b7f4e487b7100000000000000000000000000000000000000000000000000000000600052602160045260246000fd5b7f4e487b7100000000000000000000000000000000000000000000000000000000600052602260045260246000fd5b7f4e487b7100000000000000000000000000000000000000000000000000000000600052604160045260246000fd5b6000601f19601f8301169050919050565b60068110613a9f57613a9e6139f0565b5b50565b613aab81613874565b8114613ab657600080fd5b50565b613ac2816138b9565b8114613acd57600080fd5b5056fea2646970667358221220524f7c769a37549f2ed82a28ca1c8c29ac6bc0059d3bd2d21184e3a30bafec3564736f6c63430008000033",
  "immutableReferences": {},
  "source": "// SPDX-License-Identifier: MIT\npragma solidity ^0.8.0;\n\ncontract SupplyChain {\n    enum Stage { RawMaterial, Supplier, Shipper, Distributor, Retailer, Sold }\n\n    struct Company {\n        string name;\n        address companyAddress;\n        string placeOfOperation;\n    }\n\n    struct Product {\n        string name;\n        string description;\n        uint256 price; \n        Stage currentStage;\n        address currentOwner;\n        mapping(Stage => uint256) stagePrices; \n    }\n\n\n    address public owner;\n    uint public productCount = 0;\n    mapping(uint => Product) private productsInternal;\n\n    Company[] public rawMaterialSuppliers;\n    Company[] public suppliers;\n    Company[] public shippers;\n    Company[] public distributors;\n    Company[] public retailers;\n\n    constructor() {\n        owner = msg.sender;\n    }\n\n    modifier onlyOwner() {\n        require(msg.sender == owner, \"Only owner can perform this action\");\n        _;\n    }\n\n    // Add Company Functions\n    function addRawMaterialSupplier(string memory name, address companyAddr, string memory location) public onlyOwner {\n        rawMaterialSuppliers.push(Company(name, companyAddr, location));\n    }\n\n    function addSupplier(string memory name, address companyAddr, string memory location) public onlyOwner {\n        suppliers.push(Company(name, companyAddr, location));\n    }\n\n    function addShipper(string memory name, address companyAddr, string memory location) public onlyOwner {\n        shippers.push(Company(name, companyAddr, location));\n    }\n\n    function addDistributer(string memory name, address companyAddr, string memory location) public onlyOwner {\n        distributors.push(Company(name, companyAddr, location));\n    }\n\n    function addRetailer(string memory name, address companyAddr, string memory location) public onlyOwner {\n        retailers.push(Company(name, companyAddr, location));\n    }\n    \n    modifier allRolesPresent() {\n\t    require(rawMaterialSuppliers.length > 0, \"No raw material supplier registered\");\n\t    require(suppliers.length             > 0, \"No supplier registered\");\n\t    require(shippers.length              > 0, \"No shipper registered\");\n\t    require(distributors.length          > 0, \"No distributor registered\");\n\t    require(retailers.length             > 0, \"No retailer registered\");\n\t    _;\n\t}\n   // Create a new product\n    function createProduct(string memory name, string memory description, uint256 price) public onlyOwner allRolesPresent {\n        Product storage newProduct = productsInternal[productCount];\n        newProduct.name = name;\n        newProduct.description = description;\n        newProduct.price = price;\n        newProduct.currentStage = Stage.RawMaterial;\n        newProduct.currentOwner = msg.sender;\n        newProduct.stagePrices[Stage.RawMaterial] = price;\n        productCount++;\n    }\n\n    // Simulate progress through supply chain\n    function advanceStage(uint productId) public onlyOwner {\n        require(productId < productCount, \"Invalid product ID\");\n        Product storage product = productsInternal[productId];\n        require(product.currentStage != Stage.Sold, \"Product already sold\");\n\n        // Increase price by 10%\n        product.price = (product.price * 110) / 100;\n\n        // Advance stage\n        product.currentStage = Stage(uint(product.currentStage) + 1);\n\n        // Save price at new stage\n        product.stagePrices[product.currentStage] = product.price;\n    }\n\n\n    // Purchase item at final stage\n    function purchaseItem(uint productId) public payable {\n        require(productId < productCount, \"Invalid product ID\");\n        Product storage product = productsInternal[productId];\n        require(product.currentStage == Stage.Retailer, \"Product not yet in retail stage\");\n        require(msg.value == product.price, \"Incorrect payment amount\");\n        product.currentStage = Stage.Sold;\n        product.currentOwner = msg.sender;\n    }\n\n    // View product details (for frontend)\n    function viewProduct(uint productId) public view returns (string memory, string memory, uint256, Stage, address) {\n        require(productId < productCount, \"Invalid product ID\");\n        Product storage product = productsInternal[productId];\n        return (product.name, product.description, product.price, product.currentStage, product.currentOwner);\n    }\n\n    // View all stage prices for a product (Margin Tracker)\n    function getStagePrices(uint productId) public view returns (uint256[6] memory) {\n        require(productId < productCount, \"Invalid product ID\");\n        Product storage product = productsInternal[productId];\n\n        uint256[6] memory prices;\n        prices[0] = product.stagePrices[Stage.RawMaterial];\n        prices[1] = product.stagePrices[Stage.Supplier];\n        prices[2] = product.stagePrices[Stage.Shipper];\n        prices[3] = product.stagePrices[Stage.Distributor];\n        prices[4] = product.stagePrices[Stage.Retailer];\n        prices[5] = product.stagePrices[Stage.Sold]; // Should be zero until sold, but safe\n        return prices;\n    }\n\n    // View current stage\n    function viewCurrentStage(uint productId) public view returns (string memory) {\n        require(productId < productCount, \"Invalid product ID\");\n        Stage stage = productsInternal[productId].currentStage;\n        if (stage == Stage.RawMaterial) return \"Raw Material Supplier\";\n        if (stage == Stage.Supplier) return \"Supplier\";\n        if (stage == Stage.Shipper) return \"Shipper\";\n        if (stage == Stage.Distributor) return \"Distributor\";\n        if (stage == Stage.Retailer) return \"Retailer\";\n        if (stage == Stage.Sold) return \"Sold\";\n        return \"Unknown\";\n    }\n\n    function getProductsByOwner(address ownerAddr) public view returns (uint[] memory) {\n        uint count = 0;\n        for (uint i = 0; i < productCount; i++) {\n            if (productsInternal[i].currentOwner == ownerAddr) {\n                count++;\n            }\n        }\n        uint[] memory ownedProductIds = new uint[](count);\n        uint index = 0;\n        for (uint i = 0; i < productCount; i++) {\n            if (productsInternal[i].currentOwner == ownerAddr) {\n                ownedProductIds[index] = i;\n                index++;\n            }\n        }\n        return ownedProductIds;\n    }\n\n    function getTotalActors() public view returns (uint) {\n        return rawMaterialSuppliers.length + suppliers.length + shippers.length + distributors.length + retailers.length;\n    }\n    \n\t    function getPrice(uint256 productId) public view returns (uint256) {\n\t    require(productId < productCount, \"Invalid product ID\");\n\t    Product storage p = productsInternal[productId];\n\n\t    if (msg.sender != owner) {\n\t\trequire(\n\t\t  p.currentStage == Stage.Retailer || p.currentStage == Stage.Sold,\n\t\t  \"Price locked until Retailer stage\"\n\t\t);\n\t    }\n\n\t    return p.price;\n\t}\n}\n\n",
  "sourcePath": "/home/osboxes/Desktop/196DProject/contracts/SupplyChain.sol",
  "compiler": {
    "name": "solc",
    "version": "0.8.0+commit.c7dfd78e.Emscripten.clang"
  },
  "schemaVersion": "3.4.16",
  "updatedAt": "2025-04-28T01:19:33.299Z",
  "networkType": "ethereum",
  "devdoc": {
    "kind": "dev",
    "methods": {},
    "version": 1
  },
  "userdoc": {
    "kind": "user",
    "methods": {},
    "version": 1
  }
}