{
  "contractName": "SupplyChain",
  "abi": [
    {
      "inputs": [
        {
          "internalType": "uint256",
          "name": "",
          "type": "uint256"
        }
      ],
      "name": "distributors",
      "outputs": [
        {
          "internalType": "string",
          "name": "name",
          "type": "string"
        },
        {
          "internalType": "address",
          "name": "companyAddress",
          "type": "address"
        },
        {
          "internalType": "string",
          "name": "placeOfOperation",
          "type": "string"
        }
      ],
      "stateMutability": "view",
      "type": "function",
      "constant": true
    },
    {
      "inputs": [],
      "name": "productCount",
      "outputs": [
        {
          "internalType": "uint256",
          "name": "",
          "type": "uint256"
        }
      ],
      "stateMutability": "view",
      "type": "function",
      "constant": true
    },
    {
      "inputs": [
        {
          "internalType": "uint256",
          "name": "",
          "type": "uint256"
        }
      ],
      "name": "products",
      "outputs": [
        {
          "internalType": "string",
          "name": "name",
          "type": "string"
        },
        {
          "internalType": "string",
          "name": "description",
          "type": "string"
        },
        {
          "internalType": "uint256",
          "name": "price",
          "type": "uint256"
        },
        {
          "internalType": "enum SupplyChain.Stage",
          "name": "currentStage",
          "type": "uint8"
        },
        {
          "internalType": "address",
          "name": "currentOwner",
          "type": "address"
        }
      ],
      "stateMutability": "view",
      "type": "function",
      "constant": true
    },
    {
      "inputs": [
        {
          "internalType": "uint256",
          "name": "",
          "type": "uint256"
        }
      ],
      "name": "rawMaterialSuppliers",
      "outputs": [
        {
          "internalType": "string",
          "name": "name",
          "type": "string"
        },
        {
          "internalType": "address",
          "name": "companyAddress",
          "type": "address"
        },
        {
          "internalType": "string",
          "name": "placeOfOperation",
          "type": "string"
        }
      ],
      "stateMutability": "view",
      "type": "function",
      "constant": true
    },
    {
      "inputs": [
        {
          "internalType": "uint256",
          "name": "",
          "type": "uint256"
        }
      ],
      "name": "retailers",
      "outputs": [
        {
          "internalType": "string",
          "name": "name",
          "type": "string"
        },
        {
          "internalType": "address",
          "name": "companyAddress",
          "type": "address"
        },
        {
          "internalType": "string",
          "name": "placeOfOperation",
          "type": "string"
        }
      ],
      "stateMutability": "view",
      "type": "function",
      "constant": true
    },
    {
      "inputs": [
        {
          "internalType": "uint256",
          "name": "",
          "type": "uint256"
        }
      ],
      "name": "shippers",
      "outputs": [
        {
          "internalType": "string",
          "name": "name",
          "type": "string"
        },
        {
          "internalType": "address",
          "name": "companyAddress",
          "type": "address"
        },
        {
          "internalType": "string",
          "name": "placeOfOperation",
          "type": "string"
        }
      ],
      "stateMutability": "view",
      "type": "function",
      "constant": true
    },
    {
      "inputs": [
        {
          "internalType": "uint256",
          "name": "",
          "type": "uint256"
        }
      ],
      "name": "suppliers",
      "outputs": [
        {
          "internalType": "string",
          "name": "name",
          "type": "string"
        },
        {
          "internalType": "address",
          "name": "companyAddress",
          "type": "address"
        },
        {
          "internalType": "string",
          "name": "placeOfOperation",
          "type": "string"
        }
      ],
      "stateMutability": "view",
      "type": "function",
      "constant": true
    },
    {
      "inputs": [
        {
          "internalType": "string",
          "name": "name",
          "type": "string"
        },
        {
          "internalType": "address",
          "name": "companyAddr",
          "type": "address"
        },
        {
          "internalType": "string",
          "name": "location",
          "type": "string"
        }
      ],
      "name": "addRawMaterialSupplier",
      "outputs": [],
      "stateMutability": "nonpayable",
      "type": "function"
    },
    {
      "inputs": [
        {
          "internalType": "string",
          "name": "name",
          "type": "string"
        },
        {
          "internalType": "address",
          "name": "companyAddr",
          "type": "address"
        },
        {
          "internalType": "string",
          "name": "location",
          "type": "string"
        }
      ],
      "name": "addSupplier",
      "outputs": [],
      "stateMutability": "nonpayable",
      "type": "function"
    },
    {
      "inputs": [
        {
          "internalType": "string",
          "name": "name",
          "type": "string"
        },
        {
          "internalType": "address",
          "name": "companyAddr",
          "type": "address"
        },
        {
          "internalType": "string",
          "name": "location",
          "type": "string"
        }
      ],
      "name": "addShipper",
      "outputs": [],
      "stateMutability": "nonpayable",
      "type": "function"
    },
    {
      "inputs": [
        {
          "internalType": "string",
          "name": "name",
          "type": "string"
        },
        {
          "internalType": "address",
          "name": "companyAddr",
          "type": "address"
        },
        {
          "internalType": "string",
          "name": "location",
          "type": "string"
        }
      ],
      "name": "addDistributer",
      "outputs": [],
      "stateMutability": "nonpayable",
      "type": "function"
    },
    {
      "inputs": [
        {
          "internalType": "string",
          "name": "name",
          "type": "string"
        },
        {
          "internalType": "address",
          "name": "companyAddr",
          "type": "address"
        },
        {
          "internalType": "string",
          "name": "location",
          "type": "string"
        }
      ],
      "name": "addRetailer",
      "outputs": [],
      "stateMutability": "nonpayable",
      "type": "function"
    },
    {
      "inputs": [
        {
          "internalType": "string",
          "name": "name",
          "type": "string"
        },
        {
          "internalType": "string",
          "name": "description",
          "type": "string"
        },
        {
          "internalType": "uint256",
          "name": "price",
          "type": "uint256"
        }
      ],
      "name": "createProduct",
      "outputs": [],
      "stateMutability": "nonpayable",
      "type": "function"
    },
    {
      "inputs": [
        {
          "internalType": "uint256",
          "name": "productId",
          "type": "uint256"
        }
      ],
      "name": "advanceStage",
      "outputs": [],
      "stateMutability": "nonpayable",
      "type": "function"
    },
    {
      "inputs": [
        {
          "internalType": "uint256",
          "name": "productId",
          "type": "uint256"
        }
      ],
      "name": "purchaseItem",
      "outputs": [],
      "stateMutability": "payable",
      "type": "function",
      "payable": true
    },
    {
      "inputs": [
        {
          "internalType": "uint256",
          "name": "productId",
          "type": "uint256"
        }
      ],
      "name": "viewCurrentStage",
      "outputs": [
        {
          "internalType": "string",
          "name": "",
          "type": "string"
        }
      ],
      "stateMutability": "view",
      "type": "function",
      "constant": true
    },
    {
      "inputs": [],
      "name": "getTotalActors",
      "outputs": [
        {
          "internalType": "uint256",
          "name": "",
          "type": "uint256"
        }
      ],
      "stateMutability": "view",
      "type": "function",
      "constant": true
    }
  ],
  "bytecode": "0x60806040526000805534801561001457600080fd5b50612475806100246000396000f3fe6080604052600436106100fe5760003560e01c8063a142220911610095578063bfa9eb2511610064578063bfa9eb2514610373578063cea231211461039e578063d38ea5bf146103dd578063e0f6ef87146103f9578063e2cfaf5514610424576100fe565b8063a1422209146102b9578063a87812f4146102e2578063a8ef341c1461030b578063afc60d021461034a576100fe565b80637acc0b20116100d15780637acc0b20146101d157806389639eb714610212578063897ec7df1461025157806396da85a014610290576100fe565b806309b9e95e14610103578063280b2b0d1461012c5780632e534dff1461016957806350b492ba14610192575b600080fd5b34801561010f57600080fd5b5061012a60048036038101906101259190611d4f565b61044d565b005b34801561013857600080fd5b50610153600480360381019061014e9190611e4d565b610531565b6040516101609190611fdc565b60405180910390f35b34801561017557600080fd5b50610190600480360381019061018b9190611e4d565b610a27565b005b34801561019e57600080fd5b506101b960048036038101906101b49190611e4d565b610c29565b6040516101c893929190611ffe565b60405180910390f35b3480156101dd57600080fd5b506101f860048036038101906101f39190611e4d565b610d93565b604051610209959493929190612043565b60405180910390f35b34801561021e57600080fd5b5061023960048036038101906102349190611e4d565b610f06565b60405161024893929190611ffe565b60405180910390f35b34801561025d57600080fd5b5061027860048036038101906102739190611e4d565b611070565b60405161028793929190611ffe565b60405180910390f35b34801561029c57600080fd5b506102b760048036038101906102b29190611d4f565b6111da565b005b3480156102c557600080fd5b506102e060048036038101906102db9190611dce565b6112be565b005b3480156102ee57600080fd5b5061030960048036038101906103049190611d4f565b611448565b005b34801561031757600080fd5b50610332600480360381019061032d9190611e4d565b61152c565b60405161034193929190611ffe565b60405180910390f35b34801561035657600080fd5b50610371600480360381019061036c9190611d4f565b611696565b005b34801561037f57600080fd5b5061038861177a565b6040516103959190612124565b60405180910390f35b3480156103aa57600080fd5b506103c560048036038101906103c09190611e4d565b6117c7565b6040516103d493929190611ffe565b60405180910390f35b6103f760048036038101906103f29190611e4d565b611931565b005b34801561040557600080fd5b5061040e611b30565b60405161041b9190612124565b60405180910390f35b34801561043057600080fd5b5061044b60048036038101906104469190611d4f565b611b36565b005b600360405180606001604052808581526020018473ffffffffffffffffffffffffffffffffffffffff16815260200183815250908060018154018082558091505060019003906000526020600020906003020160009091909190915060008201518160000190805190602001906104c5929190611c1a565b5060208201518160010160006101000a81548173ffffffffffffffffffffffffffffffffffffffff021916908373ffffffffffffffffffffffffffffffffffffffff1602179055506040820151816002019080519060200190610529929190611c1a565b505050505050565b60606000548210610577576040517f08c379a000000000000000000000000000000000000000000000000000000000815260040161056e90612104565b60405180910390fd5b60006001600084815260200190815260200160002060030160009054906101000a900460ff169050600060058111156105d9577f4e487b7100000000000000000000000000000000000000000000000000000000600052602160045260246000fd5b816005811115610612577f4e487b7100000000000000000000000000000000000000000000000000000000600052602160045260246000fd5b1415610656576040518060400160405280601581526020017f526177204d6174657269616c20537570706c6965720000000000000000000000815250915050610a22565b60016005811115610690577f4e487b7100000000000000000000000000000000000000000000000000000000600052602160045260246000fd5b8160058111156106c9577f4e487b7100000000000000000000000000000000000000000000000000000000600052602160045260246000fd5b141561070d576040518060400160405280600881526020017f537570706c696572000000000000000000000000000000000000000000000000815250915050610a22565b60026005811115610747577f4e487b7100000000000000000000000000000000000000000000000000000000600052602160045260246000fd5b816005811115610780577f4e487b7100000000000000000000000000000000000000000000000000000000600052602160045260246000fd5b14156107c4576040518060400160405280600781526020017f5368697070657200000000000000000000000000000000000000000000000000815250915050610a22565b600360058111156107fe577f4e487b7100000000000000000000000000000000000000000000000000000000600052602160045260246000fd5b816005811115610837577f4e487b7100000000000000000000000000000000000000000000000000000000600052602160045260246000fd5b141561087b576040518060400160405280600b81526020017f4469737472696275746f72000000000000000000000000000000000000000000815250915050610a22565b600460058111156108b5577f4e487b7100000000000000000000000000000000000000000000000000000000600052602160045260246000fd5b8160058111156108ee577f4e487b7100000000000000000000000000000000000000000000000000000000600052602160045260246000fd5b1415610932576040518060400160405280600881526020017f52657461696c6572000000000000000000000000000000000000000000000000815250915050610a22565b60058081111561096b577f4e487b7100000000000000000000000000000000000000000000000000000000600052602160045260246000fd5b8160058111156109a4577f4e487b7100000000000000000000000000000000000000000000000000000000600052602160045260246000fd5b14156109e8576040518060400160405280600481526020017f536f6c6400000000000000000000000000000000000000000000000000000000815250915050610a22565b6040518060400160405280600781526020017f556e6b6e6f776e000000000000000000000000000000000000000000000000008152509150505b919050565b6000548110610a6b576040517f08c379a0000000000000000000000000000000000000000000000000000000008152600401610a6290612104565b60405180910390fd5b6000600160008381526020019081526020016000209050600580811115610abb577f4e487b7100000000000000000000000000000000000000000000000000000000600052602160045260246000fd5b8160030160009054906101000a900460ff166005811115610b05577f4e487b7100000000000000000000000000000000000000000000000000000000600052602160045260246000fd5b1415610b46576040517f08c379a0000000000000000000000000000000000000000000000000000000008152600401610b3d906120a4565b60405180910390fd5b60018160030160009054906101000a900460ff166005811115610b92577f4e487b7100000000000000000000000000000000000000000000000000000000600052602160045260246000fd5b610b9c91906121bc565b6005811115610bd4577f4e487b7100000000000000000000000000000000000000000000000000000000600052602160045260246000fd5b8160030160006101000a81548160ff02191690836005811115610c20577f4e487b7100000000000000000000000000000000000000000000000000000000600052602160045260246000fd5b02179055505050565b60058181548110610c3957600080fd5b9060005260206000209060030201600091509050806000018054610c5c906122b5565b80601f0160208091040260200160405190810160405280929190818152602001828054610c88906122b5565b8015610cd55780601f10610caa57610100808354040283529160200191610cd5565b820191906000526020600020905b815481529060010190602001808311610cb857829003601f168201915b5050505050908060010160009054906101000a900473ffffffffffffffffffffffffffffffffffffffff1690806002018054610d10906122b5565b80601f0160208091040260200160405190810160405280929190818152602001828054610d3c906122b5565b8015610d895780601f10610d5e57610100808354040283529160200191610d89565b820191906000526020600020905b815481529060010190602001808311610d6c57829003601f168201915b5050505050905083565b6001602052806000526040600020600091509050806000018054610db6906122b5565b80601f0160208091040260200160405190810160405280929190818152602001828054610de2906122b5565b8015610e2f5780601f10610e0457610100808354040283529160200191610e2f565b820191906000526020600020905b815481529060010190602001808311610e1257829003601f168201915b505050505090806001018054610e44906122b5565b80601f0160208091040260200160405190810160405280929190818152602001828054610e70906122b5565b8015610ebd5780601f10610e9257610100808354040283529160200191610ebd565b820191906000526020600020905b815481529060010190602001808311610ea057829003601f168201915b5050505050908060020154908060030160009054906101000a900460ff16908060030160019054906101000a900473ffffffffffffffffffffffffffffffffffffffff16905085565b60028181548110610f1657600080fd5b9060005260206000209060030201600091509050806000018054610f39906122b5565b80601f0160208091040260200160405190810160405280929190818152602001828054610f65906122b5565b8015610fb25780601f10610f8757610100808354040283529160200191610fb2565b820191906000526020600020905b815481529060010190602001808311610f9557829003601f168201915b5050505050908060010160009054906101000a900473ffffffffffffffffffffffffffffffffffffffff1690806002018054610fed906122b5565b80601f0160208091040260200160405190810160405280929190818152602001828054611019906122b5565b80156110665780601f1061103b57610100808354040283529160200191611066565b820191906000526020600020905b81548152906001019060200180831161104957829003601f168201915b5050505050905083565b6006818154811061108057600080fd5b90600052602060002090600302016000915090508060000180546110a3906122b5565b80601f01602080910402602001604051908101604052809291908181526020018280546110cf906122b5565b801561111c5780601f106110f15761010080835404028352916020019161111c565b820191906000526020600020905b8154815290600101906020018083116110ff57829003601f168201915b5050505050908060010160009054906101000a900473ffffffffffffffffffffffffffffffffffffffff1690806002018054611157906122b5565b80601f0160208091040260200160405190810160405280929190818152602001828054611183906122b5565b80156111d05780601f106111a5576101008083540402835291602001916111d0565b820191906000526020600020905b8154815290600101906020018083116111b357829003601f168201915b5050505050905083565b600560405180606001604052808581526020018473ffffffffffffffffffffffffffffffffffffffff1681526020018381525090806001815401808255809150506001900390600052602060002090600302016000909190919091506000820151816000019080519060200190611252929190611c1a565b5060208201518160010160006101000a81548173ffffffffffffffffffffffffffffffffffffffff021916908373ffffffffffffffffffffffffffffffffffffffff16021790555060408201518160020190805190602001906112b6929190611c1a565b505050505050565b6040518060a0016040528084815260200183815260200182815260200160006005811115611315577f4e487b7100000000000000000000000000000000000000000000000000000000600052602160045260246000fd5b81526020013373ffffffffffffffffffffffffffffffffffffffff1681525060016000805481526020019081526020016000206000820151816000019080519060200190611364929190611c1a565b506020820151816001019080519060200190611381929190611c1a565b506040820151816002015560608201518160030160006101000a81548160ff021916908360058111156113dd577f4e487b7100000000000000000000000000000000000000000000000000000000600052602160045260246000fd5b021790555060808201518160030160016101000a81548173ffffffffffffffffffffffffffffffffffffffff021916908373ffffffffffffffffffffffffffffffffffffffff16021790555090505060008081548092919061143e906122e7565b9190505550505050565b600660405180606001604052808581526020018473ffffffffffffffffffffffffffffffffffffffff16815260200183815250908060018154018082558091505060019003906000526020600020906003020160009091909190915060008201518160000190805190602001906114c0929190611c1a565b5060208201518160010160006101000a81548173ffffffffffffffffffffffffffffffffffffffff021916908373ffffffffffffffffffffffffffffffffffffffff1602179055506040820151816002019080519060200190611524929190611c1a565b505050505050565b6004818154811061153c57600080fd5b906000526020600020906003020160009150905080600001805461155f906122b5565b80601f016020809104026020016040519081016040528092919081815260200182805461158b906122b5565b80156115d85780601f106115ad576101008083540402835291602001916115d8565b820191906000526020600020905b8154815290600101906020018083116115bb57829003601f168201915b5050505050908060010160009054906101000a900473ffffffffffffffffffffffffffffffffffffffff1690806002018054611613906122b5565b80601f016020809104026020016040519081016040528092919081815260200182805461163f906122b5565b801561168c5780601f106116615761010080835404028352916020019161168c565b820191906000526020600020905b81548152906001019060200180831161166f57829003601f168201915b5050505050905083565b600460405180606001604052808581526020018473ffffffffffffffffffffffffffffffffffffffff168152602001838152509080600181540180825580915050600190039060005260206000209060030201600090919091909150600082015181600001908051906020019061170e929190611c1a565b5060208201518160010160006101000a81548173ffffffffffffffffffffffffffffffffffffffff021916908373ffffffffffffffffffffffffffffffffffffffff1602179055506040820151816002019080519060200190611772929190611c1a565b505050505050565b60006006805490506005805490506004805490506003805490506002805490506117a491906121bc565b6117ae91906121bc565b6117b891906121bc565b6117c291906121bc565b905090565b600381815481106117d757600080fd5b90600052602060002090600302016000915090508060000180546117fa906122b5565b80601f0160208091040260200160405190810160405280929190818152602001828054611826906122b5565b80156118735780601f1061184857610100808354040283529160200191611873565b820191906000526020600020905b81548152906001019060200180831161185657829003601f168201915b5050505050908060010160009054906101000a900473ffffffffffffffffffffffffffffffffffffffff16908060020180546118ae906122b5565b80601f01602080910402602001604051908101604052809291908181526020018280546118da906122b5565b80156119275780601f106118fc57610100808354040283529160200191611927565b820191906000526020600020905b81548152906001019060200180831161190a57829003601f168201915b5050505050905083565b6000548110611975576040517f08c379a000000000000000000000000000000000000000000000000000000000815260040161196c90612104565b60405180910390fd5b6000600160008381526020019081526020016000209050600460058111156119c6577f4e487b7100000000000000000000000000000000000000000000000000000000600052602160045260246000fd5b8160030160009054906101000a900460ff166005811115611a10577f4e487b7100000000000000000000000000000000000000000000000000000000600052602160045260246000fd5b14611a50576040517f08c379a0000000000000000000000000000000000000000000000000000000008152600401611a47906120e4565b60405180910390fd5b80600201543414611a96576040517f08c379a0000000000000000000000000000000000000000000000000000000008152600401611a8d906120c4565b60405180910390fd5b60058160030160006101000a81548160ff02191690836005811115611ae4577f4e487b7100000000000000000000000000000000000000000000000000000000600052602160045260246000fd5b0217905550338160030160016101000a81548173ffffffffffffffffffffffffffffffffffffffff021916908373ffffffffffffffffffffffffffffffffffffffff1602179055505050565b60005481565b600260405180606001604052808581526020018473ffffffffffffffffffffffffffffffffffffffff1681526020018381525090806001815401808255809150506001900390600052602060002090600302016000909190919091506000820151816000019080519060200190611bae929190611c1a565b5060208201518160010160006101000a81548173ffffffffffffffffffffffffffffffffffffffff021916908373ffffffffffffffffffffffffffffffffffffffff1602179055506040820151816002019080519060200190611c12929190611c1a565b505050505050565b828054611c26906122b5565b90600052602060002090601f016020900481019282611c485760008555611c8f565b82601f10611c6157805160ff1916838001178555611c8f565b82800160010185558215611c8f579182015b82811115611c8e578251825591602001919060010190611c73565b5b509050611c9c9190611ca0565b5090565b5b80821115611cb9576000816000905550600101611ca1565b5090565b6000611cd0611ccb84612170565b61213f565b905082815260208101848484011115611ce857600080fd5b611cf3848285612273565b509392505050565b600081359050611d0a81612411565b92915050565b600082601f830112611d2157600080fd5b8135611d31848260208601611cbd565b91505092915050565b600081359050611d4981612428565b92915050565b600080600060608486031215611d6457600080fd5b600084013567ffffffffffffffff811115611d7e57600080fd5b611d8a86828701611d10565b9350506020611d9b86828701611cfb565b925050604084013567ffffffffffffffff811115611db857600080fd5b611dc486828701611d10565b9150509250925092565b600080600060608486031215611de357600080fd5b600084013567ffffffffffffffff811115611dfd57600080fd5b611e0986828701611d10565b935050602084013567ffffffffffffffff811115611e2657600080fd5b611e3286828701611d10565b9250506040611e4386828701611d3a565b9150509250925092565b600060208284031215611e5f57600080fd5b6000611e6d84828501611d3a565b91505092915050565b611e7f81612212565b82525050565b611e8e81612261565b82525050565b6000611e9f826121a0565b611ea981856121ab565b9350611eb9818560208601612282565b611ec2816123ec565b840191505092915050565b6000611eda6014836121ab565b91507f50726f6475637420616c726561647920736f6c640000000000000000000000006000830152602082019050919050565b6000611f1a6018836121ab565b91507f496e636f7272656374207061796d656e7420616d6f756e7400000000000000006000830152602082019050919050565b6000611f5a601f836121ab565b91507f50726f64756374206e6f742079657420696e2072657461696c207374616765006000830152602082019050919050565b6000611f9a6012836121ab565b91507f496e76616c69642070726f6475637420494400000000000000000000000000006000830152602082019050919050565b611fd681612257565b82525050565b60006020820190508181036000830152611ff68184611e94565b905092915050565b600060608201905081810360008301526120188186611e94565b90506120276020830185611e76565b81810360408301526120398184611e94565b9050949350505050565b600060a082019050818103600083015261205d8188611e94565b905081810360208301526120718187611e94565b90506120806040830186611fcd565b61208d6060830185611e85565b61209a6080830184611e76565b9695505050505050565b600060208201905081810360008301526120bd81611ecd565b9050919050565b600060208201905081810360008301526120dd81611f0d565b9050919050565b600060208201905081810360008301526120fd81611f4d565b9050919050565b6000602082019050818103600083015261211d81611f8d565b9050919050565b60006020820190506121396000830184611fcd565b92915050565b6000604051905081810181811067ffffffffffffffff82111715612166576121656123bd565b5b8060405250919050565b600067ffffffffffffffff82111561218b5761218a6123bd565b5b601f19601f8301169050602081019050919050565b600081519050919050565b600082825260208201905092915050565b60006121c782612257565b91506121d283612257565b9250827fffffffffffffffffffffffffffffffffffffffffffffffffffffffffffffffff0382111561220757612206612330565b5b828201905092915050565b600061221d82612237565b9050919050565b6000819050612232826123fd565b919050565b600073ffffffffffffffffffffffffffffffffffffffff82169050919050565b6000819050919050565b600061226c82612224565b9050919050565b82818337600083830152505050565b60005b838110156122a0578082015181840152602081019050612285565b838111156122af576000848401525b50505050565b600060028204905060018216806122cd57607f821691505b602082108114156122e1576122e061238e565b5b50919050565b60006122f282612257565b91507fffffffffffffffffffffffffffffffffffffffffffffffffffffffffffffffff82141561232557612324612330565b5b600182019050919050565b7f4e487b7100000000000000000000000000000000000000000000000000000000600052601160045260246000fd5b7f4e487b7100000000000000000000000000000000000000000000000000000000600052602160045260246000fd5b7f4e487b7100000000000000000000000000000000000000000000000000000000600052602260045260246000fd5b7f4e487b7100000000000000000000000000000000000000000000000000000000600052604160045260246000fd5b6000601f19601f8301169050919050565b6006811061240e5761240d61235f565b5b50565b61241a81612212565b811461242557600080fd5b50565b61243181612257565b811461243c57600080fd5b5056fea26469706673582212206a86a9c1292552a2e941d88b3adae1eb6bd43d026e3114144aec297942f09ebb64736f6c63430008000033",
  "immutableReferences": {},
  "source": "// SPDX-License-Identifier: MIT\npragma solidity ^0.8.0;\n\ncontract SupplyChain {\n    enum Stage { RawMaterial, Supplier, Shipper, Distributor, Retailer, Sold }\n\n    struct Company {\n        string name;\n        address companyAddress;\n        string placeOfOperation;\n    }\n\n    struct Product {\n        string name;\n        string description;\n        uint256 price; \n        Stage currentStage;\n        address currentOwner;\n        \n    }\n\n    uint public productCount = 0;\n    mapping(uint => Product) public products;\n\n    Company[] public rawMaterialSuppliers;\n    Company[] public suppliers;\n    Company[] public shippers;\n    Company[] public distributors;\n    Company[] public retailers;\n\n    // Add Company Functions\n    function addRawMaterialSupplier(string memory name, address companyAddr, string memory location) public {\n        rawMaterialSuppliers.push(Company(name, companyAddr, location));\n    }\n\n    function addSupplier(string memory name, address companyAddr, string memory location) public {\n        suppliers.push(Company(name, companyAddr, location));\n    }\n\n    function addShipper(string memory name, address companyAddr, string memory location) public {\n        shippers.push(Company(name, companyAddr, location));\n    }\n\n    function addDistributer(string memory name, address companyAddr, string memory location) public {\n        distributors.push(Company(name, companyAddr, location));\n    }\n\n    function addRetailer(string memory name, address companyAddr, string memory location) public {\n        retailers.push(Company(name, companyAddr, location));\n    }\n\n    // Create a new product\n    function createProduct(string memory name, string memory description, uint256 price) public {\n        products[productCount] = Product(name, description, price, Stage.RawMaterial, msg.sender);\n        productCount++;\n    }\n\n    // Simulate progress through supply chain\n    function advanceStage(uint productId) public {\n        require(productId < productCount, \"Invalid product ID\");\n        Product storage product = products[productId];\n        require(product.currentStage != Stage.Sold, \"Product already sold\");\n        product.currentStage = Stage(uint(product.currentStage) + 1);\n    }\n\n    // Purchase item at final stage\n    function purchaseItem(uint productId) public payable{\n        require(productId < productCount, \"Invalid product ID\");\n        Product storage product = products[productId];\n        require(product.currentStage == Stage.Retailer, \"Product not yet in retail stage\");\n        require(msg.value == product.price, \"Incorrect payment amount\");\n        product.currentStage = Stage.Sold;\n        product.currentOwner = msg.sender;\n    }\n\n    // View current stage\n    function viewCurrentStage(uint productId) public view returns (string memory) {\n        require(productId < productCount, \"Invalid product ID\");\n        Stage stage = products[productId].currentStage;\n        if (stage == Stage.RawMaterial) return \"Raw Material Supplier\";\n        if (stage == Stage.Supplier) return \"Supplier\";\n        if (stage == Stage.Shipper) return \"Shipper\";\n        if (stage == Stage.Distributor) return \"Distributor\";\n        if (stage == Stage.Retailer) return \"Retailer\";\n        if (stage == Stage.Sold) return \"Sold\";\n        return \"Unknown\";\n    }\n    function getTotalActors() public view returns (uint) {\n    return rawMaterialSuppliers.length + suppliers.length + shippers.length + distributors.length + retailers.length;\n  }\n}\n\n",
  "sourcePath": "/home/osboxes/Desktop/196DProject/contracts/SupplyChain.sol",
  "compiler": {
    "name": "solc",
    "version": "0.8.0+commit.c7dfd78e.Emscripten.clang"
  },
  "schemaVersion": "3.4.16",
  "updatedAt": "2025-04-24T06:06:08.378Z",
  "networkType": "ethereum",
  "devdoc": {
    "kind": "dev",
    "methods": {},
    "version": 1
  },
  "userdoc": {
    "kind": "user",
    "methods": {},
    "version": 1
  }
}