{
  "contractName": "SupplyChain",
  "abi": [
    {
      "inputs": [],
      "stateMutability": "nonpayable",
      "type": "constructor"
    },
    {
      "inputs": [
        {
          "internalType": "uint256",
          "name": "",
          "type": "uint256"
        }
      ],
      "name": "distributors",
      "outputs": [
        {
          "internalType": "string",
          "name": "name",
          "type": "string"
        },
        {
          "internalType": "address",
          "name": "companyAddress",
          "type": "address"
        },
        {
          "internalType": "string",
          "name": "placeOfOperation",
          "type": "string"
        }
      ],
      "stateMutability": "view",
      "type": "function",
      "constant": true
    },
    {
      "inputs": [],
      "name": "owner",
      "outputs": [
        {
          "internalType": "address",
          "name": "",
          "type": "address"
        }
      ],
      "stateMutability": "view",
      "type": "function",
      "constant": true
    },
    {
      "inputs": [],
      "name": "productCount",
      "outputs": [
        {
          "internalType": "uint256",
          "name": "",
          "type": "uint256"
        }
      ],
      "stateMutability": "view",
      "type": "function",
      "constant": true
    },
    {
      "inputs": [
        {
          "internalType": "uint256",
          "name": "",
          "type": "uint256"
        }
      ],
      "name": "rawMaterialSuppliers",
      "outputs": [
        {
          "internalType": "string",
          "name": "name",
          "type": "string"
        },
        {
          "internalType": "address",
          "name": "companyAddress",
          "type": "address"
        },
        {
          "internalType": "string",
          "name": "placeOfOperation",
          "type": "string"
        }
      ],
      "stateMutability": "view",
      "type": "function",
      "constant": true
    },
    {
      "inputs": [
        {
          "internalType": "uint256",
          "name": "",
          "type": "uint256"
        }
      ],
      "name": "retailers",
      "outputs": [
        {
          "internalType": "string",
          "name": "name",
          "type": "string"
        },
        {
          "internalType": "address",
          "name": "companyAddress",
          "type": "address"
        },
        {
          "internalType": "string",
          "name": "placeOfOperation",
          "type": "string"
        }
      ],
      "stateMutability": "view",
      "type": "function",
      "constant": true
    },
    {
      "inputs": [
        {
          "internalType": "uint256",
          "name": "",
          "type": "uint256"
        }
      ],
      "name": "shippers",
      "outputs": [
        {
          "internalType": "string",
          "name": "name",
          "type": "string"
        },
        {
          "internalType": "address",
          "name": "companyAddress",
          "type": "address"
        },
        {
          "internalType": "string",
          "name": "placeOfOperation",
          "type": "string"
        }
      ],
      "stateMutability": "view",
      "type": "function",
      "constant": true
    },
    {
      "inputs": [
        {
          "internalType": "uint256",
          "name": "",
          "type": "uint256"
        }
      ],
      "name": "suppliers",
      "outputs": [
        {
          "internalType": "string",
          "name": "name",
          "type": "string"
        },
        {
          "internalType": "address",
          "name": "companyAddress",
          "type": "address"
        },
        {
          "internalType": "string",
          "name": "placeOfOperation",
          "type": "string"
        }
      ],
      "stateMutability": "view",
      "type": "function",
      "constant": true
    },
    {
      "inputs": [
        {
          "internalType": "string",
          "name": "name",
          "type": "string"
        },
        {
          "internalType": "address",
          "name": "companyAddr",
          "type": "address"
        },
        {
          "internalType": "string",
          "name": "location",
          "type": "string"
        }
      ],
      "name": "addRawMaterialSupplier",
      "outputs": [],
      "stateMutability": "nonpayable",
      "type": "function"
    },
    {
      "inputs": [
        {
          "internalType": "string",
          "name": "name",
          "type": "string"
        },
        {
          "internalType": "address",
          "name": "companyAddr",
          "type": "address"
        },
        {
          "internalType": "string",
          "name": "location",
          "type": "string"
        }
      ],
      "name": "addSupplier",
      "outputs": [],
      "stateMutability": "nonpayable",
      "type": "function"
    },
    {
      "inputs": [
        {
          "internalType": "string",
          "name": "name",
          "type": "string"
        },
        {
          "internalType": "address",
          "name": "companyAddr",
          "type": "address"
        },
        {
          "internalType": "string",
          "name": "location",
          "type": "string"
        }
      ],
      "name": "addShipper",
      "outputs": [],
      "stateMutability": "nonpayable",
      "type": "function"
    },
    {
      "inputs": [
        {
          "internalType": "string",
          "name": "name",
          "type": "string"
        },
        {
          "internalType": "address",
          "name": "companyAddr",
          "type": "address"
        },
        {
          "internalType": "string",
          "name": "location",
          "type": "string"
        }
      ],
      "name": "addDistributer",
      "outputs": [],
      "stateMutability": "nonpayable",
      "type": "function"
    },
    {
      "inputs": [
        {
          "internalType": "string",
          "name": "name",
          "type": "string"
        },
        {
          "internalType": "address",
          "name": "companyAddr",
          "type": "address"
        },
        {
          "internalType": "string",
          "name": "location",
          "type": "string"
        }
      ],
      "name": "addRetailer",
      "outputs": [],
      "stateMutability": "nonpayable",
      "type": "function"
    },
    {
      "inputs": [
        {
          "internalType": "string",
          "name": "name",
          "type": "string"
        },
        {
          "internalType": "string",
          "name": "description",
          "type": "string"
        },
        {
          "internalType": "uint256",
          "name": "price",
          "type": "uint256"
        }
      ],
      "name": "createProduct",
      "outputs": [],
      "stateMutability": "nonpayable",
      "type": "function"
    },
    {
      "inputs": [
        {
          "internalType": "uint256",
          "name": "productId",
          "type": "uint256"
        }
      ],
      "name": "advanceStage",
      "outputs": [],
      "stateMutability": "nonpayable",
      "type": "function"
    },
    {
      "inputs": [
        {
          "internalType": "uint256",
          "name": "productId",
          "type": "uint256"
        }
      ],
      "name": "purchaseItem",
      "outputs": [],
      "stateMutability": "payable",
      "type": "function",
      "payable": true
    },
    {
      "inputs": [
        {
          "internalType": "uint256",
          "name": "productId",
          "type": "uint256"
        }
      ],
      "name": "viewProduct",
      "outputs": [
        {
          "internalType": "string",
          "name": "",
          "type": "string"
        },
        {
          "internalType": "string",
          "name": "",
          "type": "string"
        },
        {
          "internalType": "uint256",
          "name": "",
          "type": "uint256"
        },
        {
          "internalType": "enum SupplyChain.Stage",
          "name": "",
          "type": "uint8"
        },
        {
          "internalType": "address",
          "name": "",
          "type": "address"
        }
      ],
      "stateMutability": "view",
      "type": "function",
      "constant": true
    },
    {
      "inputs": [
        {
          "internalType": "uint256",
          "name": "productId",
          "type": "uint256"
        }
      ],
      "name": "getStagePrices",
      "outputs": [
        {
          "internalType": "uint256[6]",
          "name": "",
          "type": "uint256[6]"
        }
      ],
      "stateMutability": "view",
      "type": "function",
      "constant": true
    },
    {
      "inputs": [
        {
          "internalType": "uint256",
          "name": "productId",
          "type": "uint256"
        }
      ],
      "name": "viewCurrentStage",
      "outputs": [
        {
          "internalType": "string",
          "name": "",
          "type": "string"
        }
      ],
      "stateMutability": "view",
      "type": "function",
      "constant": true
    },
    {
      "inputs": [
        {
          "internalType": "address",
          "name": "ownerAddr",
          "type": "address"
        }
      ],
      "name": "getProductsByOwner",
      "outputs": [
        {
          "internalType": "uint256[]",
          "name": "",
          "type": "uint256[]"
        }
      ],
      "stateMutability": "view",
      "type": "function",
      "constant": true
    },
    {
      "inputs": [],
      "name": "getTotalActors",
      "outputs": [
        {
          "internalType": "uint256",
          "name": "",
          "type": "uint256"
        }
      ],
      "stateMutability": "view",
      "type": "function",
      "constant": true
    },
    {
      "inputs": [
        {
          "internalType": "uint256",
          "name": "productId",
          "type": "uint256"
        }
      ],
      "name": "getPrice",
      "outputs": [
        {
          "internalType": "uint256",
          "name": "",
          "type": "uint256"
        }
      ],
      "stateMutability": "view",
      "type": "function",
      "constant": true
    }
  ],
  "bytecode": "0x6080604052600060015534801561001557600080fd5b50336000806101000a81548173ffffffffffffffffffffffffffffffffffffffff021916908373ffffffffffffffffffffffffffffffffffffffff160217905550613798806100656000396000f3fe60806040526004361061012a5760003560e01c8063a87812f4116100ab578063d38ea5bf1161006f578063d38ea5bf14610430578063dafc98041461044c578063e0f6ef8714610489578063e2cfaf55146104b4578063e7572230146104dd578063eafd4bbd1461051a5761012a565b8063a87812f414610335578063a8ef341c1461035e578063afc60d021461039d578063bfa9eb25146103c6578063cea23121146103f15761012a565b806389639eb7116100f257806389639eb71461023a578063897ec7df146102795780638da5cb5b146102b857806396da85a0146102e3578063a14222091461030c5761012a565b806309b9e95e1461012f5780630fecef4814610158578063280b2b0d146101955780632e534dff146101d257806350b492ba146101fb575b600080fd5b34801561013b57600080fd5b5061015660048036038101906101519190612d12565b61055b565b005b34801561016457600080fd5b5061017f600480360381019061017a9190612ce9565b6106cd565b60405161018c919061317d565b60405180910390f35b3480156101a157600080fd5b506101bc60048036038101906101b79190612e10565b6108c9565b6040516101c9919061319f565b60405180910390f35b3480156101de57600080fd5b506101f960048036038101906101f49190612e10565b610dbf565b005b34801561020757600080fd5b50610222600480360381019061021d9190612e10565b611113565b604051610231939291906131c1565b60405180910390f35b34801561024657600080fd5b50610261600480360381019061025c9190612e10565b61127d565b604051610270939291906131c1565b60405180910390f35b34801561028557600080fd5b506102a0600480360381019061029b9190612e10565b6113e7565b6040516102af939291906131c1565b60405180910390f35b3480156102c457600080fd5b506102cd611551565b6040516102da9190613147565b60405180910390f35b3480156102ef57600080fd5b5061030a60048036038101906103059190612d12565b611575565b005b34801561031857600080fd5b50610333600480360381019061032e9190612d91565b6116e7565b005b34801561034157600080fd5b5061035c60048036038101906103579190612d12565b611907565b005b34801561036a57600080fd5b5061038560048036038101906103809190612e10565b611a79565b604051610394939291906131c1565b60405180910390f35b3480156103a957600080fd5b506103c460048036038101906103bf9190612d12565b611be3565b005b3480156103d257600080fd5b506103db611d55565b6040516103e89190613327565b60405180910390f35b3480156103fd57600080fd5b5061041860048036038101906104139190612e10565b611da2565b604051610427939291906131c1565b60405180910390f35b61044a60048036038101906104459190612e10565b611f0c565b005b34801561045857600080fd5b50610473600480360381019061046e9190612e10565b61210b565b6040516104809190613162565b60405180910390f35b34801561049557600080fd5b5061049e61263a565b6040516104ab9190613327565b60405180910390f35b3480156104c057600080fd5b506104db60048036038101906104d69190612d12565b612640565b005b3480156104e957600080fd5b5061050460048036038101906104ff9190612e10565b6127b2565b6040516105119190613327565b60405180910390f35b34801561052657600080fd5b50610541600480360381019061053c9190612e10565b6129bf565b604051610552959493929190613206565b60405180910390f35b60008054906101000a900473ffffffffffffffffffffffffffffffffffffffff1673ffffffffffffffffffffffffffffffffffffffff163373ffffffffffffffffffffffffffffffffffffffff16146105e9576040517f08c379a00000000000000000000000000000000000000000000000000000000081526004016105e090613307565b60405180910390fd5b600460405180606001604052808581526020018473ffffffffffffffffffffffffffffffffffffffff1681526020018381525090806001815401808255809150506001900390600052602060002090600302016000909190919091506000820151816000019080519060200190610661929190612b92565b5060208201518160010160006101000a81548173ffffffffffffffffffffffffffffffffffffffff021916908373ffffffffffffffffffffffffffffffffffffffff16021790555060408201518160020190805190602001906106c5929190612b92565b505050505050565b60606000805b600154811015610769578373ffffffffffffffffffffffffffffffffffffffff166002600083815260200190815260200160002060030160019054906101000a900473ffffffffffffffffffffffffffffffffffffffff1673ffffffffffffffffffffffffffffffffffffffff161415610756578180610752906135db565b9250505b8080610761906135db565b9150506106d3565b5060008167ffffffffffffffff8111156107ac577f4e487b7100000000000000000000000000000000000000000000000000000000600052604160045260246000fd5b6040519080825280602002602001820160405280156107da5781602001602082028036833780820191505090505b5090506000805b6001548110156108bd578573ffffffffffffffffffffffffffffffffffffffff166002600083815260200190815260200160002060030160019054906101000a900473ffffffffffffffffffffffffffffffffffffffff1673ffffffffffffffffffffffffffffffffffffffff1614156108aa578083838151811061088f577f4e487b7100000000000000000000000000000000000000000000000000000000600052603260045260246000fd5b60200260200101818152505081806108a6906135db565b9250505b80806108b5906135db565b9150506107e1565b50819350505050919050565b6060600154821061090f576040517f08c379a0000000000000000000000000000000000000000000000000000000008152600401610906906132e7565b60405180910390fd5b60006002600084815260200190815260200160002060030160009054906101000a900460ff16905060006005811115610971577f4e487b7100000000000000000000000000000000000000000000000000000000600052602160045260246000fd5b8160058111156109aa577f4e487b7100000000000000000000000000000000000000000000000000000000600052602160045260246000fd5b14156109ee576040518060400160405280601581526020017f526177204d6174657269616c20537570706c6965720000000000000000000000815250915050610dba565b60016005811115610a28577f4e487b7100000000000000000000000000000000000000000000000000000000600052602160045260246000fd5b816005811115610a61577f4e487b7100000000000000000000000000000000000000000000000000000000600052602160045260246000fd5b1415610aa5576040518060400160405280600881526020017f537570706c696572000000000000000000000000000000000000000000000000815250915050610dba565b60026005811115610adf577f4e487b7100000000000000000000000000000000000000000000000000000000600052602160045260246000fd5b816005811115610b18577f4e487b7100000000000000000000000000000000000000000000000000000000600052602160045260246000fd5b1415610b5c576040518060400160405280600781526020017f5368697070657200000000000000000000000000000000000000000000000000815250915050610dba565b60036005811115610b96577f4e487b7100000000000000000000000000000000000000000000000000000000600052602160045260246000fd5b816005811115610bcf577f4e487b7100000000000000000000000000000000000000000000000000000000600052602160045260246000fd5b1415610c13576040518060400160405280600b81526020017f4469737472696275746f72000000000000000000000000000000000000000000815250915050610dba565b60046005811115610c4d577f4e487b7100000000000000000000000000000000000000000000000000000000600052602160045260246000fd5b816005811115610c86577f4e487b7100000000000000000000000000000000000000000000000000000000600052602160045260246000fd5b1415610cca576040518060400160405280600881526020017f52657461696c6572000000000000000000000000000000000000000000000000815250915050610dba565b600580811115610d03577f4e487b7100000000000000000000000000000000000000000000000000000000600052602160045260246000fd5b816005811115610d3c577f4e487b7100000000000000000000000000000000000000000000000000000000600052602160045260246000fd5b1415610d80576040518060400160405280600481526020017f536f6c6400000000000000000000000000000000000000000000000000000000815250915050610dba565b6040518060400160405280600781526020017f556e6b6e6f776e000000000000000000000000000000000000000000000000008152509150505b919050565b60008054906101000a900473ffffffffffffffffffffffffffffffffffffffff1673ffffffffffffffffffffffffffffffffffffffff163373ffffffffffffffffffffffffffffffffffffffff1614610e4d576040517f08c379a0000000000000000000000000000000000000000000000000000000008152600401610e4490613307565b60405180910390fd5b6001548110610e91576040517f08c379a0000000000000000000000000000000000000000000000000000000008152600401610e88906132e7565b60405180910390fd5b6000600260008381526020019081526020016000209050600580811115610ee1577f4e487b7100000000000000000000000000000000000000000000000000000000600052602160045260246000fd5b8160030160009054906101000a900460ff166005811115610f2b577f4e487b7100000000000000000000000000000000000000000000000000000000600052602160045260246000fd5b1415610f6c576040517f08c379a0000000000000000000000000000000000000000000000000000000008152600401610f6390613267565b60405180910390fd5b6064606e8260020154610f7f91906134ac565b610f89919061347b565b816002018190555060018160030160009054906101000a900460ff166005811115610fdd577f4e487b7100000000000000000000000000000000000000000000000000000000600052602160045260246000fd5b610fe79190613425565b600581111561101f577f4e487b7100000000000000000000000000000000000000000000000000000000600052602160045260246000fd5b8160030160006101000a81548160ff0219169083600581111561106b577f4e487b7100000000000000000000000000000000000000000000000000000000600052602160045260246000fd5b021790555080600201548160040160008360030160009054906101000a900460ff1660058111156110c5577f4e487b7100000000000000000000000000000000000000000000000000000000600052602160045260246000fd5b60058111156110fd577f4e487b7100000000000000000000000000000000000000000000000000000000600052602160045260246000fd5b8152602001908152602001600020819055505050565b6006818154811061112357600080fd5b9060005260206000209060030201600091509050806000018054611146906135a9565b80601f0160208091040260200160405190810160405280929190818152602001828054611172906135a9565b80156111bf5780601f10611194576101008083540402835291602001916111bf565b820191906000526020600020905b8154815290600101906020018083116111a257829003601f168201915b5050505050908060010160009054906101000a900473ffffffffffffffffffffffffffffffffffffffff16908060020180546111fa906135a9565b80601f0160208091040260200160405190810160405280929190818152602001828054611226906135a9565b80156112735780601f1061124857610100808354040283529160200191611273565b820191906000526020600020905b81548152906001019060200180831161125657829003601f168201915b5050505050905083565b6003818154811061128d57600080fd5b90600052602060002090600302016000915090508060000180546112b0906135a9565b80601f01602080910402602001604051908101604052809291908181526020018280546112dc906135a9565b80156113295780601f106112fe57610100808354040283529160200191611329565b820191906000526020600020905b81548152906001019060200180831161130c57829003601f168201915b5050505050908060010160009054906101000a900473ffffffffffffffffffffffffffffffffffffffff1690806002018054611364906135a9565b80601f0160208091040260200160405190810160405280929190818152602001828054611390906135a9565b80156113dd5780601f106113b2576101008083540402835291602001916113dd565b820191906000526020600020905b8154815290600101906020018083116113c057829003601f168201915b5050505050905083565b600781815481106113f757600080fd5b906000526020600020906003020160009150905080600001805461141a906135a9565b80601f0160208091040260200160405190810160405280929190818152602001828054611446906135a9565b80156114935780601f1061146857610100808354040283529160200191611493565b820191906000526020600020905b81548152906001019060200180831161147657829003601f168201915b5050505050908060010160009054906101000a900473ffffffffffffffffffffffffffffffffffffffff16908060020180546114ce906135a9565b80601f01602080910402602001604051908101604052809291908181526020018280546114fa906135a9565b80156115475780601f1061151c57610100808354040283529160200191611547565b820191906000526020600020905b81548152906001019060200180831161152a57829003601f168201915b5050505050905083565b60008054906101000a900473ffffffffffffffffffffffffffffffffffffffff1681565b60008054906101000a900473ffffffffffffffffffffffffffffffffffffffff1673ffffffffffffffffffffffffffffffffffffffff163373ffffffffffffffffffffffffffffffffffffffff1614611603576040517f08c379a00000000000000000000000000000000000000000000000000000000081526004016115fa90613307565b60405180910390fd5b600660405180606001604052808581526020018473ffffffffffffffffffffffffffffffffffffffff168152602001838152509080600181540180825580915050600190039060005260206000209060030201600090919091909150600082015181600001908051906020019061167b929190612b92565b5060208201518160010160006101000a81548173ffffffffffffffffffffffffffffffffffffffff021916908373ffffffffffffffffffffffffffffffffffffffff16021790555060408201518160020190805190602001906116df929190612b92565b505050505050565b60008054906101000a900473ffffffffffffffffffffffffffffffffffffffff1673ffffffffffffffffffffffffffffffffffffffff163373ffffffffffffffffffffffffffffffffffffffff1614611775576040517f08c379a000000000000000000000000000000000000000000000000000000000815260040161176c90613307565b60405180910390fd5b60006002600060015481526020019081526020016000209050838160000190805190602001906117a6929190612b92565b50828160010190805190602001906117bf929190612b92565b5081816002018190555060008160030160006101000a81548160ff02191690836005811115611817577f4e487b7100000000000000000000000000000000000000000000000000000000600052602160045260246000fd5b0217905550338160030160016101000a81548173ffffffffffffffffffffffffffffffffffffffff021916908373ffffffffffffffffffffffffffffffffffffffff1602179055508181600401600080600581111561189f577f4e487b7100000000000000000000000000000000000000000000000000000000600052602160045260246000fd5b60058111156118d7577f4e487b7100000000000000000000000000000000000000000000000000000000600052602160045260246000fd5b815260200190815260200160002081905550600160008154809291906118fc906135db565b919050555050505050565b60008054906101000a900473ffffffffffffffffffffffffffffffffffffffff1673ffffffffffffffffffffffffffffffffffffffff163373ffffffffffffffffffffffffffffffffffffffff1614611995576040517f08c379a000000000000000000000000000000000000000000000000000000000815260040161198c90613307565b60405180910390fd5b600760405180606001604052808581526020018473ffffffffffffffffffffffffffffffffffffffff1681526020018381525090806001815401808255809150506001900390600052602060002090600302016000909190919091506000820151816000019080519060200190611a0d929190612b92565b5060208201518160010160006101000a81548173ffffffffffffffffffffffffffffffffffffffff021916908373ffffffffffffffffffffffffffffffffffffffff1602179055506040820151816002019080519060200190611a71929190612b92565b505050505050565b60058181548110611a8957600080fd5b9060005260206000209060030201600091509050806000018054611aac906135a9565b80601f0160208091040260200160405190810160405280929190818152602001828054611ad8906135a9565b8015611b255780601f10611afa57610100808354040283529160200191611b25565b820191906000526020600020905b815481529060010190602001808311611b0857829003601f168201915b5050505050908060010160009054906101000a900473ffffffffffffffffffffffffffffffffffffffff1690806002018054611b60906135a9565b80601f0160208091040260200160405190810160405280929190818152602001828054611b8c906135a9565b8015611bd95780601f10611bae57610100808354040283529160200191611bd9565b820191906000526020600020905b815481529060010190602001808311611bbc57829003601f168201915b5050505050905083565b60008054906101000a900473ffffffffffffffffffffffffffffffffffffffff1673ffffffffffffffffffffffffffffffffffffffff163373ffffffffffffffffffffffffffffffffffffffff1614611c71576040517f08c379a0000000000000000000000000000000000000000000000000000000008152600401611c6890613307565b60405180910390fd5b600560405180606001604052808581526020018473ffffffffffffffffffffffffffffffffffffffff1681526020018381525090806001815401808255809150506001900390600052602060002090600302016000909190919091506000820151816000019080519060200190611ce9929190612b92565b5060208201518160010160006101000a81548173ffffffffffffffffffffffffffffffffffffffff021916908373ffffffffffffffffffffffffffffffffffffffff1602179055506040820151816002019080519060200190611d4d929190612b92565b505050505050565b6000600780549050600680549050600580549050600480549050600380549050611d7f9190613425565b611d899190613425565b611d939190613425565b611d9d9190613425565b905090565b60048181548110611db257600080fd5b9060005260206000209060030201600091509050806000018054611dd5906135a9565b80601f0160208091040260200160405190810160405280929190818152602001828054611e01906135a9565b8015611e4e5780601f10611e2357610100808354040283529160200191611e4e565b820191906000526020600020905b815481529060010190602001808311611e3157829003601f168201915b5050505050908060010160009054906101000a900473ffffffffffffffffffffffffffffffffffffffff1690806002018054611e89906135a9565b80601f0160208091040260200160405190810160405280929190818152602001828054611eb5906135a9565b8015611f025780601f10611ed757610100808354040283529160200191611f02565b820191906000526020600020905b815481529060010190602001808311611ee557829003601f168201915b5050505050905083565b6001548110611f50576040517f08c379a0000000000000000000000000000000000000000000000000000000008152600401611f47906132e7565b60405180910390fd5b600060026000838152602001908152602001600020905060046005811115611fa1577f4e487b7100000000000000000000000000000000000000000000000000000000600052602160045260246000fd5b8160030160009054906101000a900460ff166005811115611feb577f4e487b7100000000000000000000000000000000000000000000000000000000600052602160045260246000fd5b1461202b576040517f08c379a0000000000000000000000000000000000000000000000000000000008152600401612022906132a7565b60405180910390fd5b80600201543414612071576040517f08c379a000000000000000000000000000000000000000000000000000000000815260040161206890613287565b60405180910390fd5b60058160030160006101000a81548160ff021916908360058111156120bf577f4e487b7100000000000000000000000000000000000000000000000000000000600052602160045260246000fd5b0217905550338160030160016101000a81548173ffffffffffffffffffffffffffffffffffffffff021916908373ffffffffffffffffffffffffffffffffffffffff1602179055505050565b612113612c18565b6001548210612157576040517f08c379a000000000000000000000000000000000000000000000000000000000815260040161214e906132e7565b60405180910390fd5b6000600260008481526020019081526020016000209050612176612c18565b8160040160008060058111156121b5577f4e487b7100000000000000000000000000000000000000000000000000000000600052602160045260246000fd5b60058111156121ed577f4e487b7100000000000000000000000000000000000000000000000000000000600052602160045260246000fd5b81526020019081526020016000205481600060068110612236577f4e487b7100000000000000000000000000000000000000000000000000000000600052603260045260246000fd5b6020020181815250508160040160006001600581111561227f577f4e487b7100000000000000000000000000000000000000000000000000000000600052602160045260246000fd5b60058111156122b7577f4e487b7100000000000000000000000000000000000000000000000000000000600052602160045260246000fd5b81526020019081526020016000205481600160068110612300577f4e487b7100000000000000000000000000000000000000000000000000000000600052603260045260246000fd5b60200201818152505081600401600060026005811115612349577f4e487b7100000000000000000000000000000000000000000000000000000000600052602160045260246000fd5b6005811115612381577f4e487b7100000000000000000000000000000000000000000000000000000000600052602160045260246000fd5b815260200190815260200160002054816002600681106123ca577f4e487b7100000000000000000000000000000000000000000000000000000000600052603260045260246000fd5b60200201818152505081600401600060036005811115612413577f4e487b7100000000000000000000000000000000000000000000000000000000600052602160045260246000fd5b600581111561244b577f4e487b7100000000000000000000000000000000000000000000000000000000600052602160045260246000fd5b81526020019081526020016000205481600360068110612494577f4e487b7100000000000000000000000000000000000000000000000000000000600052603260045260246000fd5b602002018181525050816004016000600460058111156124dd577f4e487b7100000000000000000000000000000000000000000000000000000000600052602160045260246000fd5b6005811115612515577f4e487b7100000000000000000000000000000000000000000000000000000000600052602160045260246000fd5b8152602001908152602001600020548160046006811061255e577f4e487b7100000000000000000000000000000000000000000000000000000000600052603260045260246000fd5b6020020181815250508160040160006005808111156125a6577f4e487b7100000000000000000000000000000000000000000000000000000000600052602160045260246000fd5b60058111156125de577f4e487b7100000000000000000000000000000000000000000000000000000000600052602160045260246000fd5b81526020019081526020016000205481600560068110612627577f4e487b7100000000000000000000000000000000000000000000000000000000600052603260045260246000fd5b6020020181815250508092505050919050565b60015481565b60008054906101000a900473ffffffffffffffffffffffffffffffffffffffff1673ffffffffffffffffffffffffffffffffffffffff163373ffffffffffffffffffffffffffffffffffffffff16146126ce576040517f08c379a00000000000000000000000000000000000000000000000000000000081526004016126c590613307565b60405180910390fd5b600360405180606001604052808581526020018473ffffffffffffffffffffffffffffffffffffffff1681526020018381525090806001815401808255809150506001900390600052602060002090600302016000909190919091506000820151816000019080519060200190612746929190612b92565b5060208201518160010160006101000a81548173ffffffffffffffffffffffffffffffffffffffff021916908373ffffffffffffffffffffffffffffffffffffffff16021790555060408201518160020190805190602001906127aa929190612b92565b505050505050565b600060015482106127f8576040517f08c379a00000000000000000000000000000000000000000000000000000000081526004016127ef906132e7565b60405180910390fd5b600060026000848152602001908152602001600020905060008054906101000a900473ffffffffffffffffffffffffffffffffffffffff1673ffffffffffffffffffffffffffffffffffffffff163373ffffffffffffffffffffffffffffffffffffffff16146129b2576004600581111561289c577f4e487b7100000000000000000000000000000000000000000000000000000000600052602160045260246000fd5b8160030160009054906101000a900460ff1660058111156128e6577f4e487b7100000000000000000000000000000000000000000000000000000000600052602160045260246000fd5b14806129725750600580811115612926577f4e487b7100000000000000000000000000000000000000000000000000000000600052602160045260246000fd5b8160030160009054906101000a900460ff166005811115612970577f4e487b7100000000000000000000000000000000000000000000000000000000600052602160045260246000fd5b145b6129b1576040517f08c379a00000000000000000000000000000000000000000000000000000000081526004016129a8906132c7565b60405180910390fd5b5b8060020154915050919050565b60608060008060006001548610612a0b576040517f08c379a0000000000000000000000000000000000000000000000000000000008152600401612a02906132e7565b60405180910390fd5b6000600260008881526020019081526020016000209050806000018160010182600201548360030160009054906101000a900460ff168460030160019054906101000a900473ffffffffffffffffffffffffffffffffffffffff16848054612a72906135a9565b80601f0160208091040260200160405190810160405280929190818152602001828054612a9e906135a9565b8015612aeb5780601f10612ac057610100808354040283529160200191612aeb565b820191906000526020600020905b815481529060010190602001808311612ace57829003601f168201915b50505050509450838054612afe906135a9565b80601f0160208091040260200160405190810160405280929190818152602001828054612b2a906135a9565b8015612b775780601f10612b4c57610100808354040283529160200191612b77565b820191906000526020600020905b815481529060010190602001808311612b5a57829003601f168201915b50505050509350955095509550955095505091939590929450565b828054612b9e906135a9565b90600052602060002090601f016020900481019282612bc05760008555612c07565b82601f10612bd957805160ff1916838001178555612c07565b82800160010185558215612c07579182015b82811115612c06578251825591602001919060010190612beb565b5b509050612c149190612c3a565b5090565b6040518060c00160405280600690602082028036833780820191505090505090565b5b80821115612c53576000816000905550600101612c3b565b5090565b6000612c6a612c6584613373565b613342565b905082815260208101848484011115612c8257600080fd5b612c8d848285613567565b509392505050565b600081359050612ca481613734565b92915050565b600082601f830112612cbb57600080fd5b8135612ccb848260208601612c57565b91505092915050565b600081359050612ce38161374b565b92915050565b600060208284031215612cfb57600080fd5b6000612d0984828501612c95565b91505092915050565b600080600060608486031215612d2757600080fd5b600084013567ffffffffffffffff811115612d4157600080fd5b612d4d86828701612caa565b9350506020612d5e86828701612c95565b925050604084013567ffffffffffffffff811115612d7b57600080fd5b612d8786828701612caa565b9150509250925092565b600080600060608486031215612da657600080fd5b600084013567ffffffffffffffff811115612dc057600080fd5b612dcc86828701612caa565b935050602084013567ffffffffffffffff811115612de957600080fd5b612df586828701612caa565b9250506040612e0686828701612cd4565b9150509250925092565b600060208284031215612e2257600080fd5b6000612e3084828501612cd4565b91505092915050565b6000612e458383613129565b60208301905092915050565b612e5a81613506565b82525050565b612e69816133bd565b612e7381846133f8565b9250612e7e826133a3565b8060005b83811015612eaf578151612e968782612e39565b9650612ea1836133de565b925050600181019050612e82565b505050505050565b6000612ec2826133c8565b612ecc8185613403565b9350612ed7836133ad565b8060005b83811015612f08578151612eef8882612e39565b9750612efa836133eb565b925050600181019050612edb565b5085935050505092915050565b612f1e81613555565b82525050565b6000612f2f826133d3565b612f398185613414565b9350612f49818560208601613576565b612f528161370f565b840191505092915050565b6000612f6a601483613414565b91507f50726f6475637420616c726561647920736f6c640000000000000000000000006000830152602082019050919050565b6000612faa601883613414565b91507f496e636f7272656374207061796d656e7420616d6f756e7400000000000000006000830152602082019050919050565b6000612fea601f83613414565b91507f50726f64756374206e6f742079657420696e2072657461696c207374616765006000830152602082019050919050565b600061302a602183613414565b91507f5072696365206c6f636b656420756e74696c2052657461696c6572207374616760008301527f65000000000000000000000000000000000000000000000000000000000000006020830152604082019050919050565b6000613090601283613414565b91507f496e76616c69642070726f6475637420494400000000000000000000000000006000830152602082019050919050565b60006130d0602283613414565b91507f4f6e6c79206f776e65722063616e20706572666f726d2074686973206163746960008301527f6f6e0000000000000000000000000000000000000000000000000000000000006020830152604082019050919050565b6131328161354b565b82525050565b6131418161354b565b82525050565b600060208201905061315c6000830184612e51565b92915050565b600060c0820190506131776000830184612e60565b92915050565b600060208201905081810360008301526131978184612eb7565b905092915050565b600060208201905081810360008301526131b98184612f24565b905092915050565b600060608201905081810360008301526131db8186612f24565b90506131ea6020830185612e51565b81810360408301526131fc8184612f24565b9050949350505050565b600060a08201905081810360008301526132208188612f24565b905081810360208301526132348187612f24565b90506132436040830186613138565b6132506060830185612f15565b61325d6080830184612e51565b9695505050505050565b6000602082019050818103600083015261328081612f5d565b9050919050565b600060208201905081810360008301526132a081612f9d565b9050919050565b600060208201905081810360008301526132c081612fdd565b9050919050565b600060208201905081810360008301526132e08161301d565b9050919050565b6000602082019050818103600083015261330081613083565b9050919050565b60006020820190508181036000830152613320816130c3565b9050919050565b600060208201905061333c6000830184613138565b92915050565b6000604051905081810181811067ffffffffffffffff82111715613369576133686136e0565b5b8060405250919050565b600067ffffffffffffffff82111561338e5761338d6136e0565b5b601f19601f8301169050602081019050919050565b6000819050919050565b6000819050602082019050919050565b600060069050919050565b600081519050919050565b600081519050919050565b6000602082019050919050565b6000602082019050919050565b600081905092915050565b600082825260208201905092915050565b600082825260208201905092915050565b60006134308261354b565b915061343b8361354b565b9250827fffffffffffffffffffffffffffffffffffffffffffffffffffffffffffffffff038211156134705761346f613624565b5b828201905092915050565b60006134868261354b565b91506134918361354b565b9250826134a1576134a0613653565b5b828204905092915050565b60006134b78261354b565b91506134c28361354b565b9250817fffffffffffffffffffffffffffffffffffffffffffffffffffffffffffffffff04831182151516156134fb576134fa613624565b5b828202905092915050565b60006135118261352b565b9050919050565b600081905061352682613720565b919050565b600073ffffffffffffffffffffffffffffffffffffffff82169050919050565b6000819050919050565b600061356082613518565b9050919050565b82818337600083830152505050565b60005b83811015613594578082015181840152602081019050613579565b838111156135a3576000848401525b50505050565b600060028204905060018216806135c157607f821691505b602082108114156135d5576135d46136b1565b5b50919050565b60006135e68261354b565b91507fffffffffffffffffffffffffffffffffffffffffffffffffffffffffffffffff82141561361957613618613624565b5b600182019050919050565b7f4e487b7100000000000000000000000000000000000000000000000000000000600052601160045260246000fd5b7f4e487b7100000000000000000000000000000000000000000000000000000000600052601260045260246000fd5b7f4e487b7100000000000000000000000000000000000000000000000000000000600052602160045260246000fd5b7f4e487b7100000000000000000000000000000000000000000000000000000000600052602260045260246000fd5b7f4e487b7100000000000000000000000000000000000000000000000000000000600052604160045260246000fd5b6000601f19601f8301169050919050565b6006811061373157613730613682565b5b50565b61373d81613506565b811461374857600080fd5b50565b6137548161354b565b811461375f57600080fd5b5056fea2646970667358221220aa881b85c3af87512be126a63c98c639d1b0f742859905720171febf140a3b9064736f6c63430008000033",
  "immutableReferences": {},
  "source": "// SPDX-License-Identifier: MIT\npragma solidity ^0.8.0;\n\ncontract SupplyChain {\n    enum Stage { RawMaterial, Supplier, Shipper, Distributor, Retailer, Sold }\n\n    struct Company {\n        string name;\n        address companyAddress;\n        string placeOfOperation;\n    }\n\n    struct Product {\n        string name;\n        string description;\n        uint256 price; \n        Stage currentStage;\n        address currentOwner;\n        mapping(Stage => uint256) stagePrices; \n    }\n\n\n    address public owner;\n    uint public productCount = 0;\n    mapping(uint => Product) private productsInternal;\n\n    Company[] public rawMaterialSuppliers;\n    Company[] public suppliers;\n    Company[] public shippers;\n    Company[] public distributors;\n    Company[] public retailers;\n\n    constructor() {\n        owner = msg.sender;\n    }\n\n    modifier onlyOwner() {\n        require(msg.sender == owner, \"Only owner can perform this action\");\n        _;\n    }\n\n    // Add Company Functions\n    function addRawMaterialSupplier(string memory name, address companyAddr, string memory location) public onlyOwner {\n        rawMaterialSuppliers.push(Company(name, companyAddr, location));\n    }\n\n    function addSupplier(string memory name, address companyAddr, string memory location) public onlyOwner {\n        suppliers.push(Company(name, companyAddr, location));\n    }\n\n    function addShipper(string memory name, address companyAddr, string memory location) public onlyOwner {\n        shippers.push(Company(name, companyAddr, location));\n    }\n\n    function addDistributer(string memory name, address companyAddr, string memory location) public onlyOwner {\n        distributors.push(Company(name, companyAddr, location));\n    }\n\n    function addRetailer(string memory name, address companyAddr, string memory location) public onlyOwner {\n        retailers.push(Company(name, companyAddr, location));\n    }\n\n   // Create a new product\n    function createProduct(string memory name, string memory description, uint256 price) public onlyOwner {\n        Product storage newProduct = productsInternal[productCount];\n        newProduct.name = name;\n        newProduct.description = description;\n        newProduct.price = price;\n        newProduct.currentStage = Stage.RawMaterial;\n        newProduct.currentOwner = msg.sender;\n        newProduct.stagePrices[Stage.RawMaterial] = price;\n        productCount++;\n    }\n\n    // Simulate progress through supply chain\n    function advanceStage(uint productId) public onlyOwner {\n        require(productId < productCount, \"Invalid product ID\");\n        Product storage product = productsInternal[productId];\n        require(product.currentStage != Stage.Sold, \"Product already sold\");\n\n        // Increase price by 10%\n        product.price = (product.price * 110) / 100;\n\n        // Advance stage\n        product.currentStage = Stage(uint(product.currentStage) + 1);\n\n        // Save price at new stage\n        product.stagePrices[product.currentStage] = product.price;\n    }\n\n\n    // Purchase item at final stage\n    function purchaseItem(uint productId) public payable {\n        require(productId < productCount, \"Invalid product ID\");\n        Product storage product = productsInternal[productId];\n        require(product.currentStage == Stage.Retailer, \"Product not yet in retail stage\");\n        require(msg.value == product.price, \"Incorrect payment amount\");\n        product.currentStage = Stage.Sold;\n        product.currentOwner = msg.sender;\n    }\n\n    // View product details (for frontend)\n    function viewProduct(uint productId) public view returns (string memory, string memory, uint256, Stage, address) {\n        require(productId < productCount, \"Invalid product ID\");\n        Product storage product = productsInternal[productId];\n        return (product.name, product.description, product.price, product.currentStage, product.currentOwner);\n    }\n\n    // View all stage prices for a product (Margin Tracker)\n    function getStagePrices(uint productId) public view returns (uint256[6] memory) {\n        require(productId < productCount, \"Invalid product ID\");\n        Product storage product = productsInternal[productId];\n\n        uint256[6] memory prices;\n        prices[0] = product.stagePrices[Stage.RawMaterial];\n        prices[1] = product.stagePrices[Stage.Supplier];\n        prices[2] = product.stagePrices[Stage.Shipper];\n        prices[3] = product.stagePrices[Stage.Distributor];\n        prices[4] = product.stagePrices[Stage.Retailer];\n        prices[5] = product.stagePrices[Stage.Sold]; // Should be zero until sold, but safe\n        return prices;\n    }\n\n    // View current stage\n    function viewCurrentStage(uint productId) public view returns (string memory) {\n        require(productId < productCount, \"Invalid product ID\");\n        Stage stage = productsInternal[productId].currentStage;\n        if (stage == Stage.RawMaterial) return \"Raw Material Supplier\";\n        if (stage == Stage.Supplier) return \"Supplier\";\n        if (stage == Stage.Shipper) return \"Shipper\";\n        if (stage == Stage.Distributor) return \"Distributor\";\n        if (stage == Stage.Retailer) return \"Retailer\";\n        if (stage == Stage.Sold) return \"Sold\";\n        return \"Unknown\";\n    }\n\n    function getProductsByOwner(address ownerAddr) public view returns (uint[] memory) {\n        uint count = 0;\n        for (uint i = 0; i < productCount; i++) {\n            if (productsInternal[i].currentOwner == ownerAddr) {\n                count++;\n            }\n        }\n        uint[] memory ownedProductIds = new uint[](count);\n        uint index = 0;\n        for (uint i = 0; i < productCount; i++) {\n            if (productsInternal[i].currentOwner == ownerAddr) {\n                ownedProductIds[index] = i;\n                index++;\n            }\n        }\n        return ownedProductIds;\n    }\n\n    function getTotalActors() public view returns (uint) {\n        return rawMaterialSuppliers.length + suppliers.length + shippers.length + distributors.length + retailers.length;\n    }\n    \n\t    function getPrice(uint256 productId) public view returns (uint256) {\n\t    require(productId < productCount, \"Invalid product ID\");\n\t    Product storage p = productsInternal[productId];\n\n\t    if (msg.sender != owner) {\n\t\trequire(\n\t\t  p.currentStage == Stage.Retailer || p.currentStage == Stage.Sold,\n\t\t  \"Price locked until Retailer stage\"\n\t\t);\n\t    }\n\n\t    return p.price;\n\t}\n}\n\n",
  "sourcePath": "/home/osboxes/Desktop/196DProject/contracts/SupplyChain.sol",
  "compiler": {
    "name": "solc",
    "version": "0.8.0+commit.c7dfd78e.Emscripten.clang"
  },
  "schemaVersion": "3.4.16",
  "updatedAt": "2025-04-28T00:20:49.953Z",
  "networkType": "ethereum",
  "devdoc": {
    "kind": "dev",
    "methods": {},
    "version": 1
  },
  "userdoc": {
    "kind": "user",
    "methods": {},
    "version": 1
  }
}