{
  "contractName": "SupplyChain",
  "abi": [
    {
      "inputs": [],
      "stateMutability": "nonpayable",
      "type": "constructor"
    },
    {
      "inputs": [
        {
          "internalType": "address",
          "name": "",
          "type": "address"
        }
      ],
      "name": "actorLocations",
      "outputs": [
        {
          "internalType": "string",
          "name": "",
          "type": "string"
        }
      ],
      "stateMutability": "view",
      "type": "function",
      "constant": true
    },
    {
      "inputs": [
        {
          "internalType": "address",
          "name": "",
          "type": "address"
        }
      ],
      "name": "actorNames",
      "outputs": [
        {
          "internalType": "string",
          "name": "",
          "type": "string"
        }
      ],
      "stateMutability": "view",
      "type": "function",
      "constant": true
    },
    {
      "inputs": [
        {
          "internalType": "uint256",
          "name": "",
          "type": "uint256"
        }
      ],
      "name": "distributors",
      "outputs": [
        {
          "internalType": "string",
          "name": "name",
          "type": "string"
        },
        {
          "internalType": "address",
          "name": "companyAddress",
          "type": "address"
        },
        {
          "internalType": "string",
          "name": "placeOfOperation",
          "type": "string"
        }
      ],
      "stateMutability": "view",
      "type": "function",
      "constant": true
    },
    {
      "inputs": [
        {
          "internalType": "address",
          "name": "",
          "type": "address"
        }
      ],
      "name": "isDistributor",
      "outputs": [
        {
          "internalType": "bool",
          "name": "",
          "type": "bool"
        }
      ],
      "stateMutability": "view",
      "type": "function",
      "constant": true
    },
    {
      "inputs": [
        {
          "internalType": "address",
          "name": "",
          "type": "address"
        }
      ],
      "name": "isRawMaterialSupplier",
      "outputs": [
        {
          "internalType": "bool",
          "name": "",
          "type": "bool"
        }
      ],
      "stateMutability": "view",
      "type": "function",
      "constant": true
    },
    {
      "inputs": [
        {
          "internalType": "address",
          "name": "",
          "type": "address"
        }
      ],
      "name": "isRetailer",
      "outputs": [
        {
          "internalType": "bool",
          "name": "",
          "type": "bool"
        }
      ],
      "stateMutability": "view",
      "type": "function",
      "constant": true
    },
    {
      "inputs": [
        {
          "internalType": "address",
          "name": "",
          "type": "address"
        }
      ],
      "name": "isShipper",
      "outputs": [
        {
          "internalType": "bool",
          "name": "",
          "type": "bool"
        }
      ],
      "stateMutability": "view",
      "type": "function",
      "constant": true
    },
    {
      "inputs": [
        {
          "internalType": "address",
          "name": "",
          "type": "address"
        }
      ],
      "name": "isSupplier",
      "outputs": [
        {
          "internalType": "bool",
          "name": "",
          "type": "bool"
        }
      ],
      "stateMutability": "view",
      "type": "function",
      "constant": true
    },
    {
      "inputs": [],
      "name": "owner",
      "outputs": [
        {
          "internalType": "address",
          "name": "",
          "type": "address"
        }
      ],
      "stateMutability": "view",
      "type": "function",
      "constant": true
    },
    {
      "inputs": [],
      "name": "productCount",
      "outputs": [
        {
          "internalType": "uint256",
          "name": "",
          "type": "uint256"
        }
      ],
      "stateMutability": "view",
      "type": "function",
      "constant": true
    },
    {
      "inputs": [
        {
          "internalType": "uint256",
          "name": "",
          "type": "uint256"
        }
      ],
      "name": "rawMaterialSuppliers",
      "outputs": [
        {
          "internalType": "string",
          "name": "name",
          "type": "string"
        },
        {
          "internalType": "address",
          "name": "companyAddress",
          "type": "address"
        },
        {
          "internalType": "string",
          "name": "placeOfOperation",
          "type": "string"
        }
      ],
      "stateMutability": "view",
      "type": "function",
      "constant": true
    },
    {
      "inputs": [
        {
          "internalType": "uint256",
          "name": "",
          "type": "uint256"
        }
      ],
      "name": "retailers",
      "outputs": [
        {
          "internalType": "string",
          "name": "name",
          "type": "string"
        },
        {
          "internalType": "address",
          "name": "companyAddress",
          "type": "address"
        },
        {
          "internalType": "string",
          "name": "placeOfOperation",
          "type": "string"
        }
      ],
      "stateMutability": "view",
      "type": "function",
      "constant": true
    },
    {
      "inputs": [
        {
          "internalType": "uint256",
          "name": "",
          "type": "uint256"
        }
      ],
      "name": "shippers",
      "outputs": [
        {
          "internalType": "string",
          "name": "name",
          "type": "string"
        },
        {
          "internalType": "address",
          "name": "companyAddress",
          "type": "address"
        },
        {
          "internalType": "string",
          "name": "placeOfOperation",
          "type": "string"
        }
      ],
      "stateMutability": "view",
      "type": "function",
      "constant": true
    },
    {
      "inputs": [
        {
          "internalType": "uint256",
          "name": "",
          "type": "uint256"
        }
      ],
      "name": "suppliers",
      "outputs": [
        {
          "internalType": "string",
          "name": "name",
          "type": "string"
        },
        {
          "internalType": "address",
          "name": "companyAddress",
          "type": "address"
        },
        {
          "internalType": "string",
          "name": "placeOfOperation",
          "type": "string"
        }
      ],
      "stateMutability": "view",
      "type": "function",
      "constant": true
    },
    {
      "inputs": [
        {
          "internalType": "string",
          "name": "name",
          "type": "string"
        },
        {
          "internalType": "address",
          "name": "companyAddr",
          "type": "address"
        },
        {
          "internalType": "string",
          "name": "location",
          "type": "string"
        }
      ],
      "name": "addRawMaterialSupplier",
      "outputs": [],
      "stateMutability": "nonpayable",
      "type": "function"
    },
    {
      "inputs": [
        {
          "internalType": "string",
          "name": "name",
          "type": "string"
        },
        {
          "internalType": "address",
          "name": "companyAddr",
          "type": "address"
        },
        {
          "internalType": "string",
          "name": "location",
          "type": "string"
        }
      ],
      "name": "addSupplier",
      "outputs": [],
      "stateMutability": "nonpayable",
      "type": "function"
    },
    {
      "inputs": [
        {
          "internalType": "string",
          "name": "name",
          "type": "string"
        },
        {
          "internalType": "address",
          "name": "companyAddr",
          "type": "address"
        },
        {
          "internalType": "string",
          "name": "location",
          "type": "string"
        }
      ],
      "name": "addShipper",
      "outputs": [],
      "stateMutability": "nonpayable",
      "type": "function"
    },
    {
      "inputs": [
        {
          "internalType": "string",
          "name": "name",
          "type": "string"
        },
        {
          "internalType": "address",
          "name": "companyAddr",
          "type": "address"
        },
        {
          "internalType": "string",
          "name": "location",
          "type": "string"
        }
      ],
      "name": "addDistributer",
      "outputs": [],
      "stateMutability": "nonpayable",
      "type": "function"
    },
    {
      "inputs": [
        {
          "internalType": "string",
          "name": "name",
          "type": "string"
        },
        {
          "internalType": "address",
          "name": "companyAddr",
          "type": "address"
        },
        {
          "internalType": "string",
          "name": "location",
          "type": "string"
        }
      ],
      "name": "addRetailer",
      "outputs": [],
      "stateMutability": "nonpayable",
      "type": "function"
    },
    {
      "inputs": [
        {
          "internalType": "string",
          "name": "name",
          "type": "string"
        },
        {
          "internalType": "string",
          "name": "description",
          "type": "string"
        },
        {
          "internalType": "uint256",
          "name": "price",
          "type": "uint256"
        },
        {
          "internalType": "address",
          "name": "rawSupplierAddr",
          "type": "address"
        },
        {
          "internalType": "address",
          "name": "supplierAddr",
          "type": "address"
        }
      ],
      "name": "createProduct",
      "outputs": [],
      "stateMutability": "nonpayable",
      "type": "function"
    },
    {
      "inputs": [
        {
          "internalType": "uint256",
          "name": "productId",
          "type": "uint256"
        },
        {
          "internalType": "address",
          "name": "actorAddr",
          "type": "address"
        }
      ],
      "name": "advanceStage",
      "outputs": [],
      "stateMutability": "nonpayable",
      "type": "function"
    },
    {
      "inputs": [
        {
          "internalType": "uint256",
          "name": "productId",
          "type": "uint256"
        }
      ],
      "name": "purchaseItem",
      "outputs": [],
      "stateMutability": "payable",
      "type": "function",
      "payable": true
    },
    {
      "inputs": [
        {
          "internalType": "uint256",
          "name": "productId",
          "type": "uint256"
        }
      ],
      "name": "viewProduct",
      "outputs": [
        {
          "internalType": "string",
          "name": "",
          "type": "string"
        },
        {
          "internalType": "string",
          "name": "",
          "type": "string"
        },
        {
          "internalType": "uint256",
          "name": "",
          "type": "uint256"
        },
        {
          "internalType": "enum SupplyChain.Stage",
          "name": "",
          "type": "uint8"
        },
        {
          "internalType": "address",
          "name": "",
          "type": "address"
        },
        {
          "internalType": "address",
          "name": "",
          "type": "address"
        }
      ],
      "stateMutability": "view",
      "type": "function",
      "constant": true
    },
    {
      "inputs": [
        {
          "internalType": "uint256",
          "name": "productId",
          "type": "uint256"
        }
      ],
      "name": "getStagePrices",
      "outputs": [
        {
          "internalType": "uint256[6]",
          "name": "",
          "type": "uint256[6]"
        }
      ],
      "stateMutability": "view",
      "type": "function",
      "constant": true
    },
    {
      "inputs": [
        {
          "internalType": "uint256",
          "name": "productId",
          "type": "uint256"
        }
      ],
      "name": "viewCurrentStage",
      "outputs": [
        {
          "internalType": "string",
          "name": "",
          "type": "string"
        }
      ],
      "stateMutability": "view",
      "type": "function",
      "constant": true
    },
    {
      "inputs": [
        {
          "internalType": "uint256",
          "name": "productId",
          "type": "uint256"
        }
      ],
      "name": "getActorHistory",
      "outputs": [
        {
          "internalType": "address[]",
          "name": "",
          "type": "address[]"
        }
      ],
      "stateMutability": "view",
      "type": "function",
      "constant": true
    },
    {
      "inputs": [
        {
          "internalType": "address",
          "name": "ownerAddr",
          "type": "address"
        }
      ],
      "name": "getProductsByOwner",
      "outputs": [
        {
          "internalType": "uint256[]",
          "name": "",
          "type": "uint256[]"
        }
      ],
      "stateMutability": "view",
      "type": "function",
      "constant": true
    },
    {
      "inputs": [],
      "name": "getTotalActors",
      "outputs": [
        {
          "internalType": "uint256",
          "name": "",
          "type": "uint256"
        }
      ],
      "stateMutability": "view",
      "type": "function",
      "constant": true
    },
    {
      "inputs": [
        {
          "internalType": "uint256",
          "name": "productId",
          "type": "uint256"
        }
      ],
      "name": "getPrice",
      "outputs": [
        {
          "internalType": "uint256",
          "name": "",
          "type": "uint256"
        }
      ],
      "stateMutability": "view",
      "type": "function",
      "constant": true
    },
    {
      "inputs": [],
      "name": "suppliersLength",
      "outputs": [
        {
          "internalType": "uint256",
          "name": "",
          "type": "uint256"
        }
      ],
      "stateMutability": "view",
      "type": "function",
      "constant": true
    },
    {
      "inputs": [],
      "name": "rawMaterialSuppliersLength",
      "outputs": [
        {
          "internalType": "uint256",
          "name": "",
          "type": "uint256"
        }
      ],
      "stateMutability": "view",
      "type": "function",
      "constant": true
    },
    {
      "inputs": [],
      "name": "shippersLength",
      "outputs": [
        {
          "internalType": "uint256",
          "name": "",
          "type": "uint256"
        }
      ],
      "stateMutability": "view",
      "type": "function",
      "constant": true
    },
    {
      "inputs": [],
      "name": "distributorsLength",
      "outputs": [
        {
          "internalType": "uint256",
          "name": "",
          "type": "uint256"
        }
      ],
      "stateMutability": "view",
      "type": "function",
      "constant": true
    },
    {
      "inputs": [],
      "name": "retailersLength",
      "outputs": [
        {
          "internalType": "uint256",
          "name": "",
          "type": "uint256"
        }
      ],
      "stateMutability": "view",
      "type": "function",
      "constant": true
    }
  ],
  "bytecode": "0x608060405234801561001057600080fd5b50336000806101000a81548173ffffffffffffffffffffffffffffffffffffffff021916908373ffffffffffffffffffffffffffffffffffffffff1602179055506000600181905550614af8806100686000396000f3fe6080604052600436106101f95760003560e01c8063bb8bc5481161010d578063e2cfaf55116100a0578063eafd4bbd1161006f578063eafd4bbd146107c8578063f66967b71461080a578063faf31e0814610847578063fd30b61d14610884578063fe5dbc12146108ad576101f9565b8063e2cfaf551461070e578063e3bac5f514610737578063e757223014610762578063e9269ec71461079f576101f9565b8063d60c1d55116100dc578063d60c1d551461063e578063d989a9bd1461067b578063dafc9804146106a6578063e0f6ef87146106e3576101f9565b8063bb8bc5481461058d578063bfa9eb25146105b8578063cea23121146105e3578063d38ea5bf14610622576101f9565b80637c9eff76116101905780638f0c86fa1161015f5780638f0c86fa1461049657806396da85a0146104d3578063a87812f4146104fc578063a8ef341c14610525578063afc60d0214610564576101f9565b80637c9eff76146103c257806389639eb7146103ed578063897ec7df1461042c5780638da5cb5b1461046b576101f9565b806350b492ba116101cc57806350b492ba146102de5780635da09b881461031d57806360777a7a1461035a57806367c2ff7014610385576101f9565b806309b9e95e146101fe5780630fecef4814610227578063280b2b0d1461026457806346336542146102a1575b600080fd5b34801561020a57600080fd5b5061022560048036038101906102209190613c84565b6108ea565b005b34801561023357600080fd5b5061024e60048036038101906102499190613c5b565b610b5c565b60405161025b91906143af565b60405180910390f35b34801561027057600080fd5b5061028b60048036038101906102869190613daa565b610d5e565b60405161029891906143ec565b60405180910390f35b3480156102ad57600080fd5b506102c860048036038101906102c39190613c5b565b611254565b6040516102d591906143d1565b60405180910390f35b3480156102ea57600080fd5b5061030560048036038101906103009190613daa565b611274565b6040516103149392919061440e565b60405180910390f35b34801561032957600080fd5b50610344600480360381019061033f9190613c5b565b6113de565b60405161035191906143d1565b60405180910390f35b34801561036657600080fd5b5061036f6113fe565b60405161037c9190614642565b60405180910390f35b34801561039157600080fd5b506103ac60048036038101906103a79190613c5b565b61140b565b6040516103b991906143ec565b60405180910390f35b3480156103ce57600080fd5b506103d76114ab565b6040516103e49190614642565b60405180910390f35b3480156103f957600080fd5b50610414600480360381019061040f9190613daa565b6114b8565b6040516104239392919061440e565b60405180910390f35b34801561043857600080fd5b50610453600480360381019061044e9190613daa565b611622565b6040516104629392919061440e565b60405180910390f35b34801561047757600080fd5b5061048061178c565b60405161048d9190614357565b60405180910390f35b3480156104a257600080fd5b506104bd60048036038101906104b89190613c5b565b6117b0565b6040516104ca91906143d1565b60405180910390f35b3480156104df57600080fd5b506104fa60048036038101906104f59190613c84565b6117d0565b005b34801561050857600080fd5b50610523600480360381019061051e9190613c84565b611a42565b005b34801561053157600080fd5b5061054c60048036038101906105479190613daa565b611cb4565b60405161055b9392919061440e565b60405180910390f35b34801561057057600080fd5b5061058b60048036038101906105869190613c84565b611e1e565b005b34801561059957600080fd5b506105a2612090565b6040516105af9190614642565b60405180910390f35b3480156105c457600080fd5b506105cd61209d565b6040516105da9190614642565b60405180910390f35b3480156105ef57600080fd5b5061060a60048036038101906106059190613daa565b6120ea565b6040516106199392919061440e565b60405180910390f35b61063c60048036038101906106379190613daa565b612254565b005b34801561064a57600080fd5b5061066560048036038101906106609190613c5b565b6124b8565b60405161067291906143d1565b60405180910390f35b34801561068757600080fd5b506106906124d8565b60405161069d9190614642565b60405180910390f35b3480156106b257600080fd5b506106cd60048036038101906106c89190613daa565b6124e5565b6040516106da9190614394565b60405180910390f35b3480156106ef57600080fd5b506106f8612a14565b6040516107059190614642565b60405180910390f35b34801561071a57600080fd5b5061073560048036038101906107309190613c84565b612a1a565b005b34801561074357600080fd5b5061074c612c8c565b6040516107599190614642565b60405180910390f35b34801561076e57600080fd5b5061078960048036038101906107849190613daa565b612c99565b6040516107969190614642565b60405180910390f35b3480156107ab57600080fd5b506107c660048036038101906107c19190613d03565b612ea6565b005b3480156107d457600080fd5b506107ef60048036038101906107ea9190613daa565b613364565b60405161080196959493929190614453565b60405180910390f35b34801561081657600080fd5b50610831600480360381019061082c9190613c5b565b61355f565b60405161083e91906143ec565b60405180910390f35b34801561085357600080fd5b5061086e60048036038101906108699190613c5b565b6135ff565b60405161087b91906143d1565b60405180910390f35b34801561089057600080fd5b506108ab60048036038101906108a69190613dd3565b61361f565b005b3480156108b957600080fd5b506108d460048036038101906108cf9190613daa565b613a1c565b6040516108e19190614372565b60405180910390f35b60008054906101000a900473ffffffffffffffffffffffffffffffffffffffff1673ffffffffffffffffffffffffffffffffffffffff163373ffffffffffffffffffffffffffffffffffffffff1614610978576040517f08c379a000000000000000000000000000000000000000000000000000000000815260040161096f90614622565b60405180910390fd5b600460405180606001604052808581526020018473ffffffffffffffffffffffffffffffffffffffff16815260200183815250908060018154018082558091505060019003906000526020600020906003020160009091909190915060008201518160000190805190602001906109f0929190613b04565b5060208201518160010160006101000a81548173ffffffffffffffffffffffffffffffffffffffff021916908373ffffffffffffffffffffffffffffffffffffffff1602179055506040820151816002019080519060200190610a54929190613b04565b5050506001600960008473ffffffffffffffffffffffffffffffffffffffff1673ffffffffffffffffffffffffffffffffffffffff16815260200190815260200160002060006101000a81548160ff02191690831515021790555082600d60008473ffffffffffffffffffffffffffffffffffffffff1673ffffffffffffffffffffffffffffffffffffffff1681526020019081526020016000209080519060200190610b02929190613b04565b5080600e60008473ffffffffffffffffffffffffffffffffffffffff1673ffffffffffffffffffffffffffffffffffffffff1681526020019081526020016000209080519060200190610b56929190613b04565b50505050565b6060600080600090505b600154811015610bfc578373ffffffffffffffffffffffffffffffffffffffff166002600083815260200190815260200160002060030160019054906101000a900473ffffffffffffffffffffffffffffffffffffffff1673ffffffffffffffffffffffffffffffffffffffff161415610be9578180610be59061493b565b9250505b8080610bf49061493b565b915050610b66565b5060008167ffffffffffffffff811115610c3f577f4e487b7100000000000000000000000000000000000000000000000000000000600052604160045260246000fd5b604051908082528060200260200182016040528015610c6d5781602001602082028036833780820191505090505b509050600080600090505b600154811015610d52578573ffffffffffffffffffffffffffffffffffffffff166002600083815260200190815260200160002060030160019054906101000a900473ffffffffffffffffffffffffffffffffffffffff1673ffffffffffffffffffffffffffffffffffffffff161415610d3f5780838380610cf99061493b565b945081518110610d32577f4e487b7100000000000000000000000000000000000000000000000000000000600052603260045260246000fd5b6020026020010181815250505b8080610d4a9061493b565b915050610c78565b50819350505050919050565b60606001548210610da4576040517f08c379a0000000000000000000000000000000000000000000000000000000008152600401610d9b906145c2565b60405180910390fd5b60006002600084815260200190815260200160002060030160009054906101000a900460ff16905060006005811115610e06577f4e487b7100000000000000000000000000000000000000000000000000000000600052602160045260246000fd5b816005811115610e3f577f4e487b7100000000000000000000000000000000000000000000000000000000600052602160045260246000fd5b1415610e83576040518060400160405280601581526020017f526177204d6174657269616c20537570706c696572000000000000000000000081525091505061124f565b60016005811115610ebd577f4e487b7100000000000000000000000000000000000000000000000000000000600052602160045260246000fd5b816005811115610ef6577f4e487b7100000000000000000000000000000000000000000000000000000000600052602160045260246000fd5b1415610f3a576040518060400160405280600881526020017f537570706c69657200000000000000000000000000000000000000000000000081525091505061124f565b60026005811115610f74577f4e487b7100000000000000000000000000000000000000000000000000000000600052602160045260246000fd5b816005811115610fad577f4e487b7100000000000000000000000000000000000000000000000000000000600052602160045260246000fd5b1415610ff1576040518060400160405280600781526020017f536869707065720000000000000000000000000000000000000000000000000081525091505061124f565b6003600581111561102b577f4e487b7100000000000000000000000000000000000000000000000000000000600052602160045260246000fd5b816005811115611064577f4e487b7100000000000000000000000000000000000000000000000000000000600052602160045260246000fd5b14156110a8576040518060400160405280600b81526020017f4469737472696275746f7200000000000000000000000000000000000000000081525091505061124f565b600460058111156110e2577f4e487b7100000000000000000000000000000000000000000000000000000000600052602160045260246000fd5b81600581111561111b577f4e487b7100000000000000000000000000000000000000000000000000000000600052602160045260246000fd5b141561115f576040518060400160405280600881526020017f52657461696c657200000000000000000000000000000000000000000000000081525091505061124f565b600580811115611198577f4e487b7100000000000000000000000000000000000000000000000000000000600052602160045260246000fd5b8160058111156111d1577f4e487b7100000000000000000000000000000000000000000000000000000000600052602160045260246000fd5b1415611215576040518060400160405280600481526020017f536f6c640000000000000000000000000000000000000000000000000000000081525091505061124f565b6040518060400160405280600781526020017f556e6b6e6f776e000000000000000000000000000000000000000000000000008152509150505b919050565b60096020528060005260406000206000915054906101000a900460ff1681565b6006818154811061128457600080fd5b90600052602060002090600302016000915090508060000180546112a790614909565b80601f01602080910402602001604051908101604052809291908181526020018280546112d390614909565b80156113205780601f106112f557610100808354040283529160200191611320565b820191906000526020600020905b81548152906001019060200180831161130357829003601f168201915b5050505050908060010160009054906101000a900473ffffffffffffffffffffffffffffffffffffffff169080600201805461135b90614909565b80601f016020809104026020016040519081016040528092919081815260200182805461138790614909565b80156113d45780601f106113a9576101008083540402835291602001916113d4565b820191906000526020600020905b8154815290600101906020018083116113b757829003601f168201915b5050505050905083565b600c6020528060005260406000206000915054906101000a900460ff1681565b6000600580549050905090565b600d602052806000526040600020600091509050805461142a90614909565b80601f016020809104026020016040519081016040528092919081815260200182805461145690614909565b80156114a35780601f10611478576101008083540402835291602001916114a3565b820191906000526020600020905b81548152906001019060200180831161148657829003601f168201915b505050505081565b6000600780549050905090565b600381815481106114c857600080fd5b90600052602060002090600302016000915090508060000180546114eb90614909565b80601f016020809104026020016040519081016040528092919081815260200182805461151790614909565b80156115645780601f1061153957610100808354040283529160200191611564565b820191906000526020600020905b81548152906001019060200180831161154757829003601f168201915b5050505050908060010160009054906101000a900473ffffffffffffffffffffffffffffffffffffffff169080600201805461159f90614909565b80601f01602080910402602001604051908101604052809291908181526020018280546115cb90614909565b80156116185780601f106115ed57610100808354040283529160200191611618565b820191906000526020600020905b8154815290600101906020018083116115fb57829003601f168201915b5050505050905083565b6007818154811061163257600080fd5b906000526020600020906003020160009150905080600001805461165590614909565b80601f016020809104026020016040519081016040528092919081815260200182805461168190614909565b80156116ce5780601f106116a3576101008083540402835291602001916116ce565b820191906000526020600020905b8154815290600101906020018083116116b157829003601f168201915b5050505050908060010160009054906101000a900473ffffffffffffffffffffffffffffffffffffffff169080600201805461170990614909565b80601f016020809104026020016040519081016040528092919081815260200182805461173590614909565b80156117825780601f1061175757610100808354040283529160200191611782565b820191906000526020600020905b81548152906001019060200180831161176557829003601f168201915b5050505050905083565b60008054906101000a900473ffffffffffffffffffffffffffffffffffffffff1681565b600b6020528060005260406000206000915054906101000a900460ff1681565b60008054906101000a900473ffffffffffffffffffffffffffffffffffffffff1673ffffffffffffffffffffffffffffffffffffffff163373ffffffffffffffffffffffffffffffffffffffff161461185e576040517f08c379a000000000000000000000000000000000000000000000000000000000815260040161185590614622565b60405180910390fd5b600660405180606001604052808581526020018473ffffffffffffffffffffffffffffffffffffffff16815260200183815250908060018154018082558091505060019003906000526020600020906003020160009091909190915060008201518160000190805190602001906118d6929190613b04565b5060208201518160010160006101000a81548173ffffffffffffffffffffffffffffffffffffffff021916908373ffffffffffffffffffffffffffffffffffffffff160217905550604082015181600201908051906020019061193a929190613b04565b5050506001600b60008473ffffffffffffffffffffffffffffffffffffffff1673ffffffffffffffffffffffffffffffffffffffff16815260200190815260200160002060006101000a81548160ff02191690831515021790555082600d60008473ffffffffffffffffffffffffffffffffffffffff1673ffffffffffffffffffffffffffffffffffffffff16815260200190815260200160002090805190602001906119e8929190613b04565b5080600e60008473ffffffffffffffffffffffffffffffffffffffff1673ffffffffffffffffffffffffffffffffffffffff1681526020019081526020016000209080519060200190611a3c929190613b04565b50505050565b60008054906101000a900473ffffffffffffffffffffffffffffffffffffffff1673ffffffffffffffffffffffffffffffffffffffff163373ffffffffffffffffffffffffffffffffffffffff1614611ad0576040517f08c379a0000000000000000000000000000000000000000000000000000000008152600401611ac790614622565b60405180910390fd5b600760405180606001604052808581526020018473ffffffffffffffffffffffffffffffffffffffff1681526020018381525090806001815401808255809150506001900390600052602060002090600302016000909190919091506000820151816000019080519060200190611b48929190613b04565b5060208201518160010160006101000a81548173ffffffffffffffffffffffffffffffffffffffff021916908373ffffffffffffffffffffffffffffffffffffffff1602179055506040820151816002019080519060200190611bac929190613b04565b5050506001600c60008473ffffffffffffffffffffffffffffffffffffffff1673ffffffffffffffffffffffffffffffffffffffff16815260200190815260200160002060006101000a81548160ff02191690831515021790555082600d60008473ffffffffffffffffffffffffffffffffffffffff1673ffffffffffffffffffffffffffffffffffffffff1681526020019081526020016000209080519060200190611c5a929190613b04565b5080600e60008473ffffffffffffffffffffffffffffffffffffffff1673ffffffffffffffffffffffffffffffffffffffff1681526020019081526020016000209080519060200190611cae929190613b04565b50505050565b60058181548110611cc457600080fd5b9060005260206000209060030201600091509050806000018054611ce790614909565b80601f0160208091040260200160405190810160405280929190818152602001828054611d1390614909565b8015611d605780601f10611d3557610100808354040283529160200191611d60565b820191906000526020600020905b815481529060010190602001808311611d4357829003601f168201915b5050505050908060010160009054906101000a900473ffffffffffffffffffffffffffffffffffffffff1690806002018054611d9b90614909565b80601f0160208091040260200160405190810160405280929190818152602001828054611dc790614909565b8015611e145780601f10611de957610100808354040283529160200191611e14565b820191906000526020600020905b815481529060010190602001808311611df757829003601f168201915b5050505050905083565b60008054906101000a900473ffffffffffffffffffffffffffffffffffffffff1673ffffffffffffffffffffffffffffffffffffffff163373ffffffffffffffffffffffffffffffffffffffff1614611eac576040517f08c379a0000000000000000000000000000000000000000000000000000000008152600401611ea390614622565b60405180910390fd5b600560405180606001604052808581526020018473ffffffffffffffffffffffffffffffffffffffff1681526020018381525090806001815401808255809150506001900390600052602060002090600302016000909190919091506000820151816000019080519060200190611f24929190613b04565b5060208201518160010160006101000a81548173ffffffffffffffffffffffffffffffffffffffff021916908373ffffffffffffffffffffffffffffffffffffffff1602179055506040820151816002019080519060200190611f88929190613b04565b5050506001600a60008473ffffffffffffffffffffffffffffffffffffffff1673ffffffffffffffffffffffffffffffffffffffff16815260200190815260200160002060006101000a81548160ff02191690831515021790555082600d60008473ffffffffffffffffffffffffffffffffffffffff1673ffffffffffffffffffffffffffffffffffffffff1681526020019081526020016000209080519060200190612036929190613b04565b5080600e60008473ffffffffffffffffffffffffffffffffffffffff1673ffffffffffffffffffffffffffffffffffffffff168152602001908152602001600020908051906020019061208a929190613b04565b50505050565b6000600380549050905090565b60006007805490506006805490506005805490506004805490506003805490506120c79190614779565b6120d19190614779565b6120db9190614779565b6120e59190614779565b905090565b600481815481106120fa57600080fd5b906000526020600020906003020160009150905080600001805461211d90614909565b80601f016020809104026020016040519081016040528092919081815260200182805461214990614909565b80156121965780601f1061216b57610100808354040283529160200191612196565b820191906000526020600020905b81548152906001019060200180831161217957829003601f168201915b5050505050908060010160009054906101000a900473ffffffffffffffffffffffffffffffffffffffff16908060020180546121d190614909565b80601f01602080910402602001604051908101604052809291908181526020018280546121fd90614909565b801561224a5780601f1061221f5761010080835404028352916020019161224a565b820191906000526020600020905b81548152906001019060200180831161222d57829003601f168201915b5050505050905083565b6001548110612298576040517f08c379a000000000000000000000000000000000000000000000000000000000815260040161228f906145c2565b60405180910390fd5b6000600260008381526020019081526020016000209050600460058111156122e9577f4e487b7100000000000000000000000000000000000000000000000000000000600052602160045260246000fd5b8160030160009054906101000a900460ff166005811115612333577f4e487b7100000000000000000000000000000000000000000000000000000000600052602160045260246000fd5b14612373576040517f08c379a000000000000000000000000000000000000000000000000000000000815260040161236a90614562565b60405180910390fd5b806002015434146123b9576040517f08c379a00000000000000000000000000000000000000000000000000000000081526004016123b090614522565b60405180910390fd5b60058160030160006101000a81548160ff02191690836005811115612407577f4e487b7100000000000000000000000000000000000000000000000000000000600052602160045260246000fd5b0217905550338160030160016101000a81548173ffffffffffffffffffffffffffffffffffffffff021916908373ffffffffffffffffffffffffffffffffffffffff16021790555080600501339080600181540180825580915050600190039060005260206000200160009091909190916101000a81548173ffffffffffffffffffffffffffffffffffffffff021916908373ffffffffffffffffffffffffffffffffffffffff1602179055505050565b600a6020528060005260406000206000915054906101000a900460ff1681565b6000600480549050905090565b6124ed613b8a565b6001548210612531576040517f08c379a0000000000000000000000000000000000000000000000000000000008152600401612528906145c2565b60405180910390fd5b6000600260008481526020019081526020016000209050612550613b8a565b81600601600080600581111561258f577f4e487b7100000000000000000000000000000000000000000000000000000000600052602160045260246000fd5b60058111156125c7577f4e487b7100000000000000000000000000000000000000000000000000000000600052602160045260246000fd5b81526020019081526020016000205481600060068110612610577f4e487b7100000000000000000000000000000000000000000000000000000000600052603260045260246000fd5b60200201818152505081600601600060016005811115612659577f4e487b7100000000000000000000000000000000000000000000000000000000600052602160045260246000fd5b6005811115612691577f4e487b7100000000000000000000000000000000000000000000000000000000600052602160045260246000fd5b815260200190815260200160002054816001600681106126da577f4e487b7100000000000000000000000000000000000000000000000000000000600052603260045260246000fd5b60200201818152505081600601600060026005811115612723577f4e487b7100000000000000000000000000000000000000000000000000000000600052602160045260246000fd5b600581111561275b577f4e487b7100000000000000000000000000000000000000000000000000000000600052602160045260246000fd5b815260200190815260200160002054816002600681106127a4577f4e487b7100000000000000000000000000000000000000000000000000000000600052603260045260246000fd5b602002018181525050816006016000600360058111156127ed577f4e487b7100000000000000000000000000000000000000000000000000000000600052602160045260246000fd5b6005811115612825577f4e487b7100000000000000000000000000000000000000000000000000000000600052602160045260246000fd5b8152602001908152602001600020548160036006811061286e577f4e487b7100000000000000000000000000000000000000000000000000000000600052603260045260246000fd5b602002018181525050816006016000600460058111156128b7577f4e487b7100000000000000000000000000000000000000000000000000000000600052602160045260246000fd5b60058111156128ef577f4e487b7100000000000000000000000000000000000000000000000000000000600052602160045260246000fd5b81526020019081526020016000205481600460068110612938577f4e487b7100000000000000000000000000000000000000000000000000000000600052603260045260246000fd5b602002018181525050816006016000600580811115612980577f4e487b7100000000000000000000000000000000000000000000000000000000600052602160045260246000fd5b60058111156129b8577f4e487b7100000000000000000000000000000000000000000000000000000000600052602160045260246000fd5b81526020019081526020016000205481600560068110612a01577f4e487b7100000000000000000000000000000000000000000000000000000000600052603260045260246000fd5b6020020181815250508092505050919050565b60015481565b60008054906101000a900473ffffffffffffffffffffffffffffffffffffffff1673ffffffffffffffffffffffffffffffffffffffff163373ffffffffffffffffffffffffffffffffffffffff1614612aa8576040517f08c379a0000000000000000000000000000000000000000000000000000000008152600401612a9f90614622565b60405180910390fd5b600360405180606001604052808581526020018473ffffffffffffffffffffffffffffffffffffffff1681526020018381525090806001815401808255809150506001900390600052602060002090600302016000909190919091506000820151816000019080519060200190612b20929190613b04565b5060208201518160010160006101000a81548173ffffffffffffffffffffffffffffffffffffffff021916908373ffffffffffffffffffffffffffffffffffffffff1602179055506040820151816002019080519060200190612b84929190613b04565b5050506001600860008473ffffffffffffffffffffffffffffffffffffffff1673ffffffffffffffffffffffffffffffffffffffff16815260200190815260200160002060006101000a81548160ff02191690831515021790555082600d60008473ffffffffffffffffffffffffffffffffffffffff1673ffffffffffffffffffffffffffffffffffffffff1681526020019081526020016000209080519060200190612c32929190613b04565b5080600e60008473ffffffffffffffffffffffffffffffffffffffff1673ffffffffffffffffffffffffffffffffffffffff1681526020019081526020016000209080519060200190612c86929190613b04565b50505050565b6000600680549050905090565b60006001548210612cdf576040517f08c379a0000000000000000000000000000000000000000000000000000000008152600401612cd6906145c2565b60405180910390fd5b600060026000848152602001908152602001600020905060008054906101000a900473ffffffffffffffffffffffffffffffffffffffff1673ffffffffffffffffffffffffffffffffffffffff163373ffffffffffffffffffffffffffffffffffffffff1614612e995760046005811115612d83577f4e487b7100000000000000000000000000000000000000000000000000000000600052602160045260246000fd5b8160030160009054906101000a900460ff166005811115612dcd577f4e487b7100000000000000000000000000000000000000000000000000000000600052602160045260246000fd5b1480612e595750600580811115612e0d577f4e487b7100000000000000000000000000000000000000000000000000000000600052602160045260246000fd5b8160030160009054906101000a900460ff166005811115612e57577f4e487b7100000000000000000000000000000000000000000000000000000000600052602160045260246000fd5b145b612e98576040517f08c379a0000000000000000000000000000000000000000000000000000000008152600401612e8f906145a2565b60405180910390fd5b5b8060020154915050919050565b60008054906101000a900473ffffffffffffffffffffffffffffffffffffffff1673ffffffffffffffffffffffffffffffffffffffff163373ffffffffffffffffffffffffffffffffffffffff1614612f34576040517f08c379a0000000000000000000000000000000000000000000000000000000008152600401612f2b90614622565b60405180910390fd5b600060038054905011612f7c576040517f08c379a0000000000000000000000000000000000000000000000000000000008152600401612f7390614602565b60405180910390fd5b600060048054905011612fc4576040517f08c379a0000000000000000000000000000000000000000000000000000000008152600401612fbb906144c2565b60405180910390fd5b60006005805490501161300c576040517f08c379a000000000000000000000000000000000000000000000000000000000815260040161300390614582565b60405180910390fd5b600060068054905011613054576040517f08c379a000000000000000000000000000000000000000000000000000000000815260040161304b90614502565b60405180910390fd5b60006007805490501161309c576040517f08c379a000000000000000000000000000000000000000000000000000000000815260040161309390614542565b60405180910390fd5b600860008373ffffffffffffffffffffffffffffffffffffffff1673ffffffffffffffffffffffffffffffffffffffff16815260200190815260200160002060009054906101000a900460ff16613128576040517f08c379a000000000000000000000000000000000000000000000000000000000815260040161311f906145e2565b60405180910390fd5b6000600260006001548152602001908152602001600020905085816000019080519060200190613159929190613b04565b5084816001019080519060200190613172929190613b04565b5083816002018190555060008160030160006101000a81548160ff021916908360058111156131ca577f4e487b7100000000000000000000000000000000000000000000000000000000600052602160045260246000fd5b0217905550828160030160016101000a81548173ffffffffffffffffffffffffffffffffffffffff021916908373ffffffffffffffffffffffffffffffffffffffff160217905550818160040160006101000a81548173ffffffffffffffffffffffffffffffffffffffff021916908373ffffffffffffffffffffffffffffffffffffffff16021790555080600501839080600181540180825580915050600190039060005260206000200160009091909190916101000a81548173ffffffffffffffffffffffffffffffffffffffff021916908373ffffffffffffffffffffffffffffffffffffffff160217905550838160060160008060058111156132fa577f4e487b7100000000000000000000000000000000000000000000000000000000600052602160045260246000fd5b6005811115613332577f4e487b7100000000000000000000000000000000000000000000000000000000600052602160045260246000fd5b815260200190815260200160002081905550600160008154809291906133579061493b565b9190505550505050505050565b60608060008060008060015487106133b1576040517f08c379a00000000000000000000000000000000000000000000000000000000081526004016133a8906145c2565b60405180910390fd5b6000600260008981526020019081526020016000209050806000018160010182600201548360030160009054906101000a900460ff168460030160019054906101000a900473ffffffffffffffffffffffffffffffffffffffff168560040160009054906101000a900473ffffffffffffffffffffffffffffffffffffffff1685805461343d90614909565b80601f016020809104026020016040519081016040528092919081815260200182805461346990614909565b80156134b65780601f1061348b576101008083540402835291602001916134b6565b820191906000526020600020905b81548152906001019060200180831161349957829003601f168201915b505050505095508480546134c990614909565b80601f01602080910402602001604051908101604052809291908181526020018280546134f590614909565b80156135425780601f1061351757610100808354040283529160200191613542565b820191906000526020600020905b81548152906001019060200180831161352557829003601f168201915b505050505094509650965096509650965096505091939550919395565b600e602052806000526040600020600091509050805461357e90614909565b80601f01602080910402602001604051908101604052809291908181526020018280546135aa90614909565b80156135f75780601f106135cc576101008083540402835291602001916135f7565b820191906000526020600020905b8154815290600101906020018083116135da57829003601f168201915b505050505081565b60086020528060005260406000206000915054906101000a900460ff1681565b60008054906101000a900473ffffffffffffffffffffffffffffffffffffffff1673ffffffffffffffffffffffffffffffffffffffff163373ffffffffffffffffffffffffffffffffffffffff16146136ad576040517f08c379a00000000000000000000000000000000000000000000000000000000081526004016136a490614622565b60405180910390fd5b60015482106136f1576040517f08c379a00000000000000000000000000000000000000000000000000000000081526004016136e8906145c2565b60405180910390fd5b6000600260008481526020019081526020016000209050600580811115613741577f4e487b7100000000000000000000000000000000000000000000000000000000600052602160045260246000fd5b8160030160009054906101000a900460ff16600581111561378b577f4e487b7100000000000000000000000000000000000000000000000000000000600052602160045260246000fd5b14156137cc576040517f08c379a00000000000000000000000000000000000000000000000000000000081526004016137c3906144e2565b60405180910390fd5b6064606e82600201546137df9190614800565b6137e991906147cf565b816002018190555060018160030160009054906101000a900460ff16600581111561383d577f4e487b7100000000000000000000000000000000000000000000000000000000600052602160045260246000fd5b6138479190614779565b600581111561387f577f4e487b7100000000000000000000000000000000000000000000000000000000600052602160045260246000fd5b8160030160006101000a81548160ff021916908360058111156138cb577f4e487b7100000000000000000000000000000000000000000000000000000000600052602160045260246000fd5b021790555080600201548160060160008360030160009054906101000a900460ff166005811115613925577f4e487b7100000000000000000000000000000000000000000000000000000000600052602160045260246000fd5b600581111561395d577f4e487b7100000000000000000000000000000000000000000000000000000000600052602160045260246000fd5b81526020019081526020016000208190555080600501829080600181540180825580915050600190039060005260206000200160009091909190916101000a81548173ffffffffffffffffffffffffffffffffffffffff021916908373ffffffffffffffffffffffffffffffffffffffff160217905550818160030160016101000a81548173ffffffffffffffffffffffffffffffffffffffff021916908373ffffffffffffffffffffffffffffffffffffffff160217905550505050565b60606001548210613a62576040517f08c379a0000000000000000000000000000000000000000000000000000000008152600401613a59906145c2565b60405180910390fd5b60026000838152602001908152602001600020600501805480602002602001604051908101604052809291908181526020018280548015613af857602002820191906000526020600020905b8160009054906101000a900473ffffffffffffffffffffffffffffffffffffffff1673ffffffffffffffffffffffffffffffffffffffff1681526020019060010190808311613aae575b50505050509050919050565b828054613b1090614909565b90600052602060002090601f016020900481019282613b325760008555613b79565b82601f10613b4b57805160ff1916838001178555613b79565b82800160010185558215613b79579182015b82811115613b78578251825591602001919060010190613b5d565b5b509050613b869190613bac565b5090565b6040518060c00160405280600690602082028036833780820191505090505090565b5b80821115613bc5576000816000905550600101613bad565b5090565b6000613bdc613bd78461468e565b61465d565b905082815260208101848484011115613bf457600080fd5b613bff8482856148c7565b509392505050565b600081359050613c1681614a94565b92915050565b600082601f830112613c2d57600080fd5b8135613c3d848260208601613bc9565b91505092915050565b600081359050613c5581614aab565b92915050565b600060208284031215613c6d57600080fd5b6000613c7b84828501613c07565b91505092915050565b600080600060608486031215613c9957600080fd5b600084013567ffffffffffffffff811115613cb357600080fd5b613cbf86828701613c1c565b9350506020613cd086828701613c07565b925050604084013567ffffffffffffffff811115613ced57600080fd5b613cf986828701613c1c565b9150509250925092565b600080600080600060a08688031215613d1b57600080fd5b600086013567ffffffffffffffff811115613d3557600080fd5b613d4188828901613c1c565b955050602086013567ffffffffffffffff811115613d5e57600080fd5b613d6a88828901613c1c565b9450506040613d7b88828901613c46565b9350506060613d8c88828901613c07565b9250506080613d9d88828901613c07565b9150509295509295909350565b600060208284031215613dbc57600080fd5b6000613dca84828501613c46565b91505092915050565b60008060408385031215613de657600080fd5b6000613df485828601613c46565b9250506020613e0585828601613c07565b9150509250929050565b6000613e1b8383613e3f565b60208301905092915050565b6000613e338383614339565b60208301905092915050565b613e488161485a565b82525050565b613e578161485a565b82525050565b6000613e68826146e8565b613e72818561473b565b9350613e7d836146be565b8060005b83811015613eae578151613e958882613e0f565b9750613ea083614714565b925050600181019050613e81565b5085935050505092915050565b613ec4816146f3565b613ece818461474c565b9250613ed9826146ce565b8060005b83811015613f0a578151613ef18782613e27565b9650613efc83614721565b925050600181019050613edd565b505050505050565b6000613f1d826146fe565b613f278185614757565b9350613f32836146d8565b8060005b83811015613f63578151613f4a8882613e27565b9750613f558361472e565b925050600181019050613f36565b5085935050505092915050565b613f798161486c565b82525050565b613f88816148b5565b82525050565b6000613f9982614709565b613fa38185614768565b9350613fb38185602086016148d6565b613fbc81614a6f565b840191505092915050565b6000613fd4601683614768565b91507f4e6f20737570706c6965722072656769737465726564000000000000000000006000830152602082019050919050565b6000614014601483614768565b91507f50726f6475637420616c726561647920736f6c640000000000000000000000006000830152602082019050919050565b6000614054601983614768565b91507f4e6f206469737472696275746f722072656769737465726564000000000000006000830152602082019050919050565b6000614094601883614768565b91507f496e636f7272656374207061796d656e7420616d6f756e7400000000000000006000830152602082019050919050565b60006140d4601683614768565b91507f4e6f2072657461696c65722072656769737465726564000000000000000000006000830152602082019050919050565b6000614114601f83614768565b91507f50726f64756374206e6f742079657420696e2072657461696c207374616765006000830152602082019050919050565b6000614154601583614768565b91507f4e6f2073686970706572207265676973746572656400000000000000000000006000830152602082019050919050565b6000614194602183614768565b91507f5072696365206c6f636b656420756e74696c2052657461696c6572207374616760008301527f65000000000000000000000000000000000000000000000000000000000000006020830152604082019050919050565b60006141fa601283614768565b91507f496e76616c69642070726f6475637420494400000000000000000000000000006000830152602082019050919050565b600061423a601d83614768565b91507f4e6f74206120726567697374657265642072617720737570706c6965720000006000830152602082019050919050565b600061427a602383614768565b91507f4e6f20726177206d6174657269616c20737570706c696572207265676973746560008301527f72656400000000000000000000000000000000000000000000000000000000006020830152604082019050919050565b60006142e0602283614768565b91507f4f6e6c79206f776e65722063616e20706572666f726d2074686973206163746960008301527f6f6e0000000000000000000000000000000000000000000000000000000000006020830152604082019050919050565b614342816148ab565b82525050565b614351816148ab565b82525050565b600060208201905061436c6000830184613e4e565b92915050565b6000602082019050818103600083015261438c8184613e5d565b905092915050565b600060c0820190506143a96000830184613ebb565b92915050565b600060208201905081810360008301526143c98184613f12565b905092915050565b60006020820190506143e66000830184613f70565b92915050565b600060208201905081810360008301526144068184613f8e565b905092915050565b600060608201905081810360008301526144288186613f8e565b90506144376020830185613e4e565b81810360408301526144498184613f8e565b9050949350505050565b600060c082019050818103600083015261446d8189613f8e565b905081810360208301526144818188613f8e565b90506144906040830187614348565b61449d6060830186613f7f565b6144aa6080830185613e4e565b6144b760a0830184613e4e565b979650505050505050565b600060208201905081810360008301526144db81613fc7565b9050919050565b600060208201905081810360008301526144fb81614007565b9050919050565b6000602082019050818103600083015261451b81614047565b9050919050565b6000602082019050818103600083015261453b81614087565b9050919050565b6000602082019050818103600083015261455b816140c7565b9050919050565b6000602082019050818103600083015261457b81614107565b9050919050565b6000602082019050818103600083015261459b81614147565b9050919050565b600060208201905081810360008301526145bb81614187565b9050919050565b600060208201905081810360008301526145db816141ed565b9050919050565b600060208201905081810360008301526145fb8161422d565b9050919050565b6000602082019050818103600083015261461b8161426d565b9050919050565b6000602082019050818103600083015261463b816142d3565b9050919050565b60006020820190506146576000830184614348565b92915050565b6000604051905081810181811067ffffffffffffffff8211171561468457614683614a40565b5b8060405250919050565b600067ffffffffffffffff8211156146a9576146a8614a40565b5b601f19601f8301169050602081019050919050565b6000819050602082019050919050565b6000819050919050565b6000819050602082019050919050565b600081519050919050565b600060069050919050565b600081519050919050565b600081519050919050565b6000602082019050919050565b6000602082019050919050565b6000602082019050919050565b600082825260208201905092915050565b600081905092915050565b600082825260208201905092915050565b600082825260208201905092915050565b6000614784826148ab565b915061478f836148ab565b9250827fffffffffffffffffffffffffffffffffffffffffffffffffffffffffffffffff038211156147c4576147c3614984565b5b828201905092915050565b60006147da826148ab565b91506147e5836148ab565b9250826147f5576147f46149b3565b5b828204905092915050565b600061480b826148ab565b9150614816836148ab565b9250817fffffffffffffffffffffffffffffffffffffffffffffffffffffffffffffffff048311821515161561484f5761484e614984565b5b828202905092915050565b60006148658261488b565b9050919050565b60008115159050919050565b600081905061488682614a80565b919050565b600073ffffffffffffffffffffffffffffffffffffffff82169050919050565b6000819050919050565b60006148c082614878565b9050919050565b82818337600083830152505050565b60005b838110156148f45780820151818401526020810190506148d9565b83811115614903576000848401525b50505050565b6000600282049050600182168061492157607f821691505b6020821081141561493557614934614a11565b5b50919050565b6000614946826148ab565b91507fffffffffffffffffffffffffffffffffffffffffffffffffffffffffffffffff82141561497957614978614984565b5b600182019050919050565b7f4e487b7100000000000000000000000000000000000000000000000000000000600052601160045260246000fd5b7f4e487b7100000000000000000000000000000000000000000000000000000000600052601260045260246000fd5b7f4e487b7100000000000000000000000000000000000000000000000000000000600052602160045260246000fd5b7f4e487b7100000000000000000000000000000000000000000000000000000000600052602260045260246000fd5b7f4e487b7100000000000000000000000000000000000000000000000000000000600052604160045260246000fd5b6000601f19601f8301169050919050565b60068110614a9157614a906149e2565b5b50565b614a9d8161485a565b8114614aa857600080fd5b50565b614ab4816148ab565b8114614abf57600080fd5b5056fea264697066735822122000e5f86a0ec292086661b1a3cb9ea1c60f3a5be7e0f84f40f50b1c703cccd4c864736f6c63430008000033",
  "immutableReferences": {},
  "source": "\n// SPDX-License-Identifier: MIT\npragma solidity ^0.8.0;\n\ncontract SupplyChain {\n    enum Stage { RawMaterial, Supplier, Shipper, Distributor, Retailer, Sold }\n\n    struct Company {\n        string name;\n        address companyAddress;\n        string placeOfOperation;\n    }\n\n    struct Product {\n        string name;\n        string description;\n        uint256 price;\n        Stage currentStage;\n        address currentOwner;\n        address manufacturer;\n        address[] actorHistory;\n        mapping(Stage => uint256) stagePrices;\n    }\n\n    address public owner;\n    uint public productCount;\n    mapping(uint => Product) private productsInternal;\n\n    Company[] public rawMaterialSuppliers;\n    Company[] public suppliers;\n    Company[] public shippers;\n    Company[] public distributors;\n    Company[] public retailers;\n\n    mapping(address => bool) public isRawMaterialSupplier;\n    mapping(address => bool) public isSupplier;\n    mapping(address => bool) public isShipper;\n    mapping(address => bool) public isDistributor;\n    mapping(address => bool) public isRetailer;\n\n    // New: mapping to store human-readable names for each actor\n    mapping(address => string) public actorNames;\n    mapping(address => string) public actorLocations;\n\n    constructor() {\n        owner = msg.sender;\n        productCount = 0;\n    }\n\n    modifier onlyOwner() {\n        require(msg.sender == owner, \"Only owner can perform this action\");\n        _;\n    }\n\n    modifier allRolesPresent() {\n        require(rawMaterialSuppliers.length > 0, \"No raw material supplier registered\");\n        require(suppliers.length > 0, \"No supplier registered\");\n        require(shippers.length > 0, \"No shipper registered\");\n        require(distributors.length > 0, \"No distributor registered\");\n        require(retailers.length > 0, \"No retailer registered\");\n        _;\n    }\n\n    // Add Company Functions, record names\n    function addRawMaterialSupplier(string memory name, address companyAddr, string memory location) public onlyOwner {\n        rawMaterialSuppliers.push(Company(name, companyAddr, location));\n        isRawMaterialSupplier[companyAddr] = true;\n        actorNames[companyAddr] = name;\n        actorLocations[companyAddr] = location;\n    }\n\n    function addSupplier(string memory name, address companyAddr, string memory location) public onlyOwner {\n        suppliers.push(Company(name, companyAddr, location));\n        isSupplier[companyAddr] = true;\n        actorNames[companyAddr] = name;\n        actorLocations[companyAddr] = location;\n    }\n\n    function addShipper(string memory name, address companyAddr, string memory location) public onlyOwner {\n        shippers.push(Company(name, companyAddr, location));\n        isShipper[companyAddr] = true;\n        actorNames[companyAddr] = name;\n        actorLocations[companyAddr] = location;\n    }\n\n    function addDistributer(string memory name, address companyAddr, string memory location) public onlyOwner {\n        distributors.push(Company(name, companyAddr, location));\n        isDistributor[companyAddr] = true;\n        actorNames[companyAddr] = name;\n        actorLocations[companyAddr] = location;\n    }\n\n    function addRetailer(string memory name, address companyAddr, string memory location) public onlyOwner {\n        retailers.push(Company(name, companyAddr, location));\n        isRetailer[companyAddr] = true;\n        actorNames[companyAddr] = name;\n        actorLocations[companyAddr] = location;\n    }\n\n    /// @notice Only the owner can create a product; only raw supplier is required\n    function createProduct(\n        string memory name,\n        string memory description,\n        uint256 price,\n        address rawSupplierAddr,\n        address supplierAddr\n    ) public onlyOwner allRolesPresent {\n        require(isRawMaterialSupplier[rawSupplierAddr], \"Not a registered raw supplier\");\n        Product storage newProduct = productsInternal[productCount];\n        newProduct.name = name;\n        newProduct.description = description;\n        newProduct.price = price;\n        newProduct.currentStage = Stage.RawMaterial;\n        newProduct.currentOwner = rawSupplierAddr;\n        newProduct.manufacturer = supplierAddr;\n        newProduct.actorHistory.push(rawSupplierAddr);\n        newProduct.stagePrices[Stage.RawMaterial] = price;\n        productCount++;\n    }\n\n    /// @notice Only owner may advance any product\n    function advanceStage(uint productId, address actorAddr) public onlyOwner {\n        require(productId < productCount, \"Invalid product ID\");\n        Product storage product = productsInternal[productId];\n        require(product.currentStage != Stage.Sold, \"Product already sold\");\n\n        // bump price & stage\n        product.price = (product.price * 110) / 100;\n        product.currentStage = Stage(uint(product.currentStage) + 1);\n        product.stagePrices[product.currentStage] = product.price;\n\n        // record the real actor, not msg.sender\n        product.actorHistory.push(actorAddr);\n\n        // optionally update currentOwner so future logic can reference it:\n        product.currentOwner = actorAddr;\n    }\n\n    /// @notice Purchase item; only retailer\n    function purchaseItem(uint productId) public payable {\n        require(productId < productCount, \"Invalid product ID\");\n        Product storage product = productsInternal[productId];\n        require(product.currentStage == Stage.Retailer, \"Product not yet in retail stage\");\n        require(msg.value == product.price, \"Incorrect payment amount\");\n        product.currentStage = Stage.Sold;\n        product.currentOwner = msg.sender;\n        product.actorHistory.push(msg.sender);\n    }\n\n    /// @notice Returns name, description, price, stage, owner, manufacturer\n    function viewProduct(uint productId) public view returns (\n        string memory,\n        string memory,\n        uint256,\n        Stage,\n        address,\n        address\n    ) {\n        require(productId < productCount, \"Invalid product ID\");\n        Product storage product = productsInternal[productId];\n        return (\n            product.name,\n            product.description,\n            product.price,\n            product.currentStage,\n            product.currentOwner,\n            product.manufacturer\n        );\n    }\n\n    function getStagePrices(uint productId) public view returns (uint256[6] memory) {\n        require(productId < productCount, \"Invalid product ID\");\n        Product storage product = productsInternal[productId];\n        uint256[6] memory prices;\n        prices[0] = product.stagePrices[Stage.RawMaterial];\n        prices[1] = product.stagePrices[Stage.Supplier];\n        prices[2] = product.stagePrices[Stage.Shipper];\n        prices[3] = product.stagePrices[Stage.Distributor];\n        prices[4] = product.stagePrices[Stage.Retailer];\n        prices[5] = product.stagePrices[Stage.Sold];\n        return prices;\n    }\n\n    function viewCurrentStage(uint productId) public view returns (string memory) {\n        require(productId < productCount, \"Invalid product ID\");\n        Stage stage = productsInternal[productId].currentStage;\n        if (stage == Stage.RawMaterial) return \"Raw Material Supplier\";\n        if (stage == Stage.Supplier) return \"Supplier\";\n        if (stage == Stage.Shipper) return \"Shipper\";\n        if (stage == Stage.Distributor) return \"Distributor\";\n        if (stage == Stage.Retailer) return \"Retailer\";\n        if (stage == Stage.Sold) return \"Sold\";\n        return \"Unknown\";\n    }\n\n    /// @notice Returns chronological actor-address list\n    function getActorHistory(uint productId) public view returns (address[] memory) {\n        require(productId < productCount, \"Invalid product ID\");\n        return productsInternal[productId].actorHistory;\n    }\n\n    function getProductsByOwner(address ownerAddr) public view returns (uint[] memory) {\n        uint count;\n        for (uint i = 0; i < productCount; i++) {\n            if (productsInternal[i].currentOwner == ownerAddr) count++;\n        }\n        uint[] memory ownedIds = new uint[](count);\n        uint idx;\n        for (uint i = 0; i < productCount; i++) {\n            if (productsInternal[i].currentOwner == ownerAddr) {\n                ownedIds[idx++] = i;\n            }\n        }\n        return ownedIds;\n    }\n\n    function getTotalActors() public view returns (uint) {\n        return rawMaterialSuppliers.length\n             + suppliers.length\n             + shippers.length\n             + distributors.length\n             + retailers.length;\n    }\n\n    /// @notice Price accessor with lockout\n    function getPrice(uint256 productId) public view returns (uint256) {\n        require(productId < productCount, \"Invalid product ID\");\n        Product storage p = productsInternal[productId];\n        if (msg.sender != owner) {\n            require(\n                p.currentStage == Stage.Retailer || p.currentStage == Stage.Sold,\n                \"Price locked until Retailer stage\"\n            );\n        }\n        return p.price;\n    }\n\n    function suppliersLength() public view returns (uint) {\n        return suppliers.length;\n    }\n    function rawMaterialSuppliersLength() public view returns (uint) {\n        return rawMaterialSuppliers.length;\n    }\n    function shippersLength() public view returns (uint) {\n        return shippers.length;\n    }\n    function distributorsLength() public view returns (uint) {\n        return distributors.length;\n    }\n    function retailersLength() public view returns (uint) {\n        return retailers.length;\n    }\n}\n\n\n\n\n\n",
  "sourcePath": "/home/osboxes/Desktop/196DProject/contracts/SupplyChain.sol",
  "compiler": {
    "name": "solc",
    "version": "0.8.0+commit.c7dfd78e.Emscripten.clang"
  },
  "schemaVersion": "3.4.16",
  "updatedAt": "2025-04-28T06:21:34.296Z",
  "networkType": "ethereum",
  "devdoc": {
    "kind": "dev",
    "methods": {},
    "version": 1
  },
  "userdoc": {
    "kind": "user",
    "methods": {
      "advanceStage(uint256,address)": {
        "notice": "Only owner may advance any product"
      },
      "createProduct(string,string,uint256,address,address)": {
        "notice": "Only the owner can create a product; only raw supplier is required"
      },
      "getActorHistory(uint256)": {
        "notice": "Returns chronological actor-address list"
      },
      "getPrice(uint256)": {
        "notice": "Price accessor with lockout"
      },
      "purchaseItem(uint256)": {
        "notice": "Purchase item; only retailer"
      },
      "viewProduct(uint256)": {
        "notice": "Returns name, description, price, stage, owner, manufacturer"
      }
    },
    "version": 1
  }
}