{
  "contractName": "SupplyChain",
  "abi": [
    {
      "inputs": [
        {
          "internalType": "uint256",
          "name": "",
          "type": "uint256"
        }
      ],
      "name": "distributors",
      "outputs": [
        {
          "internalType": "string",
          "name": "name",
          "type": "string"
        },
        {
          "internalType": "address",
          "name": "companyAddress",
          "type": "address"
        },
        {
          "internalType": "string",
          "name": "placeOfOperation",
          "type": "string"
        }
      ],
      "stateMutability": "view",
      "type": "function",
      "constant": true
    },
    {
      "inputs": [],
      "name": "productCount",
      "outputs": [
        {
          "internalType": "uint256",
          "name": "",
          "type": "uint256"
        }
      ],
      "stateMutability": "view",
      "type": "function",
      "constant": true
    },
    {
      "inputs": [
        {
          "internalType": "uint256",
          "name": "",
          "type": "uint256"
        }
      ],
      "name": "products",
      "outputs": [
        {
          "internalType": "string",
          "name": "name",
          "type": "string"
        },
        {
          "internalType": "string",
          "name": "description",
          "type": "string"
        },
        {
          "internalType": "enum SupplyChain.Stage",
          "name": "currentStage",
          "type": "uint8"
        },
        {
          "internalType": "address",
          "name": "currentOwner",
          "type": "address"
        }
      ],
      "stateMutability": "view",
      "type": "function",
      "constant": true
    },
    {
      "inputs": [
        {
          "internalType": "uint256",
          "name": "",
          "type": "uint256"
        }
      ],
      "name": "rawMaterialSuppliers",
      "outputs": [
        {
          "internalType": "string",
          "name": "name",
          "type": "string"
        },
        {
          "internalType": "address",
          "name": "companyAddress",
          "type": "address"
        },
        {
          "internalType": "string",
          "name": "placeOfOperation",
          "type": "string"
        }
      ],
      "stateMutability": "view",
      "type": "function",
      "constant": true
    },
    {
      "inputs": [
        {
          "internalType": "uint256",
          "name": "",
          "type": "uint256"
        }
      ],
      "name": "retailers",
      "outputs": [
        {
          "internalType": "string",
          "name": "name",
          "type": "string"
        },
        {
          "internalType": "address",
          "name": "companyAddress",
          "type": "address"
        },
        {
          "internalType": "string",
          "name": "placeOfOperation",
          "type": "string"
        }
      ],
      "stateMutability": "view",
      "type": "function",
      "constant": true
    },
    {
      "inputs": [
        {
          "internalType": "uint256",
          "name": "",
          "type": "uint256"
        }
      ],
      "name": "shippers",
      "outputs": [
        {
          "internalType": "string",
          "name": "name",
          "type": "string"
        },
        {
          "internalType": "address",
          "name": "companyAddress",
          "type": "address"
        },
        {
          "internalType": "string",
          "name": "placeOfOperation",
          "type": "string"
        }
      ],
      "stateMutability": "view",
      "type": "function",
      "constant": true
    },
    {
      "inputs": [
        {
          "internalType": "uint256",
          "name": "",
          "type": "uint256"
        }
      ],
      "name": "suppliers",
      "outputs": [
        {
          "internalType": "string",
          "name": "name",
          "type": "string"
        },
        {
          "internalType": "address",
          "name": "companyAddress",
          "type": "address"
        },
        {
          "internalType": "string",
          "name": "placeOfOperation",
          "type": "string"
        }
      ],
      "stateMutability": "view",
      "type": "function",
      "constant": true
    },
    {
      "inputs": [
        {
          "internalType": "string",
          "name": "name",
          "type": "string"
        },
        {
          "internalType": "address",
          "name": "companyAddr",
          "type": "address"
        },
        {
          "internalType": "string",
          "name": "location",
          "type": "string"
        }
      ],
      "name": "addRawMaterialSupplier",
      "outputs": [],
      "stateMutability": "nonpayable",
      "type": "function"
    },
    {
      "inputs": [
        {
          "internalType": "string",
          "name": "name",
          "type": "string"
        },
        {
          "internalType": "address",
          "name": "companyAddr",
          "type": "address"
        },
        {
          "internalType": "string",
          "name": "location",
          "type": "string"
        }
      ],
      "name": "addSupplier",
      "outputs": [],
      "stateMutability": "nonpayable",
      "type": "function"
    },
    {
      "inputs": [
        {
          "internalType": "string",
          "name": "name",
          "type": "string"
        },
        {
          "internalType": "address",
          "name": "companyAddr",
          "type": "address"
        },
        {
          "internalType": "string",
          "name": "location",
          "type": "string"
        }
      ],
      "name": "addShipper",
      "outputs": [],
      "stateMutability": "nonpayable",
      "type": "function"
    },
    {
      "inputs": [
        {
          "internalType": "string",
          "name": "name",
          "type": "string"
        },
        {
          "internalType": "address",
          "name": "companyAddr",
          "type": "address"
        },
        {
          "internalType": "string",
          "name": "location",
          "type": "string"
        }
      ],
      "name": "addDistributer",
      "outputs": [],
      "stateMutability": "nonpayable",
      "type": "function"
    },
    {
      "inputs": [
        {
          "internalType": "string",
          "name": "name",
          "type": "string"
        },
        {
          "internalType": "address",
          "name": "companyAddr",
          "type": "address"
        },
        {
          "internalType": "string",
          "name": "location",
          "type": "string"
        }
      ],
      "name": "addRetailer",
      "outputs": [],
      "stateMutability": "nonpayable",
      "type": "function"
    },
    {
      "inputs": [
        {
          "internalType": "string",
          "name": "name",
          "type": "string"
        },
        {
          "internalType": "string",
          "name": "description",
          "type": "string"
        }
      ],
      "name": "createProduct",
      "outputs": [],
      "stateMutability": "nonpayable",
      "type": "function"
    },
    {
      "inputs": [
        {
          "internalType": "uint256",
          "name": "productId",
          "type": "uint256"
        }
      ],
      "name": "advanceStage",
      "outputs": [],
      "stateMutability": "nonpayable",
      "type": "function"
    },
    {
      "inputs": [
        {
          "internalType": "uint256",
          "name": "productId",
          "type": "uint256"
        }
      ],
      "name": "purchaseItem",
      "outputs": [],
      "stateMutability": "nonpayable",
      "type": "function"
    },
    {
      "inputs": [
        {
          "internalType": "uint256",
          "name": "productId",
          "type": "uint256"
        }
      ],
      "name": "viewCurrentStage",
      "outputs": [
        {
          "internalType": "string",
          "name": "",
          "type": "string"
        }
      ],
      "stateMutability": "view",
      "type": "function",
      "constant": true
    }
  ],
  "bytecode": "0x60806040526000805534801561001457600080fd5b5061225d806100246000396000f3fe608060405234801561001057600080fd5b50600436106101005760003560e01c806396da85a011610097578063cea2312111610066578063cea23121146102d8578063d38ea5bf1461030a578063e0f6ef8714610326578063e2cfaf551461034457610100565b806396da85a014610252578063a87812f41461026e578063a8ef341c1461028a578063afc60d02146102bc57610100565b80637acc0b20116100d35780637acc0b201461019f57806387592bce146101d257806389639eb7146101ee578063897ec7df1461022057610100565b806309b9e95e14610105578063280b2b0d146101215780632e534dff1461015157806350b492ba1461016d575b600080fd5b61011f600480360381019061011a9190611bb8565b610360565b005b61013b60048036038101906101369190611ca3565b610444565b6040516101489190611df2565b60405180910390f35b61016b60048036038101906101669190611ca3565b61093a565b005b61018760048036038101906101829190611ca3565b610b3c565b60405161019693929190611e14565b60405180910390f35b6101b960048036038101906101b49190611ca3565b610ca6565b6040516101c99493929190611e59565b60405180910390f35b6101ec60048036038101906101e79190611c37565b610e13565b005b61020860048036038101906102039190611ca3565b610f8c565b60405161021793929190611e14565b60405180910390f35b61023a60048036038101906102359190611ca3565b6110f6565b60405161024993929190611e14565b60405180910390f35b61026c60048036038101906102679190611bb8565b611260565b005b61028860048036038101906102839190611bb8565b611344565b005b6102a4600480360381019061029f9190611ca3565b611428565b6040516102b393929190611e14565b60405180910390f35b6102d660048036038101906102d19190611bb8565b611592565b005b6102f260048036038101906102ed9190611ca3565b611676565b60405161030193929190611e14565b60405180910390f35b610324600480360381019061031f9190611ca3565b6117e0565b005b61032e611999565b60405161033b9190611f0c565b60405180910390f35b61035e60048036038101906103599190611bb8565b61199f565b005b600360405180606001604052808581526020018473ffffffffffffffffffffffffffffffffffffffff16815260200183815250908060018154018082558091505060019003906000526020600020906003020160009091909190915060008201518160000190805190602001906103d8929190611a83565b5060208201518160010160006101000a81548173ffffffffffffffffffffffffffffffffffffffff021916908373ffffffffffffffffffffffffffffffffffffffff160217905550604082015181600201908051906020019061043c929190611a83565b505050505050565b6060600054821061048a576040517f08c379a000000000000000000000000000000000000000000000000000000000815260040161048190611eec565b60405180910390fd5b60006001600084815260200190815260200160002060020160009054906101000a900460ff169050600060058111156104ec577f4e487b7100000000000000000000000000000000000000000000000000000000600052602160045260246000fd5b816005811115610525577f4e487b7100000000000000000000000000000000000000000000000000000000600052602160045260246000fd5b1415610569576040518060400160405280601581526020017f526177204d6174657269616c20537570706c6965720000000000000000000000815250915050610935565b600160058111156105a3577f4e487b7100000000000000000000000000000000000000000000000000000000600052602160045260246000fd5b8160058111156105dc577f4e487b7100000000000000000000000000000000000000000000000000000000600052602160045260246000fd5b1415610620576040518060400160405280600881526020017f537570706c696572000000000000000000000000000000000000000000000000815250915050610935565b6002600581111561065a577f4e487b7100000000000000000000000000000000000000000000000000000000600052602160045260246000fd5b816005811115610693577f4e487b7100000000000000000000000000000000000000000000000000000000600052602160045260246000fd5b14156106d7576040518060400160405280600781526020017f5368697070657200000000000000000000000000000000000000000000000000815250915050610935565b60036005811115610711577f4e487b7100000000000000000000000000000000000000000000000000000000600052602160045260246000fd5b81600581111561074a577f4e487b7100000000000000000000000000000000000000000000000000000000600052602160045260246000fd5b141561078e576040518060400160405280600b81526020017f4469737472696275746f72000000000000000000000000000000000000000000815250915050610935565b600460058111156107c8577f4e487b7100000000000000000000000000000000000000000000000000000000600052602160045260246000fd5b816005811115610801577f4e487b7100000000000000000000000000000000000000000000000000000000600052602160045260246000fd5b1415610845576040518060400160405280600881526020017f52657461696c6572000000000000000000000000000000000000000000000000815250915050610935565b60058081111561087e577f4e487b7100000000000000000000000000000000000000000000000000000000600052602160045260246000fd5b8160058111156108b7577f4e487b7100000000000000000000000000000000000000000000000000000000600052602160045260246000fd5b14156108fb576040518060400160405280600481526020017f536f6c6400000000000000000000000000000000000000000000000000000000815250915050610935565b6040518060400160405280600781526020017f556e6b6e6f776e000000000000000000000000000000000000000000000000008152509150505b919050565b600054811061097e576040517f08c379a000000000000000000000000000000000000000000000000000000000815260040161097590611eec565b60405180910390fd5b60006001600083815260200190815260200160002090506005808111156109ce577f4e487b7100000000000000000000000000000000000000000000000000000000600052602160045260246000fd5b8160020160009054906101000a900460ff166005811115610a18577f4e487b7100000000000000000000000000000000000000000000000000000000600052602160045260246000fd5b1415610a59576040517f08c379a0000000000000000000000000000000000000000000000000000000008152600401610a5090611eac565b60405180910390fd5b60018160020160009054906101000a900460ff166005811115610aa5577f4e487b7100000000000000000000000000000000000000000000000000000000600052602160045260246000fd5b610aaf9190611fa4565b6005811115610ae7577f4e487b7100000000000000000000000000000000000000000000000000000000600052602160045260246000fd5b8160020160006101000a81548160ff02191690836005811115610b33577f4e487b7100000000000000000000000000000000000000000000000000000000600052602160045260246000fd5b02179055505050565b60058181548110610b4c57600080fd5b9060005260206000209060030201600091509050806000018054610b6f9061209d565b80601f0160208091040260200160405190810160405280929190818152602001828054610b9b9061209d565b8015610be85780601f10610bbd57610100808354040283529160200191610be8565b820191906000526020600020905b815481529060010190602001808311610bcb57829003601f168201915b5050505050908060010160009054906101000a900473ffffffffffffffffffffffffffffffffffffffff1690806002018054610c239061209d565b80601f0160208091040260200160405190810160405280929190818152602001828054610c4f9061209d565b8015610c9c5780601f10610c7157610100808354040283529160200191610c9c565b820191906000526020600020905b815481529060010190602001808311610c7f57829003601f168201915b5050505050905083565b6001602052806000526040600020600091509050806000018054610cc99061209d565b80601f0160208091040260200160405190810160405280929190818152602001828054610cf59061209d565b8015610d425780601f10610d1757610100808354040283529160200191610d42565b820191906000526020600020905b815481529060010190602001808311610d2557829003601f168201915b505050505090806001018054610d579061209d565b80601f0160208091040260200160405190810160405280929190818152602001828054610d839061209d565b8015610dd05780601f10610da557610100808354040283529160200191610dd0565b820191906000526020600020905b815481529060010190602001808311610db357829003601f168201915b5050505050908060020160009054906101000a900460ff16908060020160019054906101000a900473ffffffffffffffffffffffffffffffffffffffff16905084565b604051806080016040528083815260200182815260200160006005811115610e64577f4e487b7100000000000000000000000000000000000000000000000000000000600052602160045260246000fd5b81526020013373ffffffffffffffffffffffffffffffffffffffff1681525060016000805481526020019081526020016000206000820151816000019080519060200190610eb3929190611a83565b506020820151816001019080519060200190610ed0929190611a83565b5060408201518160020160006101000a81548160ff02191690836005811115610f22577f4e487b7100000000000000000000000000000000000000000000000000000000600052602160045260246000fd5b021790555060608201518160020160016101000a81548173ffffffffffffffffffffffffffffffffffffffff021916908373ffffffffffffffffffffffffffffffffffffffff160217905550905050600080815480929190610f83906120cf565b91905055505050565b60028181548110610f9c57600080fd5b9060005260206000209060030201600091509050806000018054610fbf9061209d565b80601f0160208091040260200160405190810160405280929190818152602001828054610feb9061209d565b80156110385780601f1061100d57610100808354040283529160200191611038565b820191906000526020600020905b81548152906001019060200180831161101b57829003601f168201915b5050505050908060010160009054906101000a900473ffffffffffffffffffffffffffffffffffffffff16908060020180546110739061209d565b80601f016020809104026020016040519081016040528092919081815260200182805461109f9061209d565b80156110ec5780601f106110c1576101008083540402835291602001916110ec565b820191906000526020600020905b8154815290600101906020018083116110cf57829003601f168201915b5050505050905083565b6006818154811061110657600080fd5b90600052602060002090600302016000915090508060000180546111299061209d565b80601f01602080910402602001604051908101604052809291908181526020018280546111559061209d565b80156111a25780601f10611177576101008083540402835291602001916111a2565b820191906000526020600020905b81548152906001019060200180831161118557829003601f168201915b5050505050908060010160009054906101000a900473ffffffffffffffffffffffffffffffffffffffff16908060020180546111dd9061209d565b80601f01602080910402602001604051908101604052809291908181526020018280546112099061209d565b80156112565780601f1061122b57610100808354040283529160200191611256565b820191906000526020600020905b81548152906001019060200180831161123957829003601f168201915b5050505050905083565b600560405180606001604052808581526020018473ffffffffffffffffffffffffffffffffffffffff16815260200183815250908060018154018082558091505060019003906000526020600020906003020160009091909190915060008201518160000190805190602001906112d8929190611a83565b5060208201518160010160006101000a81548173ffffffffffffffffffffffffffffffffffffffff021916908373ffffffffffffffffffffffffffffffffffffffff160217905550604082015181600201908051906020019061133c929190611a83565b505050505050565b600660405180606001604052808581526020018473ffffffffffffffffffffffffffffffffffffffff16815260200183815250908060018154018082558091505060019003906000526020600020906003020160009091909190915060008201518160000190805190602001906113bc929190611a83565b5060208201518160010160006101000a81548173ffffffffffffffffffffffffffffffffffffffff021916908373ffffffffffffffffffffffffffffffffffffffff1602179055506040820151816002019080519060200190611420929190611a83565b505050505050565b6004818154811061143857600080fd5b906000526020600020906003020160009150905080600001805461145b9061209d565b80601f01602080910402602001604051908101604052809291908181526020018280546114879061209d565b80156114d45780601f106114a9576101008083540402835291602001916114d4565b820191906000526020600020905b8154815290600101906020018083116114b757829003601f168201915b5050505050908060010160009054906101000a900473ffffffffffffffffffffffffffffffffffffffff169080600201805461150f9061209d565b80601f016020809104026020016040519081016040528092919081815260200182805461153b9061209d565b80156115885780601f1061155d57610100808354040283529160200191611588565b820191906000526020600020905b81548152906001019060200180831161156b57829003601f168201915b5050505050905083565b600460405180606001604052808581526020018473ffffffffffffffffffffffffffffffffffffffff168152602001838152509080600181540180825580915050600190039060005260206000209060030201600090919091909150600082015181600001908051906020019061160a929190611a83565b5060208201518160010160006101000a81548173ffffffffffffffffffffffffffffffffffffffff021916908373ffffffffffffffffffffffffffffffffffffffff160217905550604082015181600201908051906020019061166e929190611a83565b505050505050565b6003818154811061168657600080fd5b90600052602060002090600302016000915090508060000180546116a99061209d565b80601f01602080910402602001604051908101604052809291908181526020018280546116d59061209d565b80156117225780601f106116f757610100808354040283529160200191611722565b820191906000526020600020905b81548152906001019060200180831161170557829003601f168201915b5050505050908060010160009054906101000a900473ffffffffffffffffffffffffffffffffffffffff169080600201805461175d9061209d565b80601f01602080910402602001604051908101604052809291908181526020018280546117899061209d565b80156117d65780601f106117ab576101008083540402835291602001916117d6565b820191906000526020600020905b8154815290600101906020018083116117b957829003601f168201915b5050505050905083565b6000548110611824576040517f08c379a000000000000000000000000000000000000000000000000000000000815260040161181b90611eec565b60405180910390fd5b600060016000838152602001908152602001600020905060046005811115611875577f4e487b7100000000000000000000000000000000000000000000000000000000600052602160045260246000fd5b8160020160009054906101000a900460ff1660058111156118bf577f4e487b7100000000000000000000000000000000000000000000000000000000600052602160045260246000fd5b146118ff576040517f08c379a00000000000000000000000000000000000000000000000000000000081526004016118f690611ecc565b60405180910390fd5b60058160020160006101000a81548160ff0219169083600581111561194d577f4e487b7100000000000000000000000000000000000000000000000000000000600052602160045260246000fd5b0217905550338160020160016101000a81548173ffffffffffffffffffffffffffffffffffffffff021916908373ffffffffffffffffffffffffffffffffffffffff1602179055505050565b60005481565b600260405180606001604052808581526020018473ffffffffffffffffffffffffffffffffffffffff1681526020018381525090806001815401808255809150506001900390600052602060002090600302016000909190919091506000820151816000019080519060200190611a17929190611a83565b5060208201518160010160006101000a81548173ffffffffffffffffffffffffffffffffffffffff021916908373ffffffffffffffffffffffffffffffffffffffff1602179055506040820151816002019080519060200190611a7b929190611a83565b505050505050565b828054611a8f9061209d565b90600052602060002090601f016020900481019282611ab15760008555611af8565b82601f10611aca57805160ff1916838001178555611af8565b82800160010185558215611af8579182015b82811115611af7578251825591602001919060010190611adc565b5b509050611b059190611b09565b5090565b5b80821115611b22576000816000905550600101611b0a565b5090565b6000611b39611b3484611f58565b611f27565b905082815260208101848484011115611b5157600080fd5b611b5c84828561205b565b509392505050565b600081359050611b73816121f9565b92915050565b600082601f830112611b8a57600080fd5b8135611b9a848260208601611b26565b91505092915050565b600081359050611bb281612210565b92915050565b600080600060608486031215611bcd57600080fd5b600084013567ffffffffffffffff811115611be757600080fd5b611bf386828701611b79565b9350506020611c0486828701611b64565b925050604084013567ffffffffffffffff811115611c2157600080fd5b611c2d86828701611b79565b9150509250925092565b60008060408385031215611c4a57600080fd5b600083013567ffffffffffffffff811115611c6457600080fd5b611c7085828601611b79565b925050602083013567ffffffffffffffff811115611c8d57600080fd5b611c9985828601611b79565b9150509250929050565b600060208284031215611cb557600080fd5b6000611cc384828501611ba3565b91505092915050565b611cd581611ffa565b82525050565b611ce481612049565b82525050565b6000611cf582611f88565b611cff8185611f93565b9350611d0f81856020860161206a565b611d18816121d4565b840191505092915050565b6000611d30601483611f93565b91507f50726f6475637420616c726561647920736f6c640000000000000000000000006000830152602082019050919050565b6000611d70601f83611f93565b91507f50726f64756374206e6f742079657420696e2072657461696c207374616765006000830152602082019050919050565b6000611db0601283611f93565b91507f496e76616c69642070726f6475637420494400000000000000000000000000006000830152602082019050919050565b611dec8161203f565b82525050565b60006020820190508181036000830152611e0c8184611cea565b905092915050565b60006060820190508181036000830152611e2e8186611cea565b9050611e3d6020830185611ccc565b8181036040830152611e4f8184611cea565b9050949350505050565b60006080820190508181036000830152611e738187611cea565b90508181036020830152611e878186611cea565b9050611e966040830185611cdb565b611ea36060830184611ccc565b95945050505050565b60006020820190508181036000830152611ec581611d23565b9050919050565b60006020820190508181036000830152611ee581611d63565b9050919050565b60006020820190508181036000830152611f0581611da3565b9050919050565b6000602082019050611f216000830184611de3565b92915050565b6000604051905081810181811067ffffffffffffffff82111715611f4e57611f4d6121a5565b5b8060405250919050565b600067ffffffffffffffff821115611f7357611f726121a5565b5b601f19601f8301169050602081019050919050565b600081519050919050565b600082825260208201905092915050565b6000611faf8261203f565b9150611fba8361203f565b9250827fffffffffffffffffffffffffffffffffffffffffffffffffffffffffffffffff03821115611fef57611fee612118565b5b828201905092915050565b60006120058261201f565b9050919050565b600081905061201a826121e5565b919050565b600073ffffffffffffffffffffffffffffffffffffffff82169050919050565b6000819050919050565b60006120548261200c565b9050919050565b82818337600083830152505050565b60005b8381101561208857808201518184015260208101905061206d565b83811115612097576000848401525b50505050565b600060028204905060018216806120b557607f821691505b602082108114156120c9576120c8612176565b5b50919050565b60006120da8261203f565b91507fffffffffffffffffffffffffffffffffffffffffffffffffffffffffffffffff82141561210d5761210c612118565b5b600182019050919050565b7f4e487b7100000000000000000000000000000000000000000000000000000000600052601160045260246000fd5b7f4e487b7100000000000000000000000000000000000000000000000000000000600052602160045260246000fd5b7f4e487b7100000000000000000000000000000000000000000000000000000000600052602260045260246000fd5b7f4e487b7100000000000000000000000000000000000000000000000000000000600052604160045260246000fd5b6000601f19601f8301169050919050565b600681106121f6576121f5612147565b5b50565b61220281611ffa565b811461220d57600080fd5b50565b6122198161203f565b811461222457600080fd5b5056fea26469706673582212205a5029bdc431107e8e19f2a716f1743522c37cedc1588cf54d8b911afe2f28f764736f6c63430008000033",
  "immutableReferences": {},
  "source": "// SPDX-License-Identifier: MIT\npragma solidity ^0.8.0;\n\ncontract SupplyChain {\n    enum Stage { RawMaterial, Supplier, Shipper, Distributor, Retailer, Sold }\n\n    struct Company {\n        string name;\n        address companyAddress;\n        string placeOfOperation;\n    }\n\n    struct Product {\n        string name;\n        string description;\n        Stage currentStage;\n        address currentOwner;\n    }\n\n    uint public productCount = 0;\n    mapping(uint => Product) public products;\n\n    Company[] public rawMaterialSuppliers;\n    Company[] public suppliers;\n    Company[] public shippers;\n    Company[] public distributors;\n    Company[] public retailers;\n\n    // Add Company Functions\n    function addRawMaterialSupplier(string memory name, address companyAddr, string memory location) public {\n        rawMaterialSuppliers.push(Company(name, companyAddr, location));\n    }\n\n    function addSupplier(string memory name, address companyAddr, string memory location) public {\n        suppliers.push(Company(name, companyAddr, location));\n    }\n\n    function addShipper(string memory name, address companyAddr, string memory location) public {\n        shippers.push(Company(name, companyAddr, location));\n    }\n\n    function addDistributer(string memory name, address companyAddr, string memory location) public {\n        distributors.push(Company(name, companyAddr, location));\n    }\n\n    function addRetailer(string memory name, address companyAddr, string memory location) public {\n        retailers.push(Company(name, companyAddr, location));\n    }\n\n    // Create a new product\n    function createProduct(string memory name, string memory description) public {\n        products[productCount] = Product(name, description, Stage.RawMaterial, msg.sender);\n        productCount++;\n    }\n\n    // Simulate progress through supply chain\n    function advanceStage(uint productId) public {\n        require(productId < productCount, \"Invalid product ID\");\n        Product storage product = products[productId];\n        require(product.currentStage != Stage.Sold, \"Product already sold\");\n        product.currentStage = Stage(uint(product.currentStage) + 1);\n    }\n\n    // Purchase item at final stage\n    function purchaseItem(uint productId) public {\n        require(productId < productCount, \"Invalid product ID\");\n        Product storage product = products[productId];\n        require(product.currentStage == Stage.Retailer, \"Product not yet in retail stage\");\n        product.currentStage = Stage.Sold;\n        product.currentOwner = msg.sender;\n    }\n\n    // View current stage\n    function viewCurrentStage(uint productId) public view returns (string memory) {\n        require(productId < productCount, \"Invalid product ID\");\n        Stage stage = products[productId].currentStage;\n        if (stage == Stage.RawMaterial) return \"Raw Material Supplier\";\n        if (stage == Stage.Supplier) return \"Supplier\";\n        if (stage == Stage.Shipper) return \"Shipper\";\n        if (stage == Stage.Distributor) return \"Distributor\";\n        if (stage == Stage.Retailer) return \"Retailer\";\n        if (stage == Stage.Sold) return \"Sold\";\n        return \"Unknown\";\n    }\n}\n\n",
  "sourcePath": "/home/osboxes/Desktop/196DProject/contracts/SupplyChain.sol",
  "compiler": {
    "name": "solc",
    "version": "0.8.0+commit.c7dfd78e.Emscripten.clang"
  },
  "schemaVersion": "3.4.16",
  "updatedAt": "2025-04-23T05:25:09.552Z",
  "networkType": "ethereum",
  "devdoc": {
    "kind": "dev",
    "methods": {},
    "version": 1
  },
  "userdoc": {
    "kind": "user",
    "methods": {},
    "version": 1
  }
}