{
  "contractName": "SupplyChain",
  "abi": [
    {
      "inputs": [
        {
          "internalType": "uint256",
          "name": "",
          "type": "uint256"
        }
      ],
      "name": "distributors",
      "outputs": [
        {
          "internalType": "string",
          "name": "name",
          "type": "string"
        },
        {
          "internalType": "address",
          "name": "companyAddress",
          "type": "address"
        },
        {
          "internalType": "string",
          "name": "placeOfOperation",
          "type": "string"
        }
      ],
      "stateMutability": "view",
      "type": "function",
      "constant": true
    },
    {
      "inputs": [],
      "name": "productCount",
      "outputs": [
        {
          "internalType": "uint256",
          "name": "",
          "type": "uint256"
        }
      ],
      "stateMutability": "view",
      "type": "function",
      "constant": true
    },
    {
      "inputs": [
        {
          "internalType": "uint256",
          "name": "",
          "type": "uint256"
        }
      ],
      "name": "products",
      "outputs": [
        {
          "internalType": "string",
          "name": "name",
          "type": "string"
        },
        {
          "internalType": "string",
          "name": "description",
          "type": "string"
        },
        {
          "internalType": "enum SupplyChain.Stage",
          "name": "currentStage",
          "type": "uint8"
        },
        {
          "internalType": "address",
          "name": "currentOwner",
          "type": "address"
        }
      ],
      "stateMutability": "view",
      "type": "function",
      "constant": true
    },
    {
      "inputs": [
        {
          "internalType": "uint256",
          "name": "",
          "type": "uint256"
        }
      ],
      "name": "rawMaterialSuppliers",
      "outputs": [
        {
          "internalType": "string",
          "name": "name",
          "type": "string"
        },
        {
          "internalType": "address",
          "name": "companyAddress",
          "type": "address"
        },
        {
          "internalType": "string",
          "name": "placeOfOperation",
          "type": "string"
        }
      ],
      "stateMutability": "view",
      "type": "function",
      "constant": true
    },
    {
      "inputs": [
        {
          "internalType": "uint256",
          "name": "",
          "type": "uint256"
        }
      ],
      "name": "retailers",
      "outputs": [
        {
          "internalType": "string",
          "name": "name",
          "type": "string"
        },
        {
          "internalType": "address",
          "name": "companyAddress",
          "type": "address"
        },
        {
          "internalType": "string",
          "name": "placeOfOperation",
          "type": "string"
        }
      ],
      "stateMutability": "view",
      "type": "function",
      "constant": true
    },
    {
      "inputs": [
        {
          "internalType": "uint256",
          "name": "",
          "type": "uint256"
        }
      ],
      "name": "shippers",
      "outputs": [
        {
          "internalType": "string",
          "name": "name",
          "type": "string"
        },
        {
          "internalType": "address",
          "name": "companyAddress",
          "type": "address"
        },
        {
          "internalType": "string",
          "name": "placeOfOperation",
          "type": "string"
        }
      ],
      "stateMutability": "view",
      "type": "function",
      "constant": true
    },
    {
      "inputs": [
        {
          "internalType": "uint256",
          "name": "",
          "type": "uint256"
        }
      ],
      "name": "suppliers",
      "outputs": [
        {
          "internalType": "string",
          "name": "name",
          "type": "string"
        },
        {
          "internalType": "address",
          "name": "companyAddress",
          "type": "address"
        },
        {
          "internalType": "string",
          "name": "placeOfOperation",
          "type": "string"
        }
      ],
      "stateMutability": "view",
      "type": "function",
      "constant": true
    },
    {
      "inputs": [
        {
          "internalType": "string",
          "name": "name",
          "type": "string"
        },
        {
          "internalType": "address",
          "name": "companyAddr",
          "type": "address"
        },
        {
          "internalType": "string",
          "name": "location",
          "type": "string"
        }
      ],
      "name": "addRawMaterialSupplier",
      "outputs": [],
      "stateMutability": "nonpayable",
      "type": "function"
    },
    {
      "inputs": [
        {
          "internalType": "string",
          "name": "name",
          "type": "string"
        },
        {
          "internalType": "address",
          "name": "companyAddr",
          "type": "address"
        },
        {
          "internalType": "string",
          "name": "location",
          "type": "string"
        }
      ],
      "name": "addSupplier",
      "outputs": [],
      "stateMutability": "nonpayable",
      "type": "function"
    },
    {
      "inputs": [
        {
          "internalType": "string",
          "name": "name",
          "type": "string"
        },
        {
          "internalType": "address",
          "name": "companyAddr",
          "type": "address"
        },
        {
          "internalType": "string",
          "name": "location",
          "type": "string"
        }
      ],
      "name": "addShipper",
      "outputs": [],
      "stateMutability": "nonpayable",
      "type": "function"
    },
    {
      "inputs": [
        {
          "internalType": "string",
          "name": "name",
          "type": "string"
        },
        {
          "internalType": "address",
          "name": "companyAddr",
          "type": "address"
        },
        {
          "internalType": "string",
          "name": "location",
          "type": "string"
        }
      ],
      "name": "addDistributer",
      "outputs": [],
      "stateMutability": "nonpayable",
      "type": "function"
    },
    {
      "inputs": [
        {
          "internalType": "string",
          "name": "name",
          "type": "string"
        },
        {
          "internalType": "address",
          "name": "companyAddr",
          "type": "address"
        },
        {
          "internalType": "string",
          "name": "location",
          "type": "string"
        }
      ],
      "name": "addRetailer",
      "outputs": [],
      "stateMutability": "nonpayable",
      "type": "function"
    },
    {
      "inputs": [
        {
          "internalType": "string",
          "name": "name",
          "type": "string"
        },
        {
          "internalType": "string",
          "name": "description",
          "type": "string"
        }
      ],
      "name": "createProduct",
      "outputs": [],
      "stateMutability": "nonpayable",
      "type": "function"
    },
    {
      "inputs": [
        {
          "internalType": "uint256",
          "name": "productId",
          "type": "uint256"
        }
      ],
      "name": "advanceStage",
      "outputs": [],
      "stateMutability": "nonpayable",
      "type": "function"
    },
    {
      "inputs": [
        {
          "internalType": "uint256",
          "name": "productId",
          "type": "uint256"
        }
      ],
      "name": "purchaseItem",
      "outputs": [],
      "stateMutability": "nonpayable",
      "type": "function"
    },
    {
      "inputs": [
        {
          "internalType": "uint256",
          "name": "productId",
          "type": "uint256"
        }
      ],
      "name": "viewCurrentStage",
      "outputs": [
        {
          "internalType": "string",
          "name": "",
          "type": "string"
        }
      ],
      "stateMutability": "view",
      "type": "function",
      "constant": true
    },
    {
      "inputs": [],
      "name": "getTotalActors",
      "outputs": [
        {
          "internalType": "uint256",
          "name": "",
          "type": "uint256"
        }
      ],
      "stateMutability": "view",
      "type": "function",
      "constant": true
    }
  ],
  "bytecode": "0x60806040526000805534801561001457600080fd5b506122d3806100246000396000f3fe608060405234801561001057600080fd5b506004361061010b5760003560e01c806396da85a0116100a2578063bfa9eb2511610071578063bfa9eb25146102e3578063cea2312114610301578063d38ea5bf14610333578063e0f6ef871461034f578063e2cfaf551461036d5761010b565b806396da85a01461025d578063a87812f414610279578063a8ef341c14610295578063afc60d02146102c75761010b565b80637acc0b20116100de5780637acc0b20146101aa57806387592bce146101dd57806389639eb7146101f9578063897ec7df1461022b5761010b565b806309b9e95e14610110578063280b2b0d1461012c5780632e534dff1461015c57806350b492ba14610178575b600080fd5b61012a60048036038101906101259190611c2e565b610389565b005b61014660048036038101906101419190611d19565b61046d565b6040516101539190611e68565b60405180910390f35b61017660048036038101906101719190611d19565b610963565b005b610192600480360381019061018d9190611d19565b610b65565b6040516101a193929190611e8a565b60405180910390f35b6101c460048036038101906101bf9190611d19565b610ccf565b6040516101d49493929190611ecf565b60405180910390f35b6101f760048036038101906101f29190611cad565b610e3c565b005b610213600480360381019061020e9190611d19565b610fb5565b60405161022293929190611e8a565b60405180910390f35b61024560048036038101906102409190611d19565b61111f565b60405161025493929190611e8a565b60405180910390f35b61027760048036038101906102729190611c2e565b611289565b005b610293600480360381019061028e9190611c2e565b61136d565b005b6102af60048036038101906102aa9190611d19565b611451565b6040516102be93929190611e8a565b60405180910390f35b6102e160048036038101906102dc9190611c2e565b6115bb565b005b6102eb61169f565b6040516102f89190611f82565b60405180910390f35b61031b60048036038101906103169190611d19565b6116ec565b60405161032a93929190611e8a565b60405180910390f35b61034d60048036038101906103489190611d19565b611856565b005b610357611a0f565b6040516103649190611f82565b60405180910390f35b61038760048036038101906103829190611c2e565b611a15565b005b600360405180606001604052808581526020018473ffffffffffffffffffffffffffffffffffffffff1681526020018381525090806001815401808255809150506001900390600052602060002090600302016000909190919091506000820151816000019080519060200190610401929190611af9565b5060208201518160010160006101000a81548173ffffffffffffffffffffffffffffffffffffffff021916908373ffffffffffffffffffffffffffffffffffffffff1602179055506040820151816002019080519060200190610465929190611af9565b505050505050565b606060005482106104b3576040517f08c379a00000000000000000000000000000000000000000000000000000000081526004016104aa90611f62565b60405180910390fd5b60006001600084815260200190815260200160002060020160009054906101000a900460ff16905060006005811115610515577f4e487b7100000000000000000000000000000000000000000000000000000000600052602160045260246000fd5b81600581111561054e577f4e487b7100000000000000000000000000000000000000000000000000000000600052602160045260246000fd5b1415610592576040518060400160405280601581526020017f526177204d6174657269616c20537570706c696572000000000000000000000081525091505061095e565b600160058111156105cc577f4e487b7100000000000000000000000000000000000000000000000000000000600052602160045260246000fd5b816005811115610605577f4e487b7100000000000000000000000000000000000000000000000000000000600052602160045260246000fd5b1415610649576040518060400160405280600881526020017f537570706c69657200000000000000000000000000000000000000000000000081525091505061095e565b60026005811115610683577f4e487b7100000000000000000000000000000000000000000000000000000000600052602160045260246000fd5b8160058111156106bc577f4e487b7100000000000000000000000000000000000000000000000000000000600052602160045260246000fd5b1415610700576040518060400160405280600781526020017f536869707065720000000000000000000000000000000000000000000000000081525091505061095e565b6003600581111561073a577f4e487b7100000000000000000000000000000000000000000000000000000000600052602160045260246000fd5b816005811115610773577f4e487b7100000000000000000000000000000000000000000000000000000000600052602160045260246000fd5b14156107b7576040518060400160405280600b81526020017f4469737472696275746f7200000000000000000000000000000000000000000081525091505061095e565b600460058111156107f1577f4e487b7100000000000000000000000000000000000000000000000000000000600052602160045260246000fd5b81600581111561082a577f4e487b7100000000000000000000000000000000000000000000000000000000600052602160045260246000fd5b141561086e576040518060400160405280600881526020017f52657461696c657200000000000000000000000000000000000000000000000081525091505061095e565b6005808111156108a7577f4e487b7100000000000000000000000000000000000000000000000000000000600052602160045260246000fd5b8160058111156108e0577f4e487b7100000000000000000000000000000000000000000000000000000000600052602160045260246000fd5b1415610924576040518060400160405280600481526020017f536f6c640000000000000000000000000000000000000000000000000000000081525091505061095e565b6040518060400160405280600781526020017f556e6b6e6f776e000000000000000000000000000000000000000000000000008152509150505b919050565b60005481106109a7576040517f08c379a000000000000000000000000000000000000000000000000000000000815260040161099e90611f62565b60405180910390fd5b60006001600083815260200190815260200160002090506005808111156109f7577f4e487b7100000000000000000000000000000000000000000000000000000000600052602160045260246000fd5b8160020160009054906101000a900460ff166005811115610a41577f4e487b7100000000000000000000000000000000000000000000000000000000600052602160045260246000fd5b1415610a82576040517f08c379a0000000000000000000000000000000000000000000000000000000008152600401610a7990611f22565b60405180910390fd5b60018160020160009054906101000a900460ff166005811115610ace577f4e487b7100000000000000000000000000000000000000000000000000000000600052602160045260246000fd5b610ad8919061201a565b6005811115610b10577f4e487b7100000000000000000000000000000000000000000000000000000000600052602160045260246000fd5b8160020160006101000a81548160ff02191690836005811115610b5c577f4e487b7100000000000000000000000000000000000000000000000000000000600052602160045260246000fd5b02179055505050565b60058181548110610b7557600080fd5b9060005260206000209060030201600091509050806000018054610b9890612113565b80601f0160208091040260200160405190810160405280929190818152602001828054610bc490612113565b8015610c115780601f10610be657610100808354040283529160200191610c11565b820191906000526020600020905b815481529060010190602001808311610bf457829003601f168201915b5050505050908060010160009054906101000a900473ffffffffffffffffffffffffffffffffffffffff1690806002018054610c4c90612113565b80601f0160208091040260200160405190810160405280929190818152602001828054610c7890612113565b8015610cc55780601f10610c9a57610100808354040283529160200191610cc5565b820191906000526020600020905b815481529060010190602001808311610ca857829003601f168201915b5050505050905083565b6001602052806000526040600020600091509050806000018054610cf290612113565b80601f0160208091040260200160405190810160405280929190818152602001828054610d1e90612113565b8015610d6b5780601f10610d4057610100808354040283529160200191610d6b565b820191906000526020600020905b815481529060010190602001808311610d4e57829003601f168201915b505050505090806001018054610d8090612113565b80601f0160208091040260200160405190810160405280929190818152602001828054610dac90612113565b8015610df95780601f10610dce57610100808354040283529160200191610df9565b820191906000526020600020905b815481529060010190602001808311610ddc57829003601f168201915b5050505050908060020160009054906101000a900460ff16908060020160019054906101000a900473ffffffffffffffffffffffffffffffffffffffff16905084565b604051806080016040528083815260200182815260200160006005811115610e8d577f4e487b7100000000000000000000000000000000000000000000000000000000600052602160045260246000fd5b81526020013373ffffffffffffffffffffffffffffffffffffffff1681525060016000805481526020019081526020016000206000820151816000019080519060200190610edc929190611af9565b506020820151816001019080519060200190610ef9929190611af9565b5060408201518160020160006101000a81548160ff02191690836005811115610f4b577f4e487b7100000000000000000000000000000000000000000000000000000000600052602160045260246000fd5b021790555060608201518160020160016101000a81548173ffffffffffffffffffffffffffffffffffffffff021916908373ffffffffffffffffffffffffffffffffffffffff160217905550905050600080815480929190610fac90612145565b91905055505050565b60028181548110610fc557600080fd5b9060005260206000209060030201600091509050806000018054610fe890612113565b80601f016020809104026020016040519081016040528092919081815260200182805461101490612113565b80156110615780601f1061103657610100808354040283529160200191611061565b820191906000526020600020905b81548152906001019060200180831161104457829003601f168201915b5050505050908060010160009054906101000a900473ffffffffffffffffffffffffffffffffffffffff169080600201805461109c90612113565b80601f01602080910402602001604051908101604052809291908181526020018280546110c890612113565b80156111155780601f106110ea57610100808354040283529160200191611115565b820191906000526020600020905b8154815290600101906020018083116110f857829003601f168201915b5050505050905083565b6006818154811061112f57600080fd5b906000526020600020906003020160009150905080600001805461115290612113565b80601f016020809104026020016040519081016040528092919081815260200182805461117e90612113565b80156111cb5780601f106111a0576101008083540402835291602001916111cb565b820191906000526020600020905b8154815290600101906020018083116111ae57829003601f168201915b5050505050908060010160009054906101000a900473ffffffffffffffffffffffffffffffffffffffff169080600201805461120690612113565b80601f016020809104026020016040519081016040528092919081815260200182805461123290612113565b801561127f5780601f106112545761010080835404028352916020019161127f565b820191906000526020600020905b81548152906001019060200180831161126257829003601f168201915b5050505050905083565b600560405180606001604052808581526020018473ffffffffffffffffffffffffffffffffffffffff1681526020018381525090806001815401808255809150506001900390600052602060002090600302016000909190919091506000820151816000019080519060200190611301929190611af9565b5060208201518160010160006101000a81548173ffffffffffffffffffffffffffffffffffffffff021916908373ffffffffffffffffffffffffffffffffffffffff1602179055506040820151816002019080519060200190611365929190611af9565b505050505050565b600660405180606001604052808581526020018473ffffffffffffffffffffffffffffffffffffffff16815260200183815250908060018154018082558091505060019003906000526020600020906003020160009091909190915060008201518160000190805190602001906113e5929190611af9565b5060208201518160010160006101000a81548173ffffffffffffffffffffffffffffffffffffffff021916908373ffffffffffffffffffffffffffffffffffffffff1602179055506040820151816002019080519060200190611449929190611af9565b505050505050565b6004818154811061146157600080fd5b906000526020600020906003020160009150905080600001805461148490612113565b80601f01602080910402602001604051908101604052809291908181526020018280546114b090612113565b80156114fd5780601f106114d2576101008083540402835291602001916114fd565b820191906000526020600020905b8154815290600101906020018083116114e057829003601f168201915b5050505050908060010160009054906101000a900473ffffffffffffffffffffffffffffffffffffffff169080600201805461153890612113565b80601f016020809104026020016040519081016040528092919081815260200182805461156490612113565b80156115b15780601f10611586576101008083540402835291602001916115b1565b820191906000526020600020905b81548152906001019060200180831161159457829003601f168201915b5050505050905083565b600460405180606001604052808581526020018473ffffffffffffffffffffffffffffffffffffffff1681526020018381525090806001815401808255809150506001900390600052602060002090600302016000909190919091506000820151816000019080519060200190611633929190611af9565b5060208201518160010160006101000a81548173ffffffffffffffffffffffffffffffffffffffff021916908373ffffffffffffffffffffffffffffffffffffffff1602179055506040820151816002019080519060200190611697929190611af9565b505050505050565b60006006805490506005805490506004805490506003805490506002805490506116c9919061201a565b6116d3919061201a565b6116dd919061201a565b6116e7919061201a565b905090565b600381815481106116fc57600080fd5b906000526020600020906003020160009150905080600001805461171f90612113565b80601f016020809104026020016040519081016040528092919081815260200182805461174b90612113565b80156117985780601f1061176d57610100808354040283529160200191611798565b820191906000526020600020905b81548152906001019060200180831161177b57829003601f168201915b5050505050908060010160009054906101000a900473ffffffffffffffffffffffffffffffffffffffff16908060020180546117d390612113565b80601f01602080910402602001604051908101604052809291908181526020018280546117ff90612113565b801561184c5780601f106118215761010080835404028352916020019161184c565b820191906000526020600020905b81548152906001019060200180831161182f57829003601f168201915b5050505050905083565b600054811061189a576040517f08c379a000000000000000000000000000000000000000000000000000000000815260040161189190611f62565b60405180910390fd5b6000600160008381526020019081526020016000209050600460058111156118eb577f4e487b7100000000000000000000000000000000000000000000000000000000600052602160045260246000fd5b8160020160009054906101000a900460ff166005811115611935577f4e487b7100000000000000000000000000000000000000000000000000000000600052602160045260246000fd5b14611975576040517f08c379a000000000000000000000000000000000000000000000000000000000815260040161196c90611f42565b60405180910390fd5b60058160020160006101000a81548160ff021916908360058111156119c3577f4e487b7100000000000000000000000000000000000000000000000000000000600052602160045260246000fd5b0217905550338160020160016101000a81548173ffffffffffffffffffffffffffffffffffffffff021916908373ffffffffffffffffffffffffffffffffffffffff1602179055505050565b60005481565b600260405180606001604052808581526020018473ffffffffffffffffffffffffffffffffffffffff1681526020018381525090806001815401808255809150506001900390600052602060002090600302016000909190919091506000820151816000019080519060200190611a8d929190611af9565b5060208201518160010160006101000a81548173ffffffffffffffffffffffffffffffffffffffff021916908373ffffffffffffffffffffffffffffffffffffffff1602179055506040820151816002019080519060200190611af1929190611af9565b505050505050565b828054611b0590612113565b90600052602060002090601f016020900481019282611b275760008555611b6e565b82601f10611b4057805160ff1916838001178555611b6e565b82800160010185558215611b6e579182015b82811115611b6d578251825591602001919060010190611b52565b5b509050611b7b9190611b7f565b5090565b5b80821115611b98576000816000905550600101611b80565b5090565b6000611baf611baa84611fce565b611f9d565b905082815260208101848484011115611bc757600080fd5b611bd28482856120d1565b509392505050565b600081359050611be98161226f565b92915050565b600082601f830112611c0057600080fd5b8135611c10848260208601611b9c565b91505092915050565b600081359050611c2881612286565b92915050565b600080600060608486031215611c4357600080fd5b600084013567ffffffffffffffff811115611c5d57600080fd5b611c6986828701611bef565b9350506020611c7a86828701611bda565b925050604084013567ffffffffffffffff811115611c9757600080fd5b611ca386828701611bef565b9150509250925092565b60008060408385031215611cc057600080fd5b600083013567ffffffffffffffff811115611cda57600080fd5b611ce685828601611bef565b925050602083013567ffffffffffffffff811115611d0357600080fd5b611d0f85828601611bef565b9150509250929050565b600060208284031215611d2b57600080fd5b6000611d3984828501611c19565b91505092915050565b611d4b81612070565b82525050565b611d5a816120bf565b82525050565b6000611d6b82611ffe565b611d758185612009565b9350611d858185602086016120e0565b611d8e8161224a565b840191505092915050565b6000611da6601483612009565b91507f50726f6475637420616c726561647920736f6c640000000000000000000000006000830152602082019050919050565b6000611de6601f83612009565b91507f50726f64756374206e6f742079657420696e2072657461696c207374616765006000830152602082019050919050565b6000611e26601283612009565b91507f496e76616c69642070726f6475637420494400000000000000000000000000006000830152602082019050919050565b611e62816120b5565b82525050565b60006020820190508181036000830152611e828184611d60565b905092915050565b60006060820190508181036000830152611ea48186611d60565b9050611eb36020830185611d42565b8181036040830152611ec58184611d60565b9050949350505050565b60006080820190508181036000830152611ee98187611d60565b90508181036020830152611efd8186611d60565b9050611f0c6040830185611d51565b611f196060830184611d42565b95945050505050565b60006020820190508181036000830152611f3b81611d99565b9050919050565b60006020820190508181036000830152611f5b81611dd9565b9050919050565b60006020820190508181036000830152611f7b81611e19565b9050919050565b6000602082019050611f976000830184611e59565b92915050565b6000604051905081810181811067ffffffffffffffff82111715611fc457611fc361221b565b5b8060405250919050565b600067ffffffffffffffff821115611fe957611fe861221b565b5b601f19601f8301169050602081019050919050565b600081519050919050565b600082825260208201905092915050565b6000612025826120b5565b9150612030836120b5565b9250827fffffffffffffffffffffffffffffffffffffffffffffffffffffffffffffffff038211156120655761206461218e565b5b828201905092915050565b600061207b82612095565b9050919050565b60008190506120908261225b565b919050565b600073ffffffffffffffffffffffffffffffffffffffff82169050919050565b6000819050919050565b60006120ca82612082565b9050919050565b82818337600083830152505050565b60005b838110156120fe5780820151818401526020810190506120e3565b8381111561210d576000848401525b50505050565b6000600282049050600182168061212b57607f821691505b6020821081141561213f5761213e6121ec565b5b50919050565b6000612150826120b5565b91507fffffffffffffffffffffffffffffffffffffffffffffffffffffffffffffffff8214156121835761218261218e565b5b600182019050919050565b7f4e487b7100000000000000000000000000000000000000000000000000000000600052601160045260246000fd5b7f4e487b7100000000000000000000000000000000000000000000000000000000600052602160045260246000fd5b7f4e487b7100000000000000000000000000000000000000000000000000000000600052602260045260246000fd5b7f4e487b7100000000000000000000000000000000000000000000000000000000600052604160045260246000fd5b6000601f19601f8301169050919050565b6006811061226c5761226b6121bd565b5b50565b61227881612070565b811461228357600080fd5b50565b61228f816120b5565b811461229a57600080fd5b5056fea2646970667358221220abc71eaaefd774e599f444c0104a711a5416aec950782d96fdef0d86a902b78564736f6c63430008000033",
  "immutableReferences": {},
  "source": "// SPDX-License-Identifier: MIT\npragma solidity ^0.8.0;\n\ncontract SupplyChain {\n    enum Stage { RawMaterial, Supplier, Shipper, Distributor, Retailer, Sold }\n\n    struct Company {\n        string name;\n        address companyAddress;\n        string placeOfOperation;\n    }\n\n    struct Product {\n        string name;\n        string description;\n        Stage currentStage;\n        address currentOwner;\n    }\n\n    uint public productCount = 0;\n    mapping(uint => Product) public products;\n\n    Company[] public rawMaterialSuppliers;\n    Company[] public suppliers;\n    Company[] public shippers;\n    Company[] public distributors;\n    Company[] public retailers;\n\n    // Add Company Functions\n    function addRawMaterialSupplier(string memory name, address companyAddr, string memory location) public {\n        rawMaterialSuppliers.push(Company(name, companyAddr, location));\n    }\n\n    function addSupplier(string memory name, address companyAddr, string memory location) public {\n        suppliers.push(Company(name, companyAddr, location));\n    }\n\n    function addShipper(string memory name, address companyAddr, string memory location) public {\n        shippers.push(Company(name, companyAddr, location));\n    }\n\n    function addDistributer(string memory name, address companyAddr, string memory location) public {\n        distributors.push(Company(name, companyAddr, location));\n    }\n\n    function addRetailer(string memory name, address companyAddr, string memory location) public {\n        retailers.push(Company(name, companyAddr, location));\n    }\n\n    // Create a new product\n    function createProduct(string memory name, string memory description) public {\n        products[productCount] = Product(name, description, Stage.RawMaterial, msg.sender);\n        productCount++;\n    }\n\n    // Simulate progress through supply chain\n    function advanceStage(uint productId) public {\n        require(productId < productCount, \"Invalid product ID\");\n        Product storage product = products[productId];\n        require(product.currentStage != Stage.Sold, \"Product already sold\");\n        product.currentStage = Stage(uint(product.currentStage) + 1);\n    }\n\n    // Purchase item at final stage\n    function purchaseItem(uint productId) public {\n        require(productId < productCount, \"Invalid product ID\");\n        Product storage product = products[productId];\n        require(product.currentStage == Stage.Retailer, \"Product not yet in retail stage\");\n        product.currentStage = Stage.Sold;\n        product.currentOwner = msg.sender;\n    }\n\n    // View current stage\n    function viewCurrentStage(uint productId) public view returns (string memory) {\n        require(productId < productCount, \"Invalid product ID\");\n        Stage stage = products[productId].currentStage;\n        if (stage == Stage.RawMaterial) return \"Raw Material Supplier\";\n        if (stage == Stage.Supplier) return \"Supplier\";\n        if (stage == Stage.Shipper) return \"Shipper\";\n        if (stage == Stage.Distributor) return \"Distributor\";\n        if (stage == Stage.Retailer) return \"Retailer\";\n        if (stage == Stage.Sold) return \"Sold\";\n        return \"Unknown\";\n    }\n    function getTotalActors() public view returns (uint) {\n    return rawMaterialSuppliers.length + suppliers.length + shippers.length + distributors.length + retailers.length;\n  }\n}\n\n",
  "sourcePath": "/home/osboxes/Desktop/196DProject/contracts/SupplyChain.sol",
  "compiler": {
    "name": "solc",
    "version": "0.8.0+commit.c7dfd78e.Emscripten.clang"
  },
  "schemaVersion": "3.4.16",
  "updatedAt": "2025-04-24T04:52:39.374Z",
  "networkType": "ethereum",
  "devdoc": {
    "kind": "dev",
    "methods": {},
    "version": 1
  },
  "userdoc": {
    "kind": "user",
    "methods": {},
    "version": 1
  }
}